:020000040800F2
:10000000600600206D0100087501000877010008F6
:10001000790100087B0100087D0100080000000054
:100020000000000000000000000000007F01000848
:10003000810100080000000083010008850100081C
:100040008701000887010008870100088701000870
:100050008701000887010008870100088701000860
:100060008701000887010008870100088701000850
:100070008701000887010008870100088701000840
:100080008701000887010008870100088701000830
:100090008701000887010008870100088701000820
:1000A0008701000887010008870100088701000810
:1000B0008701000887010008870100088701000800
:1000C00087010008870100088701000887010008F0
:1000D00087010008870100088701000887010008E0
:1000E00087010008870100088701000800F002F876
:1000F00000F02CF80AA090E8000C82448344AAF196
:100100000107DA4501D100F021F8AFF2090EBAE893
:100110000F0013F0010F18BFFB1A43F0010318473B
:10012000A8D40100B8D40100002300240025002633
:10013000103A28BF78C1FBD8520728BF30C148BF4A
:100140000B6070471FB51FBD10B510BD00F031F832
:100150001146FFF7F7FF00F0EFFC00F04FF803B493
:10016000FFF7F2FF03BC00F057F800000948804792
:1001700009480047FEE7FEE7FEE7FEE7FEE7FEE789
:10018000FEE7FEE7FEE7FEE704480549054A064BA1
:10019000704700009D050008ED0000086000002089
:1001A0006006002060020020600200207047704757
:1001B0007047754600F02CF8AE4605006946534678
:1001C00020F00700854618B020B5FFF7DDFFBDE839
:1001D00020404FF000064FF000074FF000084FF0AE
:1001E000000B21F00701AC46ACE8C009ACE8C0093F
:1001F000ACE8C009ACE8C0098D46704710B50446AC
:10020000AFF300802046BDE81040FFF7A8BF000014
:10021000004870470000002001491820ABBEFEE7EF
:10022000260002007047F0B507460C4615461E46EC
:100230002A2000F05FFC002000F06CFC384600F043
:1002400069FC002000F066FC284600F063FC2B20CF
:1002500000F050FC002000F05DFC204600F05AFC4D
:10026000002000F057FC304600F054FC2C2000F039
:1002700041FCF0BD1148806940F008000F498861D9
:100280000F480068C0F313000D4908600846006875
:100290000C4908430A490860081D006820F0FF0067
:1002A000091D08600846006840F0330008604FF6FA
:1002B000FF7003490C3108607047000000100240D5
:1002C000000C0140000030332DE9F04704460D4694
:1002D0001646B6231A4637210846FFF7A4FF002723
:1002E0002DE04FF0000825E014F801AB4FF00009B5
:1002F00019E00AF0800038B1C5F3072000F00AFCCD
:10030000E8B200F007FC06E0C6F3072000F002FCAC
:10031000F0B200F0FFFB4FEA4A604FEA106A09F1C1
:1003200001001FFA80F9B9F1080FE2DB08F10100C2
:100330001FFA80F8B8F1800FD6DB781C87B2102F37
:10034000CFDBBDE8F0872DE9F04705460E4617469E
:100350009846089C06EB080CACF1010C0CF0FF036E
:1003600005EB070CACF1010C0CF0FF02F1B2E8B2A6
:10037000FFF759FF4FF0000914E04FF0000A0BE0BF
:1003800014F8010B00F0C6FB14F8010B00F0C2FBDF
:100390000AF101001FFA80FAC245F1DB09F1010000
:1003A0001FFA80F9B945E8DBBDE8F087002114E0C9
:1003B00020220B4B1A6000F0800212B940221A6012
:1003C00003E04022064B1B1F1A604206100E20223B
:1003D000034B1B1F1A604A1CD1B20829E8DB704787
:1003E000140C01400021304A1161D1601421516187
:1003F00000219161D1611146096841F0010111604C
:1004000011464968294A1140274A51601146096836
:10041000274A1140244A11601146096821F48021BD
:1004200011601146496821F4FE01516000BF1E4968
:100430004968C1F381010029F9D11B4A9160114635
:10044000096841F48031116000BF17490968C1F3A0
:1004500040410029F9D04FF48061134A5160811E58
:10046000C8B21146496841EA804151601146496865
:1004700041F4803151601146096841F0807111608A
:1004800000BF09490968490E0029FAD006494968A0
:1004900041F00201044A516000BF03494968C1F3B9
:1004A00081010229F9D17047001002400000FFF8D5
:1004B000FFFFF6FE10B500F001F810BD0CB50020EE
:1004C000019000903348006840F480303149086062
:1004D00000BF3048006800F4003000900198401CD4
:1004E0000190009818B90198B0F5A06FF1D1294892
:1004F000006800F4003010B10120009001E00020FD
:1005000000900098012843D12348006840F0100073
:10051000214908600846006820F00300086008468A
:10052000006840F0020008601A48406819494860B5
:100530000846406848600846406840F4806048606B
:100540000846406820F47C1048600846406840F443
:10055000E81048600846006840F08070086000BFFE
:100560000C48006800F000700028F9D00948406885
:1005700020F00300074948600846406840F0020048
:10058000486000BF0348406800F00C000828F9D11B
:100590000CBD0000001002400020024010B51348BE
:1005A000006840F0010011490860084640681049A1
:1005B00008400E494860084600680E4908400B494B
:1005C00008600846006820F48020086008464068FB
:1005D00020F4FE0048604FF41F008860FFF76AFFB8
:1005E0004FF000600449086010BD00000010024098
:1005F0000000FFF8FFFFF6FE08ED00E030B5EF2346
:100600001A4600210846FFF70EFE00240DE00025E3
:1006100007E0002000F07EFA002000F07BFA681C62
:10062000C5B2F02DF5DB601CC4B2F02CEFDB30BDA1
:1006300070B50446EF231A4600210846FFF7F3FD84
:1006400000250EE0002608E0C4F3072000F062FA5F
:10065000E0B200F05FFA701CC6B2F02EF4DB681C4A
:10066000C5B2F02DEEDB70BD00B54FF40070FE4951
:100670000860642000F054FA4FF40070FA49091F32
:1006800008604010091D0860642000F049FAEF205E
:1006900000F030FAEB2000F02DFA142000F03AFAC6
:1006A000FE2000F027FAEF2000F024FAEB2000F003
:1006B00021FA142000F02EFA842000F01BFA4020CA
:1006C00000F028FA852000F015FAFF2000F022FA49
:1006D000862000F00FFAFF2000F01CFA872000F0BF
:1006E00009FAFF2000F016FA882000F003FA0A2029
:1006F00000F010FA892000F0FDF9212000F00AFA3C
:100700008A2000F0F7F9002000F004FA8B2000F0B6
:10071000F1F9802000F0FEF98C2000F0EBF90120C7
:1007200000F0F8F98D2000F0E5F9012000F0F2F971
:100730008E2000F0DFF9FF2000F0ECF98F2000F0B0
:10074000D9F9FF2000F0E6F9B62000F0D3F9002037
:1007500000F0E0F9202000F0DDF9362000F0CAF9C1
:10076000082000F0D7F93A2000F0C4F9052000F085
:10077000D1F9902000F0BEF9082000F0CBF9082054
:1007800000F0C8F9082000F0C5F9082000F0C2F90F
:10079000BD2000F0AFF9062000F0BCF9BC2000F04D
:1007A000A9F9002000F0B6F9FF2000F0A3F96020BD
:1007B00000F0B0F9012000F0ADF9042000F0AAF932
:1007C000C32000F097F9132000F0A4F9C42000F032
:1007D00091F9132000F09EF9C92000F08BF9222036
:1007E00000F098F9BE2000F085F9112000F092F990
:1007F000E12000F07FF9102000F08CF90E2000F0CD
:1008000089F9DF2000F076F9212000F083F90C202F
:1008100000F080F9022000F07DF9F02000F06AF984
:10082000452000F077F9092000F074F9082000F065
:1008300071F9082000F06EF9262000F06BF92A20EB
:1008400000F068F9F12000F055F9432000F062F95A
:10085000702000F05FF9722000F05CF9362000F0A3
:1008600059F9372000F056F96F2000F053F9F220C3
:1008700000F040F9452000F04DF9092000F04AF958
:10088000082000F047F9082000F044F9262000F085
:1008900041F92A2000F03EF9F32000F02BF9432023
:1008A00000F038F9702000F035F9722000F032F9CC
:1008B000362000F02FF9372000F02CF96F2000F0DF
:1008C00029F9ED2000F016F91B2000F023F90B2088
:1008D00000F020F9AE2000F00DF9772000F01AF9B1
:1008E000CD2000F007F9632000F014F9702000F02B
:1008F00001F9072000F00EF9072000F00BF90420A1
:1009000000F008F90E2000F005F90F2000F002F9C0
:10091000092000F0FFF8072000F0FCF8082000F0A4
:10092000F9F8032000F0F6F8E82000F0E3F83420AE
:1009300000F0F0F8622000F0DDF8182000F0EAF88E
:100940000D2000F0E7F8712000F0E4F8ED2000F051
:10095000E1F8702000F0DEF8702000F0DBF81820DD
:1009600000F0D8F80F2000F0D5F8712000F0D2F890
:10097000EF2000F0CFF8702000F0CCF8702000F0ED
:10098000C9F8632000F0B6F8182000F0C3F8112071
:1009900000F0C0F8712000F0BDF8F12000F0BAF8C6
:1009A000702000F0B7F8702000F0B4F8182000F0C4
:1009B000B1F8132000F0AEF8712000F0ABF8F3208E
:1009C00000F0A8F8702000F0A5F8702000F0A2F860
:1009D000642000F08FF8282000F09CF8292000F017
:1009E00099F8F12000F096F8012000F093F8F1203A
:1009F00000F090F8002000F08DF8072000F08AF851
:100A0000662000F077F83C2000F084F8002000F029
:100A100081F8CD2000F07EF8672000F07BF84520BB
:100A200000F078F8452000F075F8102000F072F81A
:100A3000002000F06FF8002000F06CF8002000F0BB
:100A400069F8672000F056F8002000F063F83C20B9
:100A500000F060F8002000F05DF8002000F05AF887
:100A6000002000F057F801E0140C0140012000F0D4
:100A700051F8542000F04EF8102000F04BF83220CE
:100A800000F048F8982000F045F8742000F032F8A3
:100A9000102000F03FF8852000F03CF8802000F0A6
:100AA00039F8002000F036F8002000F033F84E202E
:100AB00000F030F8002000F02DF8982000F01AF82F
:100AC0003E2000F027F8072000F024F8342000F042
:100AD00011F8212000F00EF8112000F00BF878201A
:100AE00000F01EF8292000F005F8142000F018F896
:100AF00000BD000010B5044680200549086020466E
:100B0000FFF754FC80200249091F086010BD000057
:100B1000140C014010B504462046FFF747FC10BDF9
:100B2000002106E0002200E0521CB2F5617FFBD3F9
:100B3000491C8142F6D3704708B50820FFF752FCE4
:100B4000FFF798FBFFF790FDFFF758FD4FF4FC60AF
:100B5000FFF76EFD42F21070FFF7E2FF4FF47840AE
:100B6000FFF766FD42F21070FFF7DAFF1F20FFF774
:100B70005FFD42F21070FFF7D3FF4FF6FF70FFF7F3
:100B800057FD42F21070FFF7CBFFFFF737FD16E07D
:100B90004FF4FC624FF478410948FFF795FB42F2AD
:100BA0001070FFF7BDFF0748F0231A4600210090A0
:100BB0000846FFF7C8FB42F21070FFF7B1FFE7E706
:100BC000C8CD0108C80B0008FFFFFFFFFFFFFFFFB4
:100BD000FFFFFFFFFFFFFFFFFFFFFFFFFFFFFFFF25
:100BE000FFFFFFFFFFFFFFFFFFFFFFFFFFFFFFFF15
:100BF000FFFFFFFFFFFFFFFFFFFFFFFFFFFFFFFF05
:100C0000FFFFFFFFFFFFFFFFFFFFFFFFFFFFFFFFF4
:100C1000FFFFFFFFFFFFFFFFFFFFFFFFFFFFFFFFE4
:100C2000FFFFFFFFFFFFFFFFFFFFFFFFFFFFFFFFD4
:100C3000FFFFFFFFFFFFFFFFFFFFFFFFFFFFFFFFC4
:100C4000FFFFFFFFFFFFFFFFFFFFFFFFFFFFFFFFB4
:100C5000FFFFFFFFFFFFFFFFFFFFFFFFFFFFFFFFA4
:100C6000FFFFFFFFFFFFFFFFFFFFFFFFFFDFFFFFB4
:100C7000FFFFFFFFFFFFFFFFFFFFFFFFFFFFFFFF84
:100C8000FFFFFFFFFFFFFFFFFFFFFFFFFFFFFFFF74
:100C9000FFFFFFFFFFFFFFFFFFFFFFFFFFFFFFFF64
:100CA000FFFFFFFFFFDFFFFFFFFFFFFFFFFFFFFF74
:100CB000FFFFFFFFFFFFFFFFFFFFFFFFFFFFFFFF44
:100CC000FFFFFFFFFFFFFFFFFFFFFFFFFFFFFFFF34
:100CD000FFFFFFFFFFFFFFFFFFFFFFFFFFFFFFFF24
:100CE000FFFFFFFFFFFFFFFFFFFFFFFFFFFFFFFF14
:100CF000FFFFFFFFFFFFFFFFFFFFFFFFFFFFFFFF04
:100D0000FFFFFFFFFFFFFFFFFFFFFFFFFFFFFFFFF3
:100D1000FFFFFFFFFFFFFFFFFFFFFFFFFFFFFFFFE3
:100D2000FFFFFFFFFFFFFFFFFFFFFFFFFFFFFFFFD3
:100D3000FFFFFFFFFFFFFFFFFFFFFFFFFFFFFFFFC3
:100D4000FFFFFFFFFFFFFFFFFFFFFFFFFFFFFFFFB3
:100D5000FFFFFFFFFFFFFFFFFFFFFFFFFFFFFFFFA3
:100D6000FFFFFFFFFFFFFFFFFFFFFFFFFFFFFFFF93
:100D7000FFFFFFFFFFFFFFFFFFFFFFFFFFFFFFFF83
:100D8000FFFFFFFFFFFFFFFFFFFFFFFFFFFFFFFF73
:100D9000FFFFFFFFFFFFFFFFFFFFFFFFFFFFFFFF63
:100DA000FFFFFFFFFFFFFFFFFFFFFFFFFFFFFFFF53
:100DB000FFFFFFFFFFFFFFFFFFFFFFFFFFFFFFFF43
:100DC000FFFFFFFFFFFFFFFFFFFFFFFFFFFFFFFF33
:100DD000FFFFFFFFFFFFFFFFFFFFFFFFFFFFFFFF23
:100DE000FFFFFFFFFFFFFFFFFFFFFFFFFFFFFFFF13
:100DF000FFFFFFFFFFFFFFFFFFFFFFFFFFFFFFFF03
:100E0000FFFFFFFFFFFFFFFFFFFFFFFFFFFFFFFFF2
:100E1000FFFFFFFFFFFFFFFFFFFFFFFFFFFFFFFFE2
:100E2000FFFFFFFFFFFFFFFFFFFFFFFFFFFFFFFFD2
:100E3000FFFFFFFFFFFFFFFFFFFFFFFFFFFFFFFFC2
:100E4000FFFFFFFFFFFFFFFFFFDFFFFFFFFFFFFFD2
:100E5000FFFFFFFFFFFFFFFFFFDFFFFFFFFFFFFFC2
:100E6000FFFFFFDFFFFFFFFFFFFFFFFFFFFFFFFFB2
:100E7000FFFFFFFFFFFFFFFFFFFFFFFFFFFFFFFF82
:100E8000FFFFFFFFFFFFFFFFFFFFFFFFFFFFFFFF72
:100E9000F7FFF7FFEFFFF7FFF7FFEFFFF7FFF7FFB2
:100EA000FFFFFFFFFFFFFFFFFFFFFFFFFFDFFFFF72
:100EB000FFFFFFFFFFFFFFFFFFFFFFFFFFFFFFFF42
:100EC000FFFFFFFFFFFFFFFFFFFFFFFFFFFFFFFF32
:100ED000FFFFFFFFFFFFFFFFFFFFFFFFFFFFFFFF22
:100EE000FFFFFFDFFFFFFFFFFFFFFFFFFFFFFFFF32
:100EF000FFFFFFFFFFFFFFFFFFFFFFFFFFFFFFFF02
:100F0000FFFFFFFFFFFFFFFFFFFFFFFFFFFFFFFFF1
:100F1000FFFFFFFFFFFFFFFFFFFFFFFFFFFFFFFFE1
:100F2000FFFFFFFFFFFFFFFFFFFFFFFFFFFFFFFFD1
:100F3000FFFFFFFFFFFFFFFFFFFFFFFFFFFFFFFFC1
:100F4000FFFFFFFFFFFFFFFFFFFFFFFFFFFFFFFFB1
:100F5000FFFFFFFFFFFFFFFFFFFFFFFFFFFFFFFFA1
:100F6000FFFFFFFFFFFFFFFFFFFFFFFFFFFFFFFF91
:100F7000FFFFFFFFFFFFFFFFFFFFFFFFFFFFFFFF81
:100F8000FFFFFFFFFFFFFFFFFFFFFFFFFFFFFFFF71
:100F9000FFFFFFFFFFFFFFFFFFFFFFFFFFFFFFFF61
:100FA000FFFFFFFFFFFFFFFFFFFFFFFFFFFFFFFF51
:100FB000FFFFFFFFFFFFFFFFFFFFFFFFFFFFFFFF41
:100FC000FFFFFFFFFFFFFFFFFFFFFFFFFFFFFFFF31
:100FD000FFFFFFFFFFFFFFFFFFFFFFFFFFFFFFFF21
:100FE000FFFFFFFFFFFFFFFFFFFFFFFFFFFFFFFF11
:100FF000FFFFFFFFFFFFFFFFFFFFFFFFFFFFFFFF01
:10100000FFFFFFFFFFFFFFFFFFFFFFFFFFFFFFFFF0
:10101000FFFFFFFFFFFFFFFFFFFFFFFFFFFFFFFFE0
:10102000FFFFFFFFFFFFFFFFFFFFFFFFFFFFFFFFD0
:10103000FFFFFFFFFFFFFFFFFFFFFFFFFFFFFFFFC0
:10104000FFFFFFFFFFFFFFFFFFFFEF9DD6BAA55594
:1010500084307BEF73AE6B8E6B6D6B6D634C6B4D41
:101060006B4D6B4D6B4D6B4D6B4D6B4D6B4D6B8E7F
:101070005BCE54104C3144314472443154305BEEF9
:101080006B8E6B4D6B6D6B6D6B4D6B4D6B6D6B4DFF
:101090006B6D6B4D6B6D6B8E738E7BCF841084513B
:1010A000B5B6DF1CF7DFFFFFFFFFFFFFFFFFF7DF36
:1010B000FFFFFFFFFFFFFFFFFFFFFFFFFFFFFFFF40
:1010C000FFFFFFFFFFFFFFFFFFFFFFFFFFFFFFFF30
:1010D000FFFFFFFFFFFFFFFFFFFFFFFFFFFFFFFF20
:1010E000FFFFFFFFFFFFFFFFFFFFFFFFFFFFFFFF10
:1010F000FFFFFFFFFFFFFFFFFFFFFFFFFFFFFFFF00
:10110000FFFFFFFFFFFFFFFFFFFFFFFFFFFFFFFFEF
:10111000FFFFFFFFFFFFFFFFFFFFFFFFFFFFFFFFDF
:10112000FFFFFFFFFFFFFFFFFFFFFFFFFFFFFFFFCF
:10113000FFFFFFFFFFFFFFFFFFFFFFFFFFFFFFFFBF
:10114000FFFFFFFFFFFFFFFFFFFFFFFFFFFFFFFFAF
:10115000FFFFFFFFFFFFFFFFFFFFFFFFFFFFFFFF9F
:10116000FFFFFFFFFFFFFFFFFFFFFFFFFFFFFFFF8F
:10117000FFFFFFFFFFFFFFFFFFFFFFFFFFFFFFFF7F
:10118000FFFFFFFFFFFFFFFFFFFFFFFFFFFFFFFF6F
:10119000FFFFFFFFFFFFFFFFFFFFFFFFFFFFFFFF5F
:1011A000FFFFFFFFFFFFFFFFFFFFFFFFFFFFFFFF4F
:1011B000FFFFFFFFFFFFFFFFFFFFFFFFFFFFFFFF3F
:1011C000FFFFFFFFFFFFFFFFFFFFFFFFFFFFFFFF2F
:1011D000FFFFFFFFFFFFFFFFFFFFFFFFFFFFFFFF1F
:1011E000FFFFFFFFFFFFFFFFFFFFFFFFFFFFFFFF0F
:1011F000FFFFFFFFFFFFFFFFFFFFFFFFFFFFFFFFFF
:10120000FFFFFFFFFFFFFFFFFFFFFFFFFFFFFFFFEE
:10121000FFFFFFFFFFFFFFFFFFDFFFFFFFFFFFFFFE
:10122000FFFFD6BA9D136B8E39E7298621452145EC
:10123000212421242124212421452145296521041B
:10124000294521242104294521252145294521A677
:10125000124834303D5535B72D9735763430122845
:1012600021C629652925292521252965212421240F
:1012700029652945214429452965214429652945B0
:101280002145214431C74A897C0FAD75DF1CFFFF22
:10129000FFFFFFFFFFFFFFFFFFFFFFFFFFFFFFFF5E
:1012A000FFFFFFFFFFFFFFFFFFFFFFFFFFFFFFFF4E
:1012B000FFFFFFFFFFFFFFFFFFFFFFFFFFFFFFFF3E
:1012C000FFFFFFFFFFFFFFFFFFFFFFFFFFFFFFFF2E
:1012D000FFFFFFFFFFFFFFFFFFFFFFFFFFFFFFFF1E
:1012E000FFFFFFFFFFFFFFFFFFFFFFFFFFFFFFFF0E
:1012F000FFFFFFFFFFFFFFFFFFFFFFFFFFFFFFFFFE
:10130000FFFFFFFFFFFFFFFFFFFFFFFFFFFFFFFFED
:10131000FFFFFFFFFFFFFFFFFFFFFFFFFFFFFFFFDD
:10132000FFFFFFFFFFFFFFFFFFFFFFFFFFFFFFFFCD
:10133000FFFFFFFFFFFFFFFFFFFFFFFFFFFFFFFFBD
:10134000FFFFFFFFFFFFFFFFFFFFFFFFFFFFFFFFAD
:10135000FFFFFFFFFFFFFFFFFFFFFFFFFFFFFFFF9D
:10136000FFFFFFFFFFFFFFFFFFFFFFFFFFFFFFFF8D
:10137000FFFFFFFFFFFFFFFFFFFFFFFFFFFFFFFF7D
:10138000FFFFFFFFFFFFFFFFFFFFFFFFFFFFFFFF6D
:10139000FFFFFFFFFFFFFFFFFFFFFFFFFFFFFFFF5D
:1013A000FFFFFFFFFFFFFFFFFFFFFFFFFFFFFFFF4D
:1013B000FFFFFFFFFFFFFFFFFFFFFFFFFFFFFFFF3D
:1013C000FFFFFFFFFFFFFFFFFFFFFFFFFFFFFFFF2D
:1013D000FFFFFFFFFFFFFFFFFFFFFFFFFFFFFFFF1D
:1013E000FFFFFFFFFFFFFFFFFFFFFFFFFFFFFFFF0D
:1013F000FFFFFFFFFFFFFFFFFFFFC6588C714A8A08
:1014000029852965212421452985296521442965C6
:1014100031862965298529852985296521248430F6
:101420004A69296531A629452966296631A72228F6
:101430000AAA4E38373D277E1F7E3F7E3DB612AA50
:10144000220729C7316631663186318629655AEB14
:1014500073AE2945318629852985296531862986F6
:10146000318629862986214529652144296531C788
:101470006B6D9D13D6DBFFFFFFFFFFFFFFFFFFFF3D
:10148000FFFFFFFFFFFFFFFFFFFFFFFFFFFFFFFF6C
:10149000FFFFFFFFFFFFFFFFFFFFFFFFFFFFFFFF5C
:1014A000FFFFFFFFFFFFFFFFFFFFFFFFFFFFFFFF4C
:1014B000FFFFFFFFFFFFFFFFFFFFFFFFFFFFFFFF3C
:1014C000FFFFFFFFFFFFFFFFFFFFFFFFFFFFFFFF2C
:1014D000FFFFFFFFFFFFFFFFFFFFFFFFFFFFFFFF1C
:1014E000FFFFFFFFFFFFFFFFFFFFFFFFFFFFFFFF0C
:1014F000FFFFFFFFFFFFFFFFFFFFFFFFFFFFFFFFFC
:10150000FFFFFFFFFFFFFFFFFFFFFFFFFFFFFFFFEB
:10151000FFFFFFFFFFFFFFFFFFFFFFFFFFFFFFFFDB
:10152000FFFFFFFFFFFFFFFFFFFFFFFFFFFFFFFFCB
:10153000FFFFFFFFFFFFFFFFFFFFFFFFFFFFFFFFBB
:10154000FFFFFFFFFFFFFFFFFFFFFFFFFFFFFFFFAB
:10155000FFFFFFFFFFFFFFFFFFFFFFFFFFFFFFFF9B
:10156000FFFFFFFFFFFFFFFFFFFFFFFFFFFFFFFF8B
:10157000FFFFFFFFFFFFFFFFFFFFFFFFFFFFFFFF7B
:10158000FFFFFFFFFFFFFFFFFFFFFFFFFFFFFFFF6B
:10159000FFFFFFFFFFFFFFFFFFFFFFFFFFFFFFFF5B
:1015A000FFFFFFFFFFFFFFFFFFFFFFFFFFFFFFFF4B
:1015B000FFFFFFFFFFFFFFFFFFFFFFFFFFFFFFFF3B
:1015C000FFFFFFFFFFFFFFFFFFFFFFFFFFFFFFFF2B
:1015D000FFFFDF1C94D35AEB29652124214529659F
:1015E0002145298629652965214529852986296579
:1015F0002985296531A629652965298529657BCF36
:101600005AEB2945318629663166298631A622485A
:101610000B0C3DF8375D1F9E1FBF2F7D35B70AEBC2
:10162000224829C631863166316631A629456B6D5F
:10163000738E296531A6318631A6318629862986A1
:1016400029862985296531A629862986298629653D
:1016500021452985214531C773AEAD96F7BEFFFF01
:10166000FFFFFFFFFFFFFFFFFFFFFFFFFFFFFFFF8A
:10167000FFFFFFFFFFFFFFFFFFFFFFFFFFFFFFFF7A
:10168000FFFFFFFFFFFFFFFFFFFFFFFFFFFFFFFF6A
:10169000FFFFFFFFFFFFFFFFFFFFFFFFFFFFFFFF5A
:1016A000FFFFFFFFFFFFFFFFFFFFFFFFFFFFFFFF4A
:1016B000FFFFFFFFFFFFFFFFFFFFFFFFFFFFFFFF3A
:1016C000FFFFFFFFFFFFFFFFFFFFFFFFFFFFFFFF2A
:1016D000FFFFFFFFFFFFFFFFFFFFFFFFFFFFFFFF1A
:1016E000FFFFFFFFFFFFFFFFFFFFFFFFFFFFFFFF0A
:1016F000FFFFFFFFFFFFFFFFFFFFFFFFFFFFFFFFFA
:10170000FFFFFFFFFFFFFFFFFFFFFFFFFFFFFFFFE9
:10171000FFFFFFFFFFFFFFFFFFFFFFFFFFFFFFFFD9
:10172000FFFFFFFFFFFFFFFFFFFFFFFFFFFFFFFFC9
:10173000FFFFFFFFFFFFFFFFFFFFFFFFFFFFFFFFB9
:10174000FFFFFFFFFFFFFFFFFFFFFFFFFFFFFFFFA9
:10175000FFFFFFFFFFFFFFFFFFFFFFFFFFFFFFFF99
:10176000FFFFFFFFFFFFFFFFFFFFFFFFFFFFFFFF89
:10177000FFFFFFFFFFFFFFFFFFFFFFFFFFFFFFFF79
:10178000FFFFFFFFFFFFFFFFFFFFFFFFFFFFFFFF69
:10179000FFFFFFFFFFFFFFFFFFFFFFFFFFFFFFFF59
:1017A000FFFFFFFFFFFFF7DFFFFFF7DFD6DB8C71E7
:1017B0003A072124212421452965214529652965E8
:1017C0002986214529458C91528A29452965296513
:1017D00031862965298529652986298529456B6DE5
:1017E0006B6D212429653186298629862985222841
:1017F0000B2C4618469A36DA2EB946FB45F7130CE1
:10180000224829C6298629663186294529657BCF44
:10181000632C2945296531863186318631863186AA
:101820003186318629655AEB84512965214531A6D7
:10183000298621452986296629652145298652CB95
:10184000A535EF7DFFFFFFFFFFFFFFFFFFFFFFFF5E
:10185000FFFFFFFFFFFFFFFFFFFFFFFFFFFFFFFF98
:10186000FFFFFFFFFFFFFFFFFFFFFFFFFFFFFFFF88
:10187000FFFFFFFFFFFFFFFFFFFFFFFFFFFFFFFF78
:10188000FFFFFFFFFFFFFFFFFFFFFFFFFFFFFFFF68
:10189000FFFFFFFFFFFFFFFFFFFFFFFFFFFFFFFF58
:1018A000FFFFFFFFFFFFFFFFFFFFFFFFFFFFFFFF48
:1018B000FFFFFFFFFFFFFFFFFFFFFFFFFFFFFFFF38
:1018C000FFFFFFFFFFFFFFFFFFFFFFFFFFFFFFFF28
:1018D000FFFFFFFFFFFFFFFFFFFFFFFFFFFFFFFF18
:1018E000FFFFFFFFFFFFFFFFFFFFFFFFFFFFFFFF08
:1018F000FFFFFFFFFFFFFFFFFFFFFFFFFFFFFFFFF8
:10190000FFFFFFFFFFFFFFFFFFFFFFFFFFFFFFFFE7
:10191000FFFFFFFFFFFFFFFFFFFFFFFFFFFFFFFFD7
:10192000FFFFFFFFFFFFFFFFFFFFFFFFFFFFFFFFC7
:10193000FFFFFFFFFFFFFFFFFFFFFFFFFFFFFFFFB7
:10194000FFFFFFFFFFFFFFFFFFFFFFFFFFFFFFFFA7
:10195000FFFFFFFFFFFFFFFFFFFFFFFFFFFFFFFF97
:10196000FFFFFFFFFFFFFFFFFFFFFFFFFFFFFFFF87
:10197000FFFFFFFFFFFFFFFFFFFFFFFFFFFFFFFF77
:10198000FFFFFFFFFFFFDF1C84503A0819042144CA
:1019900021452965296529652985296529652965DF
:1019A0002965298621456B8D634D29452986296541
:1019B0002986298529862986296531862124630C73
:1019C0008410212429652985298629A631A62A483B
:1019D0000B2C56580289010301431CB14DD70B0C47
:1019E000224829C6298629863186318629458C7167
:1019F00052AA2945318631863186296531A6298644
:101A000031862986214573CE634D29453186298645
:101A100029662986318629862986296529862965A8
:101A20002145296652CBA534F7DFFFFFFFFFFFFFFB
:101A3000FFFFFFFFFFFFFFFFFFFFFFFFFFFFFFFFB6
:101A4000FFFFFFFFFFFFFFFFFFFFFFFFFFFFFFFFA6
:101A5000FFFFFFFFFFFFFFFFFFFFFFFFFFFFFFFF96
:101A6000FFFFFFFFFFFFFFFFFFFFFFFFFFFFFFFF86
:101A7000FFFFFFFFFFFFFFFFFFFFFFFFFFFFFFFF76
:101A8000FFFFFFFFFFFFFFFFFFFFFFFFFFFFFFFF66
:101A9000FFFFFFFFFFFFFFFFFFFFFFFFFFFFFFFF56
:101AA000FFFFFFFFFFFFFFFFFFFFFFFFFFFFFFFF46
:101AB000FFFFFFFFFFFFFFFFFFFFFFFFFFFFFFFF36
:101AC000FFFFFFFFFFFFFFFFFFFFFFFFFFFFFFFF26
:101AD000FFFFFFFFFFFFFFFFFFFFFFFFFFFFFFFF16
:101AE000FFFFFFFFFFFFFFFFFFFFFFFFFFFFFFFF06
:101AF000FFFFFFFFFFFFFFFFFFFFFFFFFFFFFFFFF6
:101B0000FFFFFFFFFFFFFFFFFFFFFFFFFFFFFFFFE5
:101B1000FFFFFFFFFFFFFFFFFFFFFFFFFFFFFFFFD5
:101B2000FFFFFFFFFFFFFFFFFFFFFFFFFFFFFFFFC5
:101B3000FFFFFFFFFFFFFFFFFFFFFFFFFFFFFFFFB5
:101B4000FFFFFFFFFFFFFFFFFFFFFFFFFFFFFFFFA5
:101B5000FFFFFFFFFFFFFFFFFFFFFFFFFFFFFFFF95
:101B6000F7BE9D1442292145212421242985294598
:101B700029852965294529862965296531862965AB
:101B8000296529652945528A845021242985298679
:101B9000296531862965296529652965318639C711
:101BA00039C7318629652986296531A631A622489B
:101BB0000B4C5E38022800A200C2345055D70B0CE3
:101BC000224829C6298631863186296531A639C73A
:101BD00039C731862965318631862965318629657F
:101BE00031863186212494924A493186296631868C
:101BF000318631863186318629863186318629665D
:101C0000296631A6214521452986632CBE18FFFF90
:101C1000FFFFFFFFFFFFFFFFFFFFFFFFFFFFFFFFD4
:101C2000FFFFFFFFFFFFFFFFFFFFFFFFFFFFFFFFC4
:101C3000FFFFFFFFFFFFFFFFFFFFFFFFFFFFFFFFB4
:101C4000FFFFFFFFFFFFFFFFFFFFFFFFFFFFFFFFA4
:101C5000FFFFFFFFFFFFFFFFFFFFFFFFFFFFFFFF94
:101C6000FFFFFFFFFFFFFFFFFFFFFFFFFFFFFFFF84
:101C7000FFFFFFFFFFFFFFFFFFFFFFFFFFFFFFFF74
:101C8000FFFFFFFFFFFFFFFFFFFFFFFFFFFFFFFF64
:101C9000FFFFFFFFFFFFFFFFFFFFFFFFFFFFFFFF54
:101CA000FFFFFFFFFFFFFFFFFFFFFFFFFFFFFFFF44
:101CB000FFFFFFFFFFFFFFFFFFFFFFFFFFFFFFFF34
:101CC000FFFFFFFFFFFFFFFFFFFFFFFFFFFFFFFF24
:101CD000FFFFFFFFFFFFFFFFFFFFFFFFFFFFFFFF14
:101CE000FFFFFFFFFFFFFFFFFFFFFFFFFFFFFFFF04
:101CF000FFFFFFFFFFFFFFFFFFFFFFFFFFFFFFFFF4
:101D0000FFFFFFFFFFFFFFFFFFFFFFFFFFFFFFFFE3
:101D1000FFFFFFFFFFFFFFFFFFFFFFFFFFFFFFFFD3
:101D2000FFFFFFDFFFFFFFFFFFFFFFDFFFFFFFFF03
:101D3000FFFFFFFFFFFFFFFFFFFFFFFFCE7A632CD8
:101D400021451904296621452965318621246B4DD9
:101D5000630C21452965294529652965296529657A
:101D600029653186294539E79CD331A6294529863D
:101D7000296529653186294529653186318631866F
:101D800029652965318631863186318629862A4939
:101D90000B2C5617020800A200C22C5055D7130C6A
:101DA000224929A6318631863186318631863186AF
:101DB0003186296531863186318631863186318694
:101DC0003186296539C79CF339C729653186318643
:101DD0002966318631862966296629662145738EF2
:101DE000630C29453186318631862145214539E804
:101DF0008431EF5DFFFFFFDFFFFFFFFFFFFFFFFF0E
:101E0000FFFFFFFFFFFFFFFFFFFFFFFFFFFFFFFFE2
:101E1000FFFFFFFFFFFFFFFFFFFFFFFFFFFFFFFFD2
:101E2000FFFFFFFFFFFFFFFFFFFFFFFFFFFFFFFFC2
:101E3000FFFFFFFFFFFFFFFFFFFFFFFFFFFFFFFFB2
:101E4000FFFFFFFFFFFFFFFFFFFFFFFFFFFFFFFFA2
:101E5000FFFFFFFFFFFFFFFFFFFFFFFFFFFFFFFF92
:101E6000FFFFFFFFFFFFFFFFFFFFFFFFFFFFFFFF82
:101E7000FFFFFFFFFFFFFFFFFFFFFFFFFFFFFFFF72
:101E8000FFFFFFFFFFFFFFFFFFFFFFFFFFFFFFFF62
:101E9000FFFFFFFFFFFFFFFFFFFFFFFFFFFFFFFF52
:101EA000FFFFFFFFFFFFFFFFFFFFFFFFFFFFFFFF42
:101EB000FFFFFFFFFFFFFFFFFFFFFFFFFFFFFFFF32
:101EC000FFFFFFFFFFFFFFFFFFFFFFFFFFFFFFFF22
:101ED000FFFFFFFFFFFFFFFFFFFFFFFFFFFFFFFF12
:101EE000FFFFFFFFFFFFFFFFFFFFFFFFFFFFFFFF02
:101EF000FFFFFFFFFFFFFFFFFFFFFFFFFFFFFFFFF2
:101F0000FFFFFFFFFFFFFFFFFFFFFFFFFFFFFFFFE1
:101F1000FFFFFFFFFFDFFFFFA51439E71903294586
:101F200029652965296529652965294529454A695C
:101F300094B22104316531863166294529653165C0
:101F40002945316629652965318629453186296506
:101F50002965296531862965296531863186296596
:101F600029653186318629652965296629862A29C8
:101F700002AA56181CB2040F03EF35D64D960AAAD2
:101F8000222929A73186316631863186318631860C
:101F900029653186318631863186318629653186DB
:101FA00031863186296531A63165296531863186CC
:101FB000316631863186318631A6318629659CF3BA
:101FC00042082965318629652966296629662966B8
:101FD000212421245AEBC659FFFFFFFFFFFFFFFF1B
:101FE000FFFFFFFFFFFFFFFFFFFFFFFFFFFFFFDF21
:101FF000FFFFFFFFFFFFFFFFFFFFFFFFFFFFFFFFF1
:10200000FFFFFFFFFFFFFFFFFFFFFFFFFFFFFFFFE0
:10201000FFFFFFFFFFFFFFFFFFFFFFFFFFFFFFFFD0
:10202000FFFFFFFFFFFFFFFFFFFFFFFFFFFFFFFFC0
:10203000FFFFFFFFFFFFFFFFFFFFFFFFFFFFFFFFB0
:10204000FFFFFFFFFFFFFFFFFFFFFFFFFFFFFFFFA0
:10205000FFFFFFFFFFFFFFFFFFFFFFFFFFFFFFFF90
:10206000FFFFFFFFFFFFFFFFFFFFFFFFFFFFFFFF80
:10207000FFFFFFFFFFFFFFFFFFFFFFFFFFFFFFFF70
:10208000FFFFFFFFFFFFFFFFFFFFFFFFFFFFFFFF60
:10209000FFFFFFFFFFFFFFFFFFFFFFFFFFFFFFFF50
:1020A000FFFFFFFFFFFFFFFFFFFFFFFFFFFFFFFF40
:1020B000FFFFFFFFFFFFFFFFFFFFFFFFFFFFFFFF30
:1020C000FFFFFFFFFFFFFFFFFFFFFFFFFFFFFFFF20
:1020D000FFFFFFFFFFFFFFFFFFFFFFFFFFFFFFFF10
:1020E000FFFFFFFFFFFFFFFFFFFFFFFFFFFFFFFF00
:1020F000FFFFEF7D841029652104294529652965A5
:10210000296529652945298629652945296529657E
:102110009CD339C72945294531652965296531662B
:102120002945296531662965296531A6296529452D
:102130003186296531863186296529653186318662
:1021400031863186318631862965318631A72A0864
:10215000128A4D55669A56BA56FB5E9A4D141A6A03
:102160002A0829A631863166318631863186318644
:10217000318631863186318631A631863186318687
:102180002965296531A62965316531863186318613
:1021900031863186318631862965296542289492B7
:1021A0003186296529652965298631A6296629652B
:1021B00031A63186214421444248A554FFFFFFFF48
:1021C000FFFFFFFFFFFFFFFFFFFFFFFFFFFFFFFF1F
:1021D000FFFFFFDFFFFFFFFFFFFFFFFFFFFFFFFF2F
:1021E000FFFFFFFFFFFFFFFFFFFFFFFFFFFFFFFFFF
:1021F000FFFFFFFFFFFFFFFFFFFFFFFFFFFFFFFFEF
:10220000FFFFFFFFFFFFFFFFFFFFFFFFFFFFFFFFDE
:10221000FFFFFFFFFFFFFFFFFFFFFFFFFFFFFFFFCE
:10222000FFFFFFFFFFFFFFFFFFFFFFFFFFFFFFFFBE
:10223000FFFFFFFFFFFFFFFFFFFFFFFFFFFFFFFFAE
:10224000FFFFFFFFFFFFFFFFFFFFFFFFFFFFFFFF9E
:10225000FFFFFFFFFFFFFFFFFFFFFFFFFFFFFFFF8E
:10226000FFFFFFFFFFFFFFFFFFFFFFFFFFFFFFFF7E
:10227000FFFFFFFFFFFFFFFFFFFFFFFFFFFFFFFF6E
:10228000FFFFFFFFFFFFFFFFFFFFFFFFFFFFFFFF5E
:10229000FFFFFFFFFFFFFFFFFFFFFFFFFFFFFFFF4E
:1022A000FFFFFFFFFFFFFFFFFFFFFFFFFFFFFFFF3E
:1022B000FFFFFFFFFFFFFFFFFFFFFFFFFFFFFFFF2E
:1022C000FFFFFFDFFFFFFFFFFFFFFFFFFFFFE73C19
:1022D0006B8E214521242145212429452965296525
:1022E00031862965318629453186296521242124B5
:1022F0007BEF6B4D210431A6296531652965296580
:10230000316529453166318631862965296531A6D1
:1023100031862965296529652965296529653186FB
:1023200031863186318631862965318629A629C7CD
:102330002208226922EB1B0C1B0C1ACB226A21E813
:1023400029E829A62986318531863186318631866C
:102350003186318631863186318629652965318617
:1023600039A62965296531863186318631863166FF
:1023700031863186318631863186294573AE73AE1A
:102380002124318631863186318629653186318630
:1023900029653186296529652965212531C794D3A9
:1023A000FFFFFFFFF7DFFFFFFFFFFFFFFFFFFFFF65
:1023B000FFFFFFFFFFFFFFFFFFFFFFFFFFFFFFFF2D
:1023C000FFFFFFFFFFFFFFFFFFFFFFFFFFFFFFFF1D
:1023D000FFFFFFFFFFFFFFFFFFFFFFFFFFFFFFFF0D
:1023E000FFFFFFFFFFFFFFFFFFFFFFFFFFFFFFFFFD
:1023F000FFFFFFFFFFFFFFFFFFFFFFFFFFFFFFFFED
:10240000FFFFFFFFFFFFFFFFFFFFFFFFFFFFFFFFDC
:10241000FFFFFFFFFFFFFFFFFFFFFFFFFFFFFFFFCC
:10242000FFFFFFFFFFFFFFFFFFFFFFFFFFFFFFFFBC
:10243000FFFFFFFFFFFFFFFFFFFFFFFFFFFFFFFFAC
:10244000FFFFFFFFFFFFFFFFFFFFFFFFFFFFFFFF9C
:10245000FFFFFFFFFFFFFFFFFFFFFFFFFFFFFFFF8C
:10246000FFFFFFFFFFFFFFFFFFFFFFFFFFFFFFFF7C
:10247000FFFFFFFFFFFFFFFFFFFFFFFFFFFFFFFF6C
:10248000FFFFFFFFFFFFFFFFFFFFFFFFFFFFFFFF5C
:10249000FFFFFFFFFFFFFFFFFFFFFFFFFFFFFFFF4C
:1024A000FFFFFFDFFFFFFFFFFFFFE73C6B8E19041D
:1024B0002124214529652945632C2986296529453B
:1024C00029652945294529652945296529652965FC
:1024D00031A631862945296529652965294529457A
:1024E0003186296529653165296529653186296522
:1024F000296531A63186296529653186318631867F
:10250000318631863186296531862985298631C70C
:1025100031E832082A282A692A492A2832083A0842
:1025200031C731A631A6318629653186318631869B
:102530003186318631863186318631A631A63186A3
:1025400031863186318631863186318629653186FC
:10255000318631863186318631862965318639C7A3
:102560003186318629653186296531A631863186E5
:102570002965318639E7632C318631A629652145E5
:1025800031A694B3FFFFFFFFFFFFFFFFFFFFFFFF39
:10259000FFFFFFFFFFFFFFFFFFFFFFFFFFFFFFFF4B
:1025A000FFFFFFFFFFFFFFFFFFFFFFFFFFFFFFFF3B
:1025B000FFFFFFFFFFFFFFFFFFFFFFFFFFFFFFFF2B
:1025C000FFFFFFFFFFFFFFFFFFFFFFFFFFFFFFFF1B
:1025D000FFFFFFFFFFFFFFFFFFFFFFFFFFFFFFFF0B
:1025E000FFFFFFFFFFFFFFFFFFFFFFFFFFFFFFFFFB
:1025F000FFFFFFFFFFFFFFFFFFFFFFFFFFFFFFFFEB
:10260000FFFFFFFFFFFFFFFFFFFFFFFFFFFFFFFFDA
:10261000FFFFFFFFFFFFFFFFFFFFFFFFFFFFFFFFCA
:10262000FFFFFFFFFFFFFFFFFFFFFFFFFFFFFFFFBA
:10263000FFFFFFFFFFFFFFFFFFFFFFFFFFFFFFFFAA
:10264000FFFFFFFFFFFFFFFFFFFFFFFFFFFFFFFF9A
:10265000FFFFFFFFFFFFFFFFFFFFFFFFFFFFFFFF8A
:10266000FFFFFFFFFFFFFFFFFFFFFFFFFFFFFFFF7A
:10267000FFFFFFFFFFFFFFFFFFFFFFFFFFFFFFFF6A
:10268000FFFFFFFFFFDFE75D6B8E1924190429654B
:1026900029662965214521458C7152CB2124296564
:1026A00029243165296529652965296529652965F3
:1026B00029452965318629652965296529652945C1
:1026C000318629652965296529653186318629453F
:1026D0002965296529453186318631863186296506
:1026E0002965296529452124210418C318C310A28E
:1026F000088210C308C308C2110310E308A210C364
:1027000010A218C318E318E3212429452965296577
:102710002965318631A631A631A63165316531860C
:10272000316531863186296531863186318631863B
:1027300031863186318631863186318631A629450A
:10274000318631863186318631653186296531861B
:1027500031862124634C84302145298631A629867F
:102760002986212431A69CF3FFFFFFFFFFFFFFFF17
:10277000FFFFFFFFFFFFFFFFFFFFFFFFFFFFFFFF69
:10278000FFFFFFFFFFFFFFFFFFFFFFFFFFFFFFFF59
:10279000FFFFFFFFFFFFFFFFFFFFFFFFFFFFFFFF49
:1027A000FFFFFFFFFFFFFFFFFFFFFFFFFFFFFFFF39
:1027B000FFFFFFFFFFFFFFFFFFFFFFFFFFFFFFFF29
:1027C000FFFFFFFFFFFFFFFFFFFFFFFFFFFFFFFF19
:1027D000FFFFFFFFFFFFFFFFFFFFFFFFFFFFFFFF09
:1027E000FFFFFFFFFFFFFFFFFFFFFFFFFFFFFFFFF9
:1027F000FFFFFFFFFFFFFFFFFFFFFFFFFFFFFFFFE9
:10280000FFFFFFFFFFFFFFFFFFFFFFFFFFFFFFFFD8
:10281000FFFFFFFFFFFFFFFFFFFFFFFFFFFFFFFFC8
:10282000FFFFFFFFFFFFFFFFFFFFFFFFFFFFFFFFB8
:10283000FFFFFFFFFFFFFFFFFFFFFFFFFFFFFFFFA8
:10284000FFFFFFFFFFFFFFFFFFFFFFFFFFFFFFFF98
:10285000FFFFFFFFFFFFFFFFFFFFFFFFFFFFFFFF88
:10286000FFFFF7DE7C102145214521852986296659
:102870002145216529652145424894B22104294515
:1028800031862945294531652965296529652965E7
:102890003186296529652965296529653186296576
:1028A0002965296531862965318629653186318614
:1028B00031862965212418C310A208610020002058
:1028C0000000000000000000000000000000000008
:1028D00000200000000000000000002000000000B8
:1028E00000000000000000000000000000000020C8
:1028F00000200841108218C318E32965318631A6EB
:10290000318631863186318631863186318631860F
:102910003186296531A63186318631862965318631
:102920003186296531863186318631863186318618
:10293000318631869CD342282965298629862966D5
:10294000298631A62185216531E8AD96F7FFFFFF85
:10295000FFFFFFFFFFFFFFFFFFFFFFFFFFFFFFFF87
:10296000FFFFFFFFFFFFFFFFFFFFFFFFFFFFFFFF77
:10297000FFFFFFFFFFFFFFFFFFFFFFFFFFFFFFFF67
:10298000FFFFFFFFFFFFFFFFFFFFFFFFFFFFFFFF57
:10299000FFFFFFFFFFFFFFFFFFFFFFFFFFFFFFFF47
:1029A000FFFFFFFFFFFFFFFFFFFFFFFFFFFFFFFF37
:1029B000FFFFFFFFFFFFFFFFFFFFFFFFFFFFFFFF27
:1029C000FFFFFFFFFFFFFFFFFFFFFFFFFFFFFFFF17
:1029D000FFFFFFFFFFFFFFFFFFFFFFFFFFFFFFFF07
:1029E000FFFFFFFFFFFFFFFFFFFFFFFFFFFFFFFFF7
:1029F000FFFFFFFFFFFFFFFFFFFFFFFFFFFFFFFFE7
:102A0000FFFFFFFFFFFFFFFFFFFFFFFFFFFFFFFFD6
:102A1000FFFFFFFFFFFFFFFFFFFFFFFFFFFFFFFFC6
:102A2000FFFFFFFFFFFFFFFFFFFFFFDFFFDFFFFFF6
:102A3000FFFFFFFFFFFFFFFFFFFFFFFFFFFFF7FFAE
:102A40008CF229E619A621E721C629A62165296667
:102A50002145216529652165212494915A8A2925DA
:102A600029662965296529652965296529652965F5
:102A700029652965296529653186296529452965DD
:102A80002965296531A629652965190410A20861FF
:102A90000020000000000000000000000000000016
:102AA00000200000000000000000000000200000E6
:102AB0000000000000000000000000000000000016
:102AC00000000000000000000000000000000020E6
:102AD00000000000000000000000000000000841AD
:102AE000108218E32124318631A631A63186318641
:102AF0003186318631A62965318631863186318627
:102B0000318631863186316631853165318631864F
:102B10002945630C8C5029652986298629663187C9
:102B20003186298629C729E72A0819A642EABEB9AB
:102B3000F7FFFFFFFFFFFFFFFFFFFFFFFFFFFFFFAD
:102B4000FFFFFFFFFFFFFFFFFFFFFFFFFFFFFFFF95
:102B5000FFFFFFFFFFFFFFFFFFFFFFFFFFFFFFFF85
:102B6000FFFFFFFFFFFFFFFFFFFFFFFFFFFFFFFF75
:102B7000FFFFFFFFFFFFFFFFFFFFFFFFFFFFFFFF65
:102B8000FFFFFFFFFFFFFFFFFFFFFFFFFFFFFFFF55
:102B9000FFFFFFFFFFFFFFFFFFFFFFFFFFFFFFFF45
:102BA000FFFFFFFFFFFFFFFFFFFFFFFFFFFFFFFF35
:102BB000FFFFFFFFFFFFFFFFFFFFFFFFFFFFFFFF25
:102BC000FFFFFFFFFFFFFFFFFFFFFFFFFFFFFFFF15
:102BD000FFFFFFFFFFFFFFFFFFFFFFFFFFFFFFFF05
:102BE000FFFFFFFFFFFFFFFFFFFFFFFFFFFFFFFFF5
:102BF000FFFFFFFFFFFFFFFFFFFFFFFFFFFFFFFFE5
:102C0000FFFFFFFFFFFFFFFFFFDFFFFFFFFFFFBF34
:102C1000FFFFFFFFFFDEFFFFFFFFFFFFB639328A36
:102C2000120712680A8A1AEB1A49220829A62945AE
:102C3000296629862144296529244A2841C7314625
:102C40002945296529652965294529452965296574
:102C500029653186318629652945296529653186A9
:102C6000294518C310820841000000000000000040
:102C70000000002000000000000000000000000034
:102C80000000000000200000000000000000000024
:102C90000000000000000000000000200000000014
:102CA0000000000000000000000000000000000024
:102CB00000000020000000000000000000000000F4
:102CC0000000000000000000002010A2212429655F
:102CD0003186318631A6318631863186318631861C
:102CE0003186318631A631A6318629653186318615
:102CF000296642084A482924296531A7318729666F
:102D0000298629C7222822891B0C12CB1268122778
:102D10005BCFE77EFFFFFFFFFFFFFFFFFFFFFFFF30
:102D2000FFFFFFFFFFFFFFFFFFFFFFFFFFFFFFFFB3
:102D3000FFFFFFFFFFFFFFFFFFFFFFFFFFFFFFFFA3
:102D4000FFFFFFFFFFFFFFFFFFFFFFFFFFFFFFFF93
:102D5000FFFFFFFFFFFFFFFFFFFFFFFFFFFFFFFF83
:102D6000FFFFFFFFFFFFFFFFFFFFFFFFFFFFFFFF73
:102D7000FFFFFFFFFFFFFFFFFFFFFFFFFFFFFFFF63
:102D8000FFFFFFFFFFFFFFFFFFFFFFFFFFFFFFFF53
:102D9000FFFFFFFFFFFFFFFFFFFFFFFFFFFFFFFF43
:102DA000FFFFFFFFFFFFFFFFFFFFFFFFFFFFFFFF33
:102DB000FFFFFFFFFFFFFFFFFFFFFFFFFFFFFFFF23
:102DC000FFFFFFFFFFFFFFFFFFFFFFFFFFFFFFFF13
:102DD000FFFFFFFFFFFFFFFFFFFFFFFFFFFFFFFF03
:102DE000FFFFFFFFFFFFFFFFFFFFFFFFFFDFFFFF13
:102DF000FFFFFFFFFFFFFFFFEF7E5B4D11A61228D5
:102E000002CB03AF2DF856FC136E1A6A29E731A6E0
:102E1000292529452986294529452904312529259A
:102E200029662985298529652965318629652945E8
:102E300029452965296529652965294510A20020AC
:102E40000000000000000000000000200000000062
:102E50000000000000000000000000000000000072
:102E60000000002000000000000000000000000042
:102E70000000000000000000000000000000000052
:102E80000000000000000000000000000000000042
:102E90000000000000000000000000200000000012
:102EA0000000000000000000000000000000000022
:102EB000086118C329453186318631A631A631868D
:102EC00031863186318629653186298531A6296684
:102ED00029663186294439A62965318631463186ED
:102EE00029A62A481A8A13CF571C25D703CE0AEBE6
:102EF0001A282A0784B2F7FFFFFFFFFFFFFFFFFF3B
:102F0000FFDFFFFFFFDFFFFFFFFFFFFFFFFFFFFF11
:102F1000FFFFFFFFFFFFFFFFFFFFFFFFFFFFFFFFC1
:102F2000FFFFFFFFFFFFFFFFFFFFFFFFFFFFFFFFB1
:102F3000FFFFFFFFFFFFFFFFFFFFFFFFFFFFFFFFA1
:102F4000FFFFFFFFFFFFFFFFFFFFFFFFFFFFFFFF91
:102F5000FFFFFFFFFFFFFFFFFFFFFFFFFFFFFFFF81
:102F6000FFFFFFFFFFFFFFFFFFFFFFFFFFFFFFFF71
:102F7000FFFFFFFFFFFFFFFFFFFFFFFFFFFFFFFF61
:102F8000FFFFFFFFFFFFFFFFFFFFFFFFFFFFFFFF51
:102F9000FFFFFFFFFFFFFFFFFFFFFFFFFFFFFFFF41
:102FA000FFFFFFFFFFFFFFFFFFFFFFFFFFFFFFFF31
:102FB000FFFFFFFFFFFFFFFFFFFFFFFFFFFFFFFF21
:102FC000FFFFFFFFFFFFFFFFFFFFFFFFFFFFFFFE12
:102FD000FFFFFFFFFFFF94D4216519651A070AEB75
:102FE0002515475E275E377E3DF70AEB222831C75D
:102FF00029662945296529652945294531662945D7
:10300000298629652965296529652945294529656F
:103010003186296518E310820000000000000000DE
:1030200000000000000000000000000000000000A0
:103030000000000000000000000000000000000090
:103040000000000000000000000000000000000080
:103050000000000000000000000000000000000070
:103060000000000000000000000000000000000060
:103070000000000000000000000000000000000050
:103080000000000000000000000000000000000040
:10309000000000000000002010A22104318631A6AB
:1030A00031862965318631A6298629863186318681
:1030B000318631863185316531852965316631A7A3
:1030C0002A071A68136D3E382F5D279E3F1C251373
:1030D000130B1A2819854269CE9AFFFFF7FFFFFFED
:1030E000FFFFFFFFFFFFFFFFFFFFFFFFFFFFFFFFF0
:1030F000FFFFFFFFFFFFFFFFFFFFFFFFFFFFFFFFE0
:10310000FFFFFFFFFFFFFFFFFFFFFFFFFFFFFFFFCF
:10311000FFFFFFFFFFFFFFFFFFFFFFFFFFFFFFFFBF
:10312000FFFFFFFFFFFFFFFFFFFFFFFFFFFFFFFFAF
:10313000FFFFFFFFFFFFFFFFFFFFFFFFFFFFFFFF9F
:10314000FFFFFFFFFFFFFFFFFFFFFFFFFFFFFFFF8F
:10315000FFFFFFFFFFFFFFFFFFFFFFFFFFFFFFFF7F
:10316000FFFFFFFFFFFFFFFFFFFFFFFFFFFFFFFF6F
:10317000FFFFFFFFFFFFFFFFFFFFFFFFFFFFFFFF5F
:10318000FFFFFFFFFFFFFFFFFFFFFFFFFFFFFFFF4F
:10319000FFFFFFFFFFFFFFFFFFFFFFFFFFFFFFFF3F
:1031A000FFFFFFFFFFFFFFFFFFFFFFFFFFDEFFFF50
:1031B000FFFFDF1B424A1905214521C712484DD7A1
:1031C000375D1FBF1FDE279D479C14701ACA29E870
:1031D000216529862185216529A629652945294555
:1031E000298529653185296529653186318621241E
:1031F0000861000000000000000000000000002046
:1032000000000000000000000000000000000000BE
:10321000000000000020000000000000000000008E
:1032200008200000000000000821084100200000E4
:10323000296500200000212421040000002031869F
:1032400000000020086100200000000000000000D5
:10325000000000000000000000000000000000006E
:10326000000000000000000000000000000000005E
:10327000000000000000000000000000002010A27C
:10328000296531A631A6296529862986298631A690
:103290002965294531A62985298529A629C621C65A
:1032A0002A6912EA24D24F7C279D1FDE1FBE3F7D74
:1032B0004D7512482228196521457BEFF7FFFFFF66
:1032C000FFFFFFFFFFFFFFFEFFFFFFFFFFFFFFFF0F
:1032D000FFFFFFFFFFFFFFFFFFFFFFFFFFFFFFFFFE
:1032E000FFFFFFFFFFFFFFFFFFFFFFFFFFFFFFFFEE
:1032F000FFFFFFFFFFFFFFFFFFFFFFFFFFFFFFFFDE
:10330000FFFFFFFFFFFFFFFFFFFFFFFFFFFFFFFFCD
:10331000FFFFFFFFFFFFFFFFFFFFFFFFFFFFFFFFBD
:10332000FFFFFFFFFFFFFFFFFFFFFFFFFFFFFFFFAD
:10333000FFFFFFFFFFFFFFFFFFFFFFFFFFFFFFFF9D
:10334000FFFFFFFFFFFFFFFFFFFFFFFFFFFFFFFF8D
:10335000FFFFFFFFFFFFFFFFFFFFFFFFFFFFFFFF7D
:10336000FFFFFFFFFFFFFFFFFFFFFFFFFFFFFFFF6D
:10337000FFFFFFFFFFFFFFFFFFFFFFFFFFFFFFFF5D
:10338000FFFFFFFFFFFFFFFFFFFEFFFFFFFFFFFF4E
:1033900094B1210321252125296521C612491C51FB
:1033A00037BE179E3FBD1E16157456B90ACB226A4A
:1033B00029E82986216521652165216531862965F0
:1033C0002165298531653165292510A2000000009D
:1033D00000000000000000000000000000000000ED
:1033E00000000000000000000000000000000000DD
:1033F0000000000000000000000018C3318600003B
:1034000000009472084100005ACB6B6D0000084127
:10341000A514084100006B4D52AA002010A29CF395
:10342000000000007BEF4228000010A28C3000005A
:103430000000318618A2000000000000000000001B
:10344000002000000000002000000000000000003C
:10345000000000000000000000000000000000006C
:103460000000002018E331A631A631863186296597
:10347000318531A631A6298629A6216529C72A08C2
:103480001AAA1B6D5E3803CE36FA2F9D17BE377D04
:103490001C301A8A21E721A6294529453207C6583A
:1034A000FFFFFFFFFFFFFFFFFFFFFFFFFFFFFFFF2C
:1034B000FFFFFFFFFFFFFFFFFFFFFFFFFFFFFFFF1C
:1034C000FFFFFFFFFFFFFFFFFFFFFFFFFFFFFFFF0C
:1034D000FFFFFFFFFFFFFFFFFFFFFFFFFFFFFFFFFC
:1034E000FFFFFFFFFFFFFFFFFFFFFFFFFFFFFFFFEC
:1034F000FFFFFFFFFFFFFFFFFFFFFFFFFFFFFFFFDC
:10350000FFFFFFFFFFFFFFFFFFFFFFFFFFFFFFFFCB
:10351000FFFFFFFFFFFFFFFFFFFFFFFFFFFFFFFFBB
:10352000FFFFFFFFFFFFFFFFFFFFFFFFFFFFFFFFAB
:10353000FFFFFFFFFFFFFFFFFFFFFFFFFFFFFFFF9B
:10354000FFFFFFFFFFFFFFFFFFFFFFFFFFFFFFFF8B
:10355000FFFFFFFFFFFFFFFFFFFFFFFFFFFFFFFF7B
:10356000FFFFFFFFFFFFFFFFFFFFFFFFE73D4A8A6F
:103570001924296529252946294529A622280AEC46
:103580002E793F1B032B00A200E376BB3CF40AAB71
:1035900021E8296629652985216521452944296471
:1035A0002986298518E3084100000000000000007A
:1035B000000000000000000000000000000000000B
:1035C0000000000000000000000000000020212496
:1035D0000000000084302124000039C78C710020D5
:1035E0000000A51418E3000042287BCF0020002033
:1035F000A55408610000738E5ACB000018E3A5346F
:103600000000002084513186000029459CB2000052
:1036100000009CD321240000318673AE000000001E
:103620002104002000000000000000000000002035
:10363000000000000000000000000000000000008A
:10364000000000000000000010A2212431A631A6D5
:1036500031853165314631862966298631A72A2987
:1036600012EC555622EC008201240C51477E2E1993
:10367000130C222929E729A6318729662985216487
:103680007C30FFFFFFDFFFFFFFFFFFFFFFFFFFFFBC
:10369000FFFFFFFFFFFFFFFFFFFFFFFFFFFFFFFF3A
:1036A000FFFFFFFFFFFFFFFFFFFFFFFFFFFFFFFF2A
:1036B000FFFFFFFFFFFFFFFFFFFFFFFFFFFFFFFF1A
:1036C000FFFFFFFFFFFFFFFFFFFFFFFFFFFFFFFF0A
:1036D000FFFFFFFFFFFFFFFFFFFFFFFFFFFFFFFFFA
:1036E000FFFFFFFFFFFFFFFFFFFFFFFFFFFFFFFFEA
:1036F000FFFFFFFFFFFFFFFFFFFFFFFFFFFFFFFFDA
:10370000FFFFFFFFFFFFFFFFFFFFFFFFFFFFFFFFC9
:10371000FFFFFFFFFFFFFFFFFFFFFFFFFFFFFFFFB9
:10372000FFFFFFFFFFFFFFFFFFFFFFFFFFFFFFFFA9
:10373000FFFFFFFFFFFFFFFFFFFFFFFFFFFFFFFF99
:10374000FFFFFFFFFFFFFFFFFFFFAD7621461905DB
:1037500021652145294529252945298521E8128A00
:103760000C514E7900A1008100A202EC66DC0B6EC8
:10377000222931A7296521642965296531653164CC
:1037800010C3000000200000000000000000000046
:103790000000000000000000000000000000000029
:1037A00000200000002029652124000010C3A55539
:1037B000000000007BEF4248000010C3A534000069
:1037C0000000949239C6000039E78C920000000096
:1037D000AD550881000073AE5AEB00002104A534FA
:1037E000000000009D14294500004A488430000074
:1037F0000000AD75084100005AEB6B4D0000000061
:10380000A554086100002985212400200000000043
:1038100000000000000000000000000000000000A8
:10382000000000000000000000000000084121042A
:1038300031A531A6316629663186298631C82A4AE2
:103840001BD04D76006200410082030B5EFC0C1021
:103850001AAB2A0829A62966316629662985218599
:1038600021454249E73DFFFFFFFFFFFFFFFFFFFF4D
:10387000FFFFFFFFFFFFFFFFFFFFFFFFFFFFFFFF58
:10388000FFFFFFFFFFFFFFFFFFFFFFFFFFFFFFFF48
:10389000FFFFFFFFFFFFFFFFFFFFFFFFFFFFFFFF38
:1038A000FFFFFFFFFFFFFFFFFFFFFFFFFFFFFFFF28
:1038B000FFFFFFFFFFFFFFFFFFFFFFFFFFFFFFFF18
:1038C000FFFFFFFFFFFFFFFFFFFFFFFFFFFFFFFF08
:1038D000FFFFFFFFFFFFFFFFFFFFFFFFFFFFFFFFF8
:1038E000FFFFFFFFFFFFFFFFFFFFFFFFFFFFFFFFE8
:1038F000FFFFFFFFFFFFFFFFFFFFFFFFFFFFFFFFD8
:10390000FFFFFFFFFFFFFFFFFFFFFFFFFFFFFFFFC7
:10391000FFFFFFFFFFDFFFFFFFFFFFFFFFFFFFFFD7
:10392000FFFFFFFFFFFFFFFF6B6E18E42125192546
:1039300021652145294529452965216421C612486B
:10394000030C4DB6342F00A200C201C6571C35959A
:10395000124921C629A62164296529651081000024
:103960000000000000000000000000000000000057
:103970000000000000000000000000000000000047
:103980005AEB0020002052AA73AE00000000AD7573
:10399000108200005ACA73AE00000840AD9508407E
:1039A000000084505289000031A6A51300000000D9
:1039B000B5B610A200007BEF630B00002945AD54A3
:1039C00000000000B59518E300006B6D738E0000D9
:1039D0001082B596000000008C714208000018E3C8
:1039E000A554000000008410420800001082528A92
:1039F00000000000000000000000000000000000C7
:103A000000000000000000000000000000000000B6
:103A1000004019033186318731A729A632081A4997
:103A200056180C0F0082008201445E794555130B35
:103A3000222829A631863186316629653185298576
:103A4000212421452966AD75FFFFFFFFFFFFFFFF22
:103A5000FFFFFFFFFFFFFFFFFFFFFFFFFFFFFFFF76
:103A6000FFFFFFFFFFFFFFFFFFFFFFFFFFFFFFFF66
:103A7000FFFFFFFFFFFFFFFFFFFFFFFFFFFFFFFF56
:103A8000FFFFFFFFFFFFFFFFFFFFFFFFFFFFFFFF46
:103A9000FFFFFFFFFFFFFFFFFFFFFFFFFFFFFFFF36
:103AA000FFFFFFFFFFFFFFFFFFFFFFFFFFFFFFFF26
:103AB000FFFFFFFFFFFFFFFFFFFFFFFFFFFFFFFF16
:103AC000FFFFFFFFFFFFFFFFFFFFFFFFFFFFFFFF06
:103AD000FFFFFFFFFFFFFFFFFFFFFFFFFFFFFFFFF6
:103AE000FFFFFFFFFFFFFFFFFFFFFFFFFFFFFFFFE6
:103AF000FFFFFFFFFFFFFFFFFFFFFFFFFFFFFFFFD6
:103B0000FFFFFFFFE71C39E8210521252945528ADF
:103B10002165214429662925294529442185220733
:103B200012AA134D6E7902281BEF76FB4E99142FC3
:103B3000126921A62985294510A200000020000055
:103B40000000002000000000000000000000000055
:103B5000000000000020000010A25ACB000000006E
:103B600094923186000018E3A534000000009CF315
:103B700031A6002031C6A53400200000BDF710C2D8
:103B8000000073CE6B6D00002945B5960000000063
:103B9000BDD7210300008C50630B002039C7AD5402
:103BA00000000000BDF7108200008C9252CA000095
:103BB00039C7AD5500000000B596210400204A69C0
:103BC000841000000000B596108200004208843086
:103BD0000000000052AA1082000000000000000057
:103BE00000000000000000000000000000000000D5
:103BF00000200000002018E4318629A629C7226988
:103C00002C506EDA5D7401C6147166DB1B4D22699F
:103C10002A0731A631653166316531653184296401
:103C2000630C29862945210473AEFFFFFFFFFFFFC8
:103C3000FFFFFFFFFFFFFFFFFFFFFFFFFFFFFFFF94
:103C4000FFFFFFFFFFFFFFFFFFFFFFFFFFFFFFFF84
:103C5000FFFFFFFFFFFFFFFFFFFFFFFFFFFFFFFF74
:103C6000FFFFFFFFFFFFFFFFFFFFFFFFFFFFFFFF64
:103C7000FFFFFFFFFFFFFFFFFFFFFFFFFFFFFFFF54
:103C8000FFFFFFFFFFFFFFFFFFFFFFFFFFFFFFFF44
:103C9000FFFFFFFFFFFFFFFFFFFFFFFFFFFFFFFF34
:103CA000FFFFFFFFFFFFFFFFFFFFFFFFFFFFFFFF24
:103CB000FFFFFFFFFFFFFFFFFFFFFFFFFFFFFFFF14
:103CC000FFFFFFFFFFFFFFFFFFFFFFFFFFFFFFFF04
:103CD000FFFFFFFFFFFFFFDFFFFFFFFFFFFFFFFF14
:103CE000FFFFAD95296519032945294521039CB29C
:103CF000632B1903294529253125312529651945C6
:103D000022091ACB2CB36F1C6EFB34F30B0B1289F8
:103D10001A27218518A30000000000000000000001
:103D20000000000000200000000000000000000073
:103D300000002945212400000861BDD700000000D3
:103D40005AEB7BCF00000000B5B610A200006B6DEF
:103D5000738E000018C3BDF700000000AD5539C7D1
:103D600000005B0B8C71000018E3CE3800000000EF
:103D7000C5F7292400008C71630C00004228AD3582
:103D800000000841CE3908410000AD55422800002E
:103D900052AA949200000862BDF80021000094929B
:103DA0005AAA00002104AD75000000008C71422861
:103DB00000000841B59600200000212421240000C5
:103DC00000000020000000000000000000000000D3
:103DD00000000000002000000000294539E72A28E3
:103DE0001AAA1B4C45146EBA5F1C249222AB2A08F7
:103DF00031C62985296531653165318521446B8D51
:103E00008C5129243186296521244248E75CFFFF33
:103E1000FFFFFFDFFFFFFFFFFFFFFFFFFFFFFFFFD2
:103E2000FFFFFFFFFFFFFFFFFFFFFFFFFFFFFFFFA2
:103E3000FFFFFFFFFFFFFFFFFFFFFFFFFFFFFFFF92
:103E4000FFFFFFFFFFFFFFFFFFFFFFFFFFFFFFFF82
:103E5000FFFFFFFFFFFFFFFFFFFFFFFFFFFFFFFF72
:103E6000FFFFFFFFFFFFFFFFFFFFFFFFFFFFFFFF62
:103E7000FFFFFFFFFFFFFFFFFFFFFFFFFFFFFFFF52
:103E8000FFFFFFFFFFFFFFFFFFFFFFFFFFFFFFFF42
:103E9000FFFFFFFFFFFFFFFFFFFFFFFFFFFFFFFF32
:103EA000FFFFFFFFFFFFFFFFFFFFFFFFFFFFFFFF22
:103EB000FFFFFFFFFFFFFFFFFFFFFFFFFFFFFFFF12
:103EC0007BEF19032124214421242945292439A5E4
:103ED00094B23A072945294529052925294429A6C7
:103EE00021861A090AEB34B30B4D0ACB1A6919C69D
:103EF000112400000000000000000000000000008D
:103F000000200000000000200000000018C3002076
:103F1000000042288C510000000094B242080000CA
:103F20002124B59600000000A513420700004207B7
:103F3000B59600000000CE9A10A200009CD35AEB68
:103F400000004A69B5B6000010A3D6BB00200000EF
:103F5000CE59318600009CF373AE000052ABAD76B3
:103F6000002018C3D6BA00210000CE7929860000AF
:103F70008410738E00202125BDF700000020C63874
:103F80002104000062EB8C5100000000BDF710829C
:103F90000000528A8410000000009CF3318600006B
:103FA000084110A2000000000020000000000000F6
:103FB000000000000000000008200000084121650A
:103FC000326822AA130C138E3D1402CB2A6A29C729
:103FD000298631A631852965296529654A699CF3B9
:103FE0003986316631653165298629652986C63865
:103FF000FFFFFFFFFFFFFFFFFFFFFFFFFFFFFFFFD1
:10400000FFFFFFFFFFFFFFFFFFFFFFFFFFFFFFFFC0
:10401000FFFFFFFFFFFFFFFFFFFFFFFFFFFFFFFFB0
:10402000FFFFFFFFFFFFFFFFFFFFFFFFFFFFFFFFA0
:10403000FFFFFFFFFFFFFFFFFFFFFFFFFFFFFFFF90
:10404000FFFFFFFFFFFFFFFFFFFFFFFFFFFFFFFF80
:10405000FFFFFFFFFFFFFFFFFFFFFFFFFFFFFFFF70
:10406000FFFFFFFFFFFFFFFFFFFFFFFFFFFFFFFF60
:10407000FFFFFFFFFFFFFFFFFFFFFFFFFFFFFFFF50
:10408000FFFFFFFFFFFFFFFFFFFFFFFFFFFFFFDF60
:10409000FFFFFFFFFFFFFFFFFFFFFFFFFFFF5ACB09
:1040A000190421042965214521252945292420E3D6
:1040B00062EB94922925292529452925216521444A
:1040C000296629A622281A081A2919E919860081C1
:1040D00000000020000000000020000000000000A0
:1040E00000000000000000000000000084104A49A9
:1040F00000000000B5B608610000528A94920000EA
:104100000000C63818E300006B4D8C5100000841D8
:10411000DEDB00200000BDF73A08000073CF94B248
:1041200000002986BE180020006194F400610000A0
:10413000636E19040020426931C7002129A65B0C77
:10414000000010E48CB300200020CEBB08A20000C9
:10415000B5F74A8A0000632C9CF300000882D6BBA6
:1041600000000000AD554A49000031A6AD550000E1
:104170000020AD5539C7000018C3B59600000000F7
:10418000630C6B6D000000000000002000000000C8
:1041900000000020000000200000000000000020BF
:1041A000008121E72229226A1A48224821C729A62C
:1041B00029852985298529853186298694D34A8AA6
:1041C00029263166316629662966298621452124FA
:1041D0009CF3FFFFFFFFFFFFFFFFFFFFFFFFFFFF5E
:1041E000FFFFFFFFFFFFFFFFFFFFFFFFFFFFFFFFDF
:1041F000FFFFFFFFFFFFFFFFFFFFFFFFFFFFFFFFCF
:10420000FFFFFFFFFFFFFFFFFFFFFFFFFFFFFFFFBE
:10421000FFFFFFFFFFFFFFFFFFFFFFFFFFFFFFFFAE
:10422000FFFFFFFFFFFFFFFFFFFFFFFFFFFFFFFF9E
:10423000FFFFFFFFFFFFFFFFFFFFFFFFFFFFFFFF8E
:10424000FFFFFFFFFFFFFFFFFFFFFFFFFFFFFFFF7E
:10425000FFFFFFFFFFFFFFFFFFFFFFFFFFFFFFFF6E
:10426000FFFFFFFFFFFFFFFFFFFFFFFFFFFFFFFF5E
:10427000FFFFFFFFFFDFFFFFFFFFEF7D3A0819049D
:104280002144214521452145214529452925292527
:10429000212439E7294529452945214521652965F5
:1042A00029452945318629A7298708A30000000050
:1042B00000000000000000000000000000210000DD
:1042C00000000000000094B2084100002965A51418
:1042D0000000000084305AEB00000841CE79000055
:1042E000000094B25AEB00002986C6380000000096
:1042F000DEFB214500008C9252CB0021194531E7AD
:104300000041008200820061008200410082008240
:104310000021008200610082008200610062004191
:1043200000820082002000A2006108A2006100411A
:104330003A28110400007C10636D00204A8AC65997
:1043400000000020D6BA10A200008430738E002036
:104350000841CE790000000073AE6B6D00000000D4
:10436000AD5518E3000018E3845000000000000081
:10437000002000000000000000000000000000001D
:104380000020002010E429C829E729E629A629866B
:1043900029852965318629852966296639E82966AE
:1043A00031673146318631863186296531A62965E6
:1043B00019047BEFFFFFFFFFFFFFFFFFFFFFFFFF82
:1043C000FFFFFFFFFFFFFFFFFFFFFFFFFFFFFFFFFD
:1043D000FFFFFFFFFFFFFFFFFFFFFFFFFFFFFFFFED
:1043E000FFFFFFFFFFFFFFFFFFFFFFFFFFFFFFFFDD
:1043F000FFFFFFFFFFFFFFFFFFFFFFFFFFFFFFFFCD
:10440000FFFFFFFFFFFFFFFFFFFFFFFFFFFFFFFFBC
:10441000FFFFFFFFFFFFFFFFFFFFFFFFFFFFFFFFAC
:10442000FFFFFFFFFFFFFFFFFFFFFFFFFFFFFFFF9C
:10443000FFFFFFFFFFFFFFFFFFFFFFFFFFFFFFFF8C
:10444000FFFFFFFFFFFFFFFFFFFFFFFFFFFFFFFF7C
:10445000FFFFFFDFFFFFFFFFD6BA298521042124DC
:104460002124214521242965296521043165294517
:104470002124214529462925214529652944294505
:1044800029452966296510A20000002000000000CF
:1044900000000000000000200000000000000021DB
:1044A00039E80000000073AE6B6D00000000B5B687
:1044B0002104000031A6BDD700000000B5B639E7E1
:1044C00000004A49BDF700000061DF1C10E3002135
:1044D000530C1924006100410041008200820082D7
:1044E00000C3008200A300C300C300C200E300C3F6
:1044F00000E300E300E400E300E3010300C300E3A2
:1045000000C300C300E400A200C3008200A2008236
:1045100000820082008200410061002029A64289B9
:10452000002031C6CEBA00000000CE792965000017
:10453000630C9CF300000000C6182104000039E75A
:104540009CF3002000007BEF630B0000000042287A
:10455000000000200000000000000000000000003B
:104560000000000000200000212431A631663165E2
:10457000316531863186296531A629653145318617
:104580002966296529852985296531A62965296531
:10459000296519045ACBFFFFFFFFFFFFFFFFFFFF55
:1045A000FFFFFFFFFFFFFFFFFFFFFFFFFFFFFFFF1B
:1045B000FFFFFFFFFFFFFFFFFFFFFFFFFFFFFFFF0B
:1045C000FFFFFFFFFFFFFFFFFFFFFFFFFFFFFFFFFB
:1045D000FFFFFFFFFFFFFFFFFFFFFFFFFFFFFFFFEB
:1045E000FFFFFFFFFFFFFFFFFFFFFFFFFFFFFFFFDB
:1045F000FFFFFFFFFFFFFFFFFFFFFFFFFFFFFFFFCB
:10460000FFFFFFFFFFFFFFFFFFFFFFFFFFFFFFFFBA
:10461000FFFFFFFFFFFFFFFFFFFFFFFFFFFFFFFFAA
:10462000FFFFFFFFFFFFFFFFFFFFFFFFFFFFFFFF9A
:10463000FFFFFFFFFFFFC618212419032144214576
:10464000214521452945214521442945292429651C
:104650002965212429252945214521452945294523
:10466000296619040020000000200000000000005E
:10467000000000000000000000000000000000003A
:10468000AD762124000010A1C61700000000632CA5
:10469000949200000000CE59210400006B6D9CF341
:1046A000000010A3DEFB0041004121860082006172
:1046B0000061008200A200A200C300E300E300C387
:1046C0000104010401040104010401450104014441
:1046D0000124012401240144012401240124014571
:1046E00001040124014501040104010400E3012443
:1046F00000C300E300C300C200A200C20081006149
:10470000008108C21964004018E3DEFB00200000AD
:10471000C618420800004208BDD700000000AD5591
:104720004A4900000862C6180820000031A69D14FE
:104730000000000000000000000000000001000078
:1047400000200000000000000000084131663186B2
:10475000318529452965318629853186316531655F
:104760002965298531A5298429A6296529652986F0
:104770002965298629454248F7DFFFFFFFFFFFFF34
:10478000FFFFFFFFFFFFFFFFFFFFFFFFFFFFFFFF39
:10479000FFFFFFFFFFFFFFFFFFFFFFFFFFFFFFFF29
:1047A000FFFFFFFFFFFFFFFFFFFFFFFFFFFFFFFF19
:1047B000FFFFFFFFFFFFFFFFFFFFFFFFFFFFFFFF09
:1047C000FFFFFFFFFFFFFFFFFFFFFFFFFFFFFFFFF9
:1047D000FFFFFFFFFFFFFFFFFFFFFFFFFFFFFFFFE9
:1047E000FFFFFFFFFFFFFFFFFFFFFFFFFFFFFFFFD9
:1047F000FFFFFFFFFFFFFFFFFFFFFFFFFFFFFFFFC9
:10480000FFFFFFFFFFFFFFFFFFFFFFFFFFFFFFFFB8
:10481000FFFFFFFFAD551904212421242104212489
:10482000294529452124294521242945294529456A
:1048300029452945294529452145296529452965D0
:1048400010820000000000000000000000000000D6
:10485000000000000000000010A28C5100200000A9
:10486000528A9492000000009CD35ACB0000086149
:10487000DEFB084000008C51843000001904C67A29
:104880000041004110C30061008200A200A200C2EA
:1048900000E300E300E301040104012401240144D6
:1048A00001450145016501650165016601660186F5
:1048B00001860186018601860186018601860186C0
:1048C00001860166016601650165016501450145D5
:1048D00001240124012401240104010300E300E375
:1048E00000C200C200A200A1006108C3004108C3C9
:1048F000D6DB00200020A555630C000018E3CE9AFB
:104900000000000073AF841000000000A51439C738
:10491000002000008C710861000000000000000011
:104920000000000000000000000000000000210462
:104930003186296531863186296531863186316532
:1049400031862986296531A5296529862965296544
:10495000296529453186212439E7EF5DFFFFFFFFF7
:10496000FFFFFFFFFFFFFFFFFFFFFFFFFFFFFFFF57
:10497000FFFFFFFFFFFFFFFFFFFFFFFFFFFFFFFF47
:10498000FFFFFFFFFFFFFFFFFFFFFFFFFFFFFFFF37
:10499000FFFFFFFFFFFFFFFFFFFFFFFFFFFFFFFF27
:1049A000FFFFFFFFFFFFFFFFFFFFFFFFFFFFFFFF17
:1049B000FFFFFFFFFFFFFFFFFFFFFFFFFFFFFFFF07
:1049C000FFFFFFFFFFFFFFFFFFFFFFFFFFFFFFFFF7
:1049D000FFFFFFFFFFFFFFFFFFFFFFFFFFFFFFFFE7
:1049E000FFFFFFFFFFFFFFFFFFFFFFFFFFFFFFFFD7
:1049F000FFFF9CF319032104212452AA6B4D18E3F5
:104A000021242124296521242965212421242945C3
:104A100029452945294521242945294521240020C6
:104A20000000000000000000000000200000000066
:104A30000000000018C3000000009CF342080000C2
:104A40000000BDF7210400002965C6180020000001
:104A5000AD55630C00002986C67900410021008213
:104A6000008200A2006200C300C300E300E301046F
:104A70000124012401450165016501650185018667
:104A800001A601A601A601A609C709C709C709C74A
:104A900009E709E709E709E709E709E709E709E796
:104AA00009C709C709C709C709A601A601A601A622
:104AB0000186018601650165014501440124012447
:104AC0000103010300E300E200C300A2008200A290
:104AD000006100610061D6DB10A2000084518430C7
:104AE00000200020D69A1082000039E7B59500001A
:104AF00000005AEB84100000000018C30000000002
:104B00000000000000200000000000000000000085
:104B1000108231863186318629653186296529657D
:104B20003186318631A62945318629652965296571
:104B300029457BCF4A692945294539E7DF1CFFFF15
:104B4000FFFFFFFFFFFFFFFFFFFFFFFFFFFFFFFF75
:104B5000FFFFFFFFFFFFFFFFFFFFFFFFFFFFFFFF65
:104B6000FFFFFFFFFFFFFFFFFFFFFFFFFFFFFFFF55
:104B7000FFFFFFFFFFFFFFFFFFFFFFFFFFFFFFFF45
:104B8000FFFFFFFFFFFFFFFFFFFFFFFFFFFFFFFF35
:104B9000FFFFFFFFFFFFFFFFFFFFFFFFFFFFFFFF25
:104BA000FFFFFFFFFFFFFFFFFFFFFFFFFFFFFFFF15
:104BB000FFFFFFFFFFFFFFFFFFDFFFFFFFDFFFFF45
:104BC000FFFFFFFFFFFFFFDFFFFFFFFFFFFFFFFF15
:104BD00094D218E321242124212431869CD35ACB5A
:104BE00018E329452124212429452945294529451A
:104BF0002945212429452965296518C3000000009D
:104C000000000000000000000000000000000000A4
:104C100000410881B5D6002000002124C6380000DC
:104C200000006B2C9CF300000020BDF74208002020
:104C300039E7D6FB0020006100820082008200C3B9
:104C400000A3010300E301040125014501450165BD
:104C50000165018601A601C609E709E709E709E739
:104C600011E711E711E711E711C611A611A6118589
:104C700009650945092411241124092409450965F8
:104C8000118511A611A611C611E711E7120711E748
:104C900009E709E709E701E701C601A60186016501
:104CA00001650145012501240124010300C300A37E
:104CB000008200A2008100C200600061EFBE18E324
:104CC0000000632CAD5400000000B5D6422800203F
:104CD0000020C63810A200000861B5B600000841E7
:104CE00000000000000000000000002000000000A4
:104CF000000000002104318631863186296529654E
:104D000031A62965294531A62965318631862124B8
:104D1000632C949239C72965294521443186DEDB0D
:104D2000FFFFFFFFFFFFFFFFFFFFFFFFFFFFFFFF93
:104D3000FFFFFFFFFFFFFFFFFFFFFFFFFFFFFFFF83
:104D4000FFFFFFFFFFFFFFFFFFFFFFFFFFFFFFFF73
:104D5000FFFFFFFFFFFFFFFFFFFFFFFFFFFFFFFF63
:104D6000FFFFFFFFFFFFFFFFFFFFFFFFFFFFFFFF53
:104D7000FFFFFFFFFFFFFFFFFFFFFFFFFFFFFFFF43
:104D8000FFFFFFFFFFFFFFFFFFFFFFFFFFFFFFFF33
:104D9000FFFFFFFFFFFFFFFFFFFFFFFFFFDFFFFF43
:104DA000FFFFFFFFFFFFFFFFFFDFFFFFFFFF94920B
:104DB00010C3212429452945294518E33186A53406
:104DC0004A69210421242945210429452945212412
:104DD00029452965294521240861000000000000BB
:104DE000000000000000000000000000004131C78A
:104DF000000000006BAE7C0F002000009CF3632CD1
:104E000000000000DEDA1904000052CBCE7A000068
:104E10000041216500410062008200C300E300E41C
:104E2000012401240165016501660186018609A747
:104E300009C711E71208120809C709A60965012464
:104E4000010400C300C300A200A200A100A10081D0
:104E50000081008208820882088208820082008223
:104E6000008100A100A100A200A200C200E3012471
:104E70000165098609A609C712080A0809E709C7D2
:104E800009A701A7018601860145016501450104C5
:104E900000E400A200E300A100A200611924006167
:104EA0000040E73C3186000039E7C63800000000CA
:104EB0007C1084300000000094925AEB0000000047
:104EC00039C70000000000000000000000000020C2
:104ED00000000000000018C3318629653186318644
:104EE0002965318631862965318629452945630C36
:104EF0009CF33186294531862986318629452985C5
:104F0000D6BAFFFFFFFFFFFFFFFFFFFFFFFFFFFF1F
:104F1000FFFFFFFFFFFFFFFFFFFFFFFFFFFFFFFFA1
:104F2000FFFFFFFFFFFFFFFFFFFFFFFFFFFFFFFF91
:104F3000FFFFFFFFFFFFFFFFFFFFFFFFFFFFFFFF81
:104F4000FFFFFFFFFFFFFFFFFFFFFFFFFFFFFFFF71
:104F5000FFFFFFFFFFFFFFFFFFFFFFFFFFFFFFFF61
:104F6000FFFFFFFFFFFFFFFFFFFFFFFFFFFFFFFF51
:104F7000FFFFFFFFFFFFFFFFFFFFFFFFFFFFFFFF41
:104F8000FFDFFFFFFFFFFFFFFFFFFFFF94B210C235
:104F900021452144212421242124294518E339E7EE
:104FA0006B4D2104294521242945212429452945E2
:104FB00029452965210400000000002000000000B0
:104FC0000020000000000000000000000021B5B635
:104FD000212400000020BE171903000018E3DEFBA7
:104FE0000020000073EFA5750000006252EC006124
:104FF000006100A200C300E300E301040145014594
:105000000165018501C601C709E709E711E711E755
:1050100009A6094500E400A300A300A300820082C2
:105020000862086208620882088208810881088193
:1050300008810881086108610861086108810881A8
:105040000881088108A108A20882088208A200A29B
:1050500000A200C300C300E400E40125098611C7D3
:1050600011E8120809E809E701C601850166016631
:10507000016601240103010300C200E30082004134
:105080000082530B00000020CE7A528A000010A24A
:10509000DEFB0841000031C6BDD60000000039C665
:1050A000B5750820000000000000000000000000AE
:1050B00000000000000000000841318631862965AB
:1050C0002965296531862945296531A629456B6DF4
:1050D000420829652945318629652965298529459B
:1050E0002965D6BAFFFFFFFFFFFFFFFFFFFFFFFFAE
:1050F000FFFFFFFFFFFFFFFFFFFFFFFFFFFFFFFFC0
:10510000FFFFFFFFFFFFFFFFFFFFFFFFFFFFFFFFAF
:10511000FFFFFFFFFFFFFFFFFFFFFFFFFFFFFFFF9F
:10512000FFFFFFFFFFFFFFFFFFFFFFFFFFFFFFFF8F
:10513000FFFFFFFFFFFFFFFFFFFFFFFFFFFFFFFF7F
:10514000FFFFFFFFFFFFFFFFFFFFFFFFFFFFFFFF6F
:10515000FFFFFFFFFFFFFFFFFFFFFFFFFFFFFFDF7F
:10516000FFFFFFFFFFFFFFFFFFFF949210C221240C
:10517000214521452124294529452124294521046A
:1051800021242945294529452124296529452945E1
:10519000296510A2000000000000000000000000CF
:1051A000000000000000002062EC00000000420847
:1051B000AD95000000005AEBAD75000000009D1495
:1051C00073EF00200081B618006100620062008267
:1051D00000C300C30104012401650165016509A63E
:1051E00009C711E711E711E709A60965010300C323
:1051F00000A20082008208820862086208620861D8
:10520000106110611062106208610861086110810C
:105210001081108110811081108110811081108106
:10522000086108611081088110821082108210A22A
:1052300010A2088208A208A308E4090401040104DA
:105240000124016501A609C612070A070A0801A779
:1052500001660986016501440145010400E400A3DB
:1052600000610061006108C3B5B700000000A5350A
:1052700073AF00000000C617420700000000B5B67B
:105280002945000000005AAB0000000000000000AB
:1052900000000000000000000000002029453186C9
:1052A0003186318629453186318629653186294501
:1052B0002945294531A62965298629852965296534
:1052C000212431A6DEFBFFFFFFFFFFFFFFFFFFFFF3
:1052D000FFFFFFFFFFFFFFFFFFFFFFFFFFFFFFFFDE
:1052E000FFFFFFFFFFFFFFFFFFFFFFFFFFFFFFFFCE
:1052F000FFFFFFFFFFFFFFFFFFFFFFFFFFFFFFFFBE
:10530000FFFFFFFFFFFFFFFFFFFFFFFFFFFFFFFFAD
:10531000FFFFFFFFFFFFFFFFFFFFFFFFFFFFFFFF9D
:10532000FFFFFFFFFFFFFFFFFFFFFFFFFFFFFFFF8D
:10533000FFFFFFFFFFFFFFFFFFFFFFFFFFFFFFFF7D
:10534000FFFFFFDFFFFFFFFFA53418C32124214526
:1053500021042145212421042124294529452945C9
:105360002124212429452124294521042945294591
:1053700008610000000000000020000000000000A4
:105380000000000000000000A4F45A8A00000000A1
:10539000A4F4630C00000000CE384A29000010A3DA
:1053A000EF9E08C300610061008200A300E40104D5
:1053B000010401240145018501A509E609E711E77A
:1053C00011C709451125008200A2008200810081D9
:1053D000088208810882088210821082108210825E
:1053E00010811081086108611082108210621062C1
:1053F000106210621062106210621062106210621D
:1054000010620862108210820882088210A210A224
:1054100010A210C310C310C308C308E30903090492
:105420000924092409440144014409A609C71208B2
:1054300011E809A701C601A601860145012500E47E
:1054400008E400A300C300620021000031C7E73C6C
:10545000002000006B4DAD75000000007BEF8C500C
:10546000000000205B0B94B2000000000000000070
:105470000000000000000000000000000000210407
:1054800031A629652965296529652965296531863A
:105490003186296529652965318629452986298529
:1054A000298621242986E75DFFFFFFFFFFFFFFFF1D
:1054B000FFFFFFFFFFFFFFFFFFFFFFFFFFFFFFFFFC
:1054C000FFFFFFFFFFFFFFFFFFFFFFFFFFFFFFFFEC
:1054D000FFFFFFFFFFFFFFFFFFFFFFFFFFFFFFFFDC
:1054E000FFFFFFFFFFFFFFFFFFFFFFFFFFFFFFFFCC
:1054F000FFFFFFFFFFFFFFFFFFFFFFFFFFFFFFFFBC
:10550000FFFFFFFFFFFFFFFFFFFFFFFFFFFFFFFFAB
:10551000FFFFFFFFFFFFFFFFFFFFFFFFFFFFFFFF9B
:10552000FFDFFFFFFFFFAD7518C3210421042145F4
:1055300021242965294521242945212421242124A8
:10554000294529452124294521242965210408418B
:10555000000000000000000000000000000000004B
:105560000000630C002000001062CE591082000081
:1055700010A2E71C086100004208DEBB00200021E9
:1055800029A6008200A300A200E401240104012452
:105590000986016509C609C7120711E709C6010492
:1055A000008200A300421082086208610861108135
:1055B00010811081108110810861106110610861F3
:1055C00010820882088208821082108208620862B3
:1055D00010621062108210821062106210621082DB
:1055E000106210821082108208820882088210A243
:1055F00010A210A210C310C310E310E310E30904BB
:10560000090409240924092409650945096609864C
:10561000098611E712070A0701E701A70166096673
:10562000010400E400E400C400A3006208A2218693
:10563000000010C3E75C210300002124D6BA084013
:1056400000001904CE7900200000084152AA000091
:10565000000000000000000000000000000000004A
:1056600010A231863186296529652965318629652B
:105670003186296529653186296531A6294529455F
:1056800029852965212431C7F79EFFDFFFFFFFFF32
:10569000FFFFFFFFFFFFFFFFFFFFFFFFFFFFFFFF1A
:1056A000FFFFFFFFFFFFFFFFFFFFFFFFFFFFFFFF0A
:1056B000FFFFFFFFFFFFFFFFFFFFFFFFFFFFFFFFFA
:1056C000FFFFFFFFFFFFFFFFFFFFFFFFFFFFFFFFEA
:1056D000FFFFFFFFFFFFFFFFFFFFFFFFFFFFFFFFDA
:1056E000FFFFFFFFFFFFFFFFFFFFFFFFFFFFFFFFCA
:1056F000FFFFFFFFFFFFFFFFFFFFFFFFFFFFFFFFBA
:10570000FFFFFFFFC61818E32104210421242124F0
:1057100029452945212421242124294521242124E6
:1057200029452945294529452965212400200000CE
:105730000000002000000000000000000000000049
:1057400000007BCF8410000000005AEBB5960000EB
:10575000000073AEB5B600000000AD3531C70041A2
:10576000006200A200C3010401240145016501A6F5
:1057700009C609E711E711E7012400C30082088286
:105780000882086208621062106210621062106281
:105790001062106210621062108210621062106259
:1057A00010621082108210820861108210820882BA
:1057B0001082088210821082108208821082088172
:1057C000086108611082108208821082108210A283
:1057D00010A310A310C310C310E310E310E40904D6
:1057E0000904092411240944096509651166116633
:1057F0000986098609A609C709E80A0809E801C651
:1058000001A601450145012500E400A300A20061B5
:10581000004152EC843000000000D69A528A000009
:105820000000C63842280000000094B26B4D000012
:105830000000000000000000000000000000000068
:105840000000086131862965318629652965318620
:105850002965318631862965296529652965296586
:10586000296529453186212439E7FFFFFFFFFFFF26
:10587000FFFFFFFFFFFFFFFFFFFFFFFFFFFFFFFF38
:10588000FFFFFFFFFFFFFFFFFFFFFFFFFFFFFFFF28
:10589000FFFFFFFFFFFFFFFFFFFFFFFFFFFFFFFF18
:1058A000FFFFFFFFFFFFFFFFFFFFFFFFFFFFFFFF08
:1058B000FFFFFFFFFFFFFFFFFFFFFFFFFFFFFFFFF8
:1058C000FFFFFFFFFFFFFFFFFFFFFFFFFFFFFFFFE8
:1058D000FFFFFFFFFFFFFFFFFFFFFFFFFFFFFFFFD8
:1058E000FFFFDF1B19041903212439C718E3210422
:1058F000212421242124294529452124212421242E
:10590000294521242124296518E300000000000016
:105910000000000000000000000000000000000087
:1059200000000020AD754A4900000000B5D6632C88
:1059300000200020D6BB5B0C00000000006200824B
:1059400000C3010400E40145016501A609C609E799
:1059500011E709A60104008208A308620842106248
:105960001062106210821082106110621062106268
:105970001062106210621062106110621062106298
:1059800010621082108210820861108110811081D3
:1059900010820882088108610882088208820882D1
:1059A0000881108110811082108210A310A310A210
:1059B00010A310C310C310E310E411041104112448
:1059C00011241125114511450965096511851186B7
:1059D00011A609A609C609C709C701A701E70A2830
:1059E00009E701C601A601450145012400E300C302
:1059F00000820061004100208430BDF700000020DB
:105A00008C719CF300000000632CA51400000000C2
:105A10000000000000000000000000000000000086
:105A2000000000000841296531863186318629450C
:105A300029652965318629652965296529652965CD
:105A40002965294539C7294521444A69FFFFFFFFD8
:105A5000FFFFFFFFFFFFFFFFFFFFFFFFFFFFFFFF56
:105A6000FFFFFFFFFFFFFFFFFFFFFFFFFFFFFFFF46
:105A7000FFFFFFFFFFFFFFFFFFFFFFFFFFFFFFFF36
:105A8000FFFFFFFFFFFFFFFFFFFFFFFFFFFFFFFF26
:105A9000FFFFFFFFFFFFFFFFFFFFFFFFFFFFFFFF16
:105AA000FFFFFFFFFFFFFFFFFFFFFFFFFFFFFFFF06
:105AB000FFFFFFFFFFFFFFFFFFFFFFFFFFFFFFFFF6
:105AC000EF9D296518E3212431869CD34A6921047E
:105AD000210421242945212421242124294521246C
