:03000000020DEC02
:0C0DEC00787FE4F6D8FD758125020C69C3
:10000300FFFFFFFFFFFFFFFFFFFFFFFFFFFFFFFFFD
:10001300FFFFFFFFFFFFFFFFFFFFFFFFFFFFFFFFED
:10002300FFFFFFFFFFFFFFFFFFFFFFFFFFFFFFFFDD
:10003300FFFFFFFFFFFFFFFFFFFFFFFFFFFFFFFFCD
:10004300FFFFFFFFFFFFFFFFFFFFFFFFFFFFFFFFBD
:10005300FFFFFFFFFFFFFFFFFFFFFFFFFFFFFFFFAD
:10006300FFFFFFFFFFFFFFFFFFFFFFFFFFFFFFFF9D
:10007300FFFFFFFFFFFFFFFFFFFFFFFFFFFFFFFF8D
:10008300FFFFFFFFFFFFFFFFFFFFFFFFFFFFFFFF7D
:10009300FFFFFFFFFFFFFFFFFFFFFFFFFFFFFFFF6D
:1000A300FFFFFFFFFFFFFFFFFFFFFFFFFFFFFFFF5D
:1000B300FFFFFFFFFFFFFFFFFFFFFFFFFFFFFFFF4D
:1000C300FFFFFFFFFFFFFFFFFFFFFFFFFFFFFFFF3D
:1000D300FFFFFFFFFFFFFF0000FFFFFFFFFFFFFF2B
:1000E300FFFFFFFFFFFFF800000FFFFFFFFFFFFF12
:1000F300FFFFFFFFFFFFE07FFE03FFFFFFFFFFFFA9
:10010300FFFFFFFFFFFF03FFFFC0FFFFFFFFFFFF37
:10011300FFFFFFFFFFFE07FFFFF83FFFFFFFFFFFAC
:10012300FFFFFFFFFFF80FFFFFFE1FFFFFFFFFFFB4
:10013300FFFFFFFFFFF00FFFFFFF87FFFFFFFFFF43
:10014300FFFFFFFFFFC00FFFFFFFC3FFFFFFFFFF27
:10015300FFFFFFFFFF880FFFFFFFF1FFFFFFFFFF21
:10016300FFFFFFFFFF180FFFFFFFF8FFFFFFFFFF7A
:10017300FFFFFFFFFE3C0FFFFFFFFC7FFFFFFFFFC3
:10018300FFFFFFFFFC7C0FFFFFFFFE3FFFFFFFFFB3
:10019300FFFFFFFFFCFC0FFFFFFFFF1FFFFFFFFF42
:1001A300FFFFFFFFF9FC0FFFFFFFFF8FFFFFFFFFC5
:1001B300FFFFFFFFF1FC0FFFFFFFFFCFFFFFFFFF7D
:1001C300FFFFFFFFE3FC0FFFFFF003C7FFFFFFFF8E
:1001D300FFFFFFFFE7FC0FFFFFC00063FFFFFFFF11
:1001E300FFFFFFFFC7FC0FFFFF07FC03FFFFFFFF3E
:1001F300FFFFFFFFCFFC0FFFFE0FFF01FFFFFFFF1E
:10020300FFFFFFFF9FFC0FFFFC3FFF81FFFFFFFF8F
:10021300FFFFFFFF9FFC0FFFF87FFFC1FFFFFFFF03
:10022300FFFFFFFF3FFC0FFFF07FFFE4FFFFFFFF38
:10023300FFFFFFFF3FFC0FFFE0FFFFE4FFFFFFFFB8
:10024300FFFFFFFF3FFC000FE0000FF67FFFFFFF04
:10025300FFFFFFFE7FFC003FC0003FF67FFFFFFF75
:10026300FFFFFFFE7FFC00FFC1F07FFE7FFFFFFF6C
:10027300FFFFFFFE7FFC01FF83F0FFFE7FFFFFFF19
:10028300FFFFFFFE7FFC00FF83F1FFFF3FFFFFFF48
:10029300FFFFFFFEFFFC00FF83E3FFFF3FFFFFFFC6
:1002A300FFFFFFFCFFFC007F83E3FFFF3FFFFFFF38
:1002B300FFFFFFFCFFFC007F83C7FFFF3FFFFFFF44
:1002C300FFFFFFFCFFFC003F838FFFFF3FFFFFFFAC
:1002D300FFFFFFFCFFFC001F878FFFFF3FFFFFFFB8
:1002E300FFFFFFFCFFFC001F871FFFFF3FFFFFFF18
:1002F300FFFFFFFCFFFC080F871FFFFF3FFFFFFF10
:10030300FFFFFFFCFFFC0807823FFFFF3FFFFFFFEC
:10031300FFFFFFFCFFFC0C07823FFFFF3FFFFFFFD8
:10032300FFFFFFFCFFFC0E03807FFFFF3FFFFFFF8C
:10033300FFFFFFFEFFFC0E0180FFFFFF3FFFFFFFFC
:10034300FFFFFFFE7FFC0F0180FFFFFF3FFFFFFF6B
:10035300FFFFFFFE7FFC0F00C1FFFFFF7FFFFFFFDB
:10036300FFFFFFFE7FFC0F80C1FFFFFE7FFFFFFF4C
:10037300FFFFFFFE71FC1FC041FFFFFE7FFFFFFF7A
:10038300FFFFFFFF20FC1FC000FFFFFA7FFFFFFFFF
:10039300FFFFFFFF20FC1FE0007FFFF4FFFFFFFFD5
:1003A300FFFFFFFF207C3FF0003FFFE4FFFFFFFF65
:1003B300FFFFFFFF80783FF0083FFFCCFFFFFFFF09
:1003C300FFFFFFFF90387FF81C0FFF99FFFFFFFF30
:1003D300FFFFFFFF8800FFF81E07FE39FFFFFFFF47
:1003E300FFFFFFFFCE03FFF81F8000F3FFFFFFFFB8
:1003F300FFFFFFFFE7FFFFF81FE003E3FFFFFFFF40
:10040300FFFFFFFFE7FFFFF81FFFFFE7FFFFFFFF10
:10041300FFFFFFFFF3FFFFF81FFFFFC7FFFFFFFF14
:10042300FFFFFFFFF1FFFFF81FFFFF8FFFFFFFFF3E
:10043300FFFFFFFFF8FFFFF81FFFFF1FFFFFFFFF97
:10044300FFFFFFFFFC7FFFF81FFFFF3FFFFFFFFFE3
:10045300FFFFFFFFFE3FFFF81FFFFE3FFFFFFFFF12
:10046300FFFFFFFFFF1FFFF81FFFFC7FFFFFFFFFE3
:10047300FFFFFFFFFF8FFFF81FFFF0FFFFFFFFFFEF
:10048300FFFFFFFFFFC7FFF81FFFE1FFFFFFFFFFB6
:10049300FFFFFFFFFFE1FFF81FFFC7FFFFFFFFFFA6
:1004A300FFFFFFFFFFF0FFF81FFF0FFFFFFFFFFF3F
:1004B300FFFFFFFFFFFC3FF81FFC1FFFFFFFFFFFD6
:1004C300FFFFFFFFFFFF0FF00FF07FFFFFFFFFFFB7
:1004D300FFFFFFFFFFFF81E00781FFFFFFFFFFFF3C
:1004E300FFFFFFFFFFFFF0000007FFFFFFFFFFFF1E
:1004F300FFFFFFFFFFFFFE00003FFFFFFFFFFFFFC8
:10050300FFFFFFFFFFFFFFE003FFFFFFFFFFFFFF13
:10051300FFFFFFFFFFFFFFFFFFFFFFFFFFFFFFFFE8
:10052300FFFFFFFFFFFFFFFFFFFFFFFFFFFFFFFFD8
:10053300FFFFFFFFFFFFFFFFFFFFFFFFFFFFFFFFC8
:10054300FFFFFFFFFFFFFFFFFFFFFFFFFFFFFFFFB8
:10055300FFFFFFFFFFFFFFFFFFFFFFFFFFFFFFFFA8
:10056300FFFFFFFFFFFFFFFFFFFFFFFFFFFFFFFF98
:10057300FFFFFFFFFFFFFFFFFFFFFFFFFFFFFFFF88
:10058300FFFFFFFFFFFFFFFFFFFFFFFFFFFFFFFF78
:10059300FFFFFFFFFFFFFFFFFFFFFFFFFFFFFFFF68
:1005A300FFFFFFFF9FFFFFFEFFFFFFF07FFFFFFF48
:1005B300FFFFFFFF8FFFFFFF3FFFFFC03FFFFFFF77
:1005C300FFFFFFFF8FFFFFFF1FFFFFAF1FFFFFFFB8
:1005D300FFFFFFFF0FFFFFFE0FFFFEF31FFFFFFFF6
:1005E300FFFFFFFF03FFFFFC07FFFE403FFFFFFF8F
:1005F300FFFFFFFE21FFFFFC47FFFF263FFFFFFF3B
:10060300FFFFFFFE78FFFE3D8FFFFF287FFFFFFF09
:10061300FFFFFFFCFC7FFF1F13FFFF00FFFFFFFF38
:10062300FFFFFFFCC61FFE5F01FFFF867FFFFFFF8B
:10063300FFFFFFF9030FFFF619FFFFF07FFFFFFF37
:10064300FFFFFFF80383FFF813FFFF87FFFFFFFFA1
:10065300FFFFFFF30FC0FC7983FFFC18FFFFFFFFD1
:10066300FFFFFFE703E03E3901FFFC21FFFFFFFF30
:10067300FFFFFFEEC1FF3F383FFFFF327FFFFFFF6A
:10068300FFFFFFCE07FFFE7849FFFF703FFFFFFF2D
:10069300FFFFFF9C0FFFFF7CC9FFFE039FFFFFFFD0
:1006A300FFFFFF3E4CFFFF3C91FFFECF1FFFFFFF0D
:1006B300FFFFFFFF88FFFFB9BFFFFCC07FFFFFFF06
:1006C300FFFFFFFE01FFFFB39E7FFDC07FFFFFFF24
:1006D300FFFFFFFE43FFFD1FC07FF99F1FFFFFFFCB
:1006E300FFFFFFFEC7FFFE00FFFFFB9C83FFFFFF33
:1006F300FFFFFFFF803FFFFC001FF799C07FFFFF55
:10070300FFFFFFFC003FFFFF800FE7D1F0FFFFFF7C
:10071300FFFFFFF83FFFFFFFF87FCFC3FFFFFFFFA0
:10072300FFFFFFFDFFFFFFFFFFFF9FE7FFFFFFFF50
:10073300FFFFFFFFFFFFFFFFFFFFFFFFFFFFFFFFC6
:10074300FFFFFFFFFFFFFFFFFFFFFFFFFFFFFFFFB6
:10075300FFFFFFFFFFFFFFFFFFFFFFFFFFFFFFFFA6
:10076300FFFFFFFFFFFFFFFFFFFFFFFFFFFFFFFF96
:10077300FFFFFFFFFFFFFFFFFFFFFFFFFFFFFFFF86
:10078300FFFFFFFFFFFFFFFFFFFFFFFFFFFFFFFF76
:10079300FFFFFFFFFFFFFFFFFFFFFFFFFFFFFFFF66
:1007A300FFFFFFFFFFFFFFFFFFFFFFFFFFFFFFFF56
:1007B300FFFFFFFFFFFFFFFFFFFFFFFFFFFFFFFF46
:1007C300FFFFFFFFFFFFFFFFFFFFFFFFFFFFFFFF36
:1007D300FFFFFFFFFFFFFFFFFFFFFFFFFFFFFFFF26
:1007E300FFFFFFFFFFFFFFFFFFFFFFFFFFFFFFFF16
:1007F300FFFFFFFFFFFFFFFFFFFFFFFFFFFFFFFF06
:100CF000E4FDD3EF9400EE9400401F0D0D0D0D0D9B
:100D00000D0D0D0D0D0D0D0D0D0D0D0D0D0D0D0D13
:0A0D10000D0D0DEF1F70DB1E80D8E3
:010D1A0022B6
:040D1B007FE87E03EC
:100D1F00E4FDFCC3ED9FEC9E5015E4FBFA0BBB000A
:0F0D2F00010ABA03F8BB84F50DBD00010C80E486
:010D3E002292
:100D3F00E4FE53A0FEEF20E70553A0FD800343A080
:0F0D4F0002EF25E0FF43A00153A0FE0EBE08E314
:010D5E002272
:070DC7007FEF120DCE7FEB60
:0D0DCE0053A0FB53A0F7120D3F43A00822D5
:0F0D7C00120D8BE4FF120D8BE4FF120D8BE4FFC1
:0D0D8B0043A00453A0F7120D3F43A008221F
:1008030053A0EF7F647E00120D1F43A01053A0F787
:10081300120D1F120DC77F14120D8B7FFE120DCE0A
:10082300120DC77F14120D8B7F84120DCE7F4012E1
:100833000D8B7F85120DCE7FFF120D8B7F86120DE0
:10084300CE7FFF120D8B7F87120DCE7FFF120D8B94
:100853007F88120DCE7F0A120D8B7F89120DCE7FFA
:1008630021120D8B7F8A120DCEE4FF120D8B7F8B2D
:10087300120DCE7F80120D8B7F8C120DCE7F011255
:100883000D8B7F8D120DCE7F01120D8B7F8E120D7E
:10089300CE7FFF120D8B7F8F120DCE7FFF120D8B3C
:1008A3007FB6120DCEE4FF120D8B7F20120D8B7FCE
:1008B30036120DCE7F08120D8B7F3A120DCE7F05B7
:1008C300120D8B7F90120DCE7F08120D8B7F0812B5
:1008D3000D8B7F08120D8B7F08120D8B7FBD120DC0
:1008E300CE7F06120D8B7FBC120DCEE4FF120D8B53
:1008F3007FFF120DCE7F60120D8B7F01120D8B7F58
:1009030004120D8B7FC3120DCE7F13120D8B7FC488
:10091300120DCE7F13120D8B7FC9120DCE7F2212C3
:100923000D8B7FBE120DCE7F11120D8B7FE1120D49
:10093300CE7F10120D8B7F0E120D8B7FDF120DCE2B
:100943007F21120D8B7F0C120D8B7F02120D8B7F7B
:10095300F0120DCE7F45120D8B7F09120D8B7F0890
:10096300120D8B7F08120D8B7F26120D8B7F2A129F
:100973000D8B7FF1120DCE7F43120D8B7F70120D05
:100983008B7F72120D8B7F36120D8B7F37120D8B7F
:100993007F6F120D8B7FF2120DCE7F45120D8B7F71
:1009A30009120D8B7F08120D8B7F08120D8B7F268A
:1009B300120D8B7F2A120D8B7FF3120DCE7F431204
:1009C3000D8B7F70120D8B7F72120D8B7F36120D84
:1009D3008B7F37120D8B7F6F120D8B7FED120DCE38
:1009E3007F1B120D8B7F0B120D8B7FAE120DCE7FF3
:1009F30077120D8B7FCD120DCE7F63120D8B7F701F
:100A0300120DCE7F07120D8B7F07120D8B7F041201
:100A13000D8B7F0E120D8B7F0F120D8B7F09120D25
:100A23008B7F07120D8B7F08120D8B7F03120D8BAB
:100A33007FE8120DCE7F34120D8B7F62120DCE7FB5
:100A430018120D8B7F0D120D8B7F71120D8B7FEDA5
:100A5300120D8B7F70120D8B7F70120D8B7F18120E
:100A63000D8B7F0F120D8B7F71120D8B7FEF120D8C
:100A73008B7F70120D8B7F70120D8B7F63120DCEE7
:100A83007F18120D8B7F11120D8B7F71120D8B7FCF
:100A9300F1120D8B7F70120D8B7F70120D8B7F18EF
:100AA300120D8B7F13120D8B7F71120D8B7FF3123F
:100AB3000D8B7F70120D8B7F70120D8B7F64120D67
:100AC300CE7F28120D8B7F29120D8B7FF1120D8B98
:100AD3007F01120D8B7FF1120D867F07120D8B7F25
:100AE30066120DCE7F3C120D867FCD120D8B7F6774
:100AF300120D8B7F45120D8B7F45120D8B7F1012CC
:100B03000D7C7F67120DCEE4FF120D8B7F3C120D1F
:100B13007C7F01120D8B7F54120D8B7F10120D8B76
:100B23007F32120D8B7F98120D8B7F74120DCE7F47
:100B330010120D8B7F85120D8B7F80120D817F4EDE
:100B4300120D867F98120DCE7F3E120D8B7F0712FA
:100B53000D8B7F34120DCE7F21120DCE7F11120D1E
:100B6300CE7F787E00120D1F7F29120DCE7F147E5B
:040B730000020D1F50
:080CB9007516EF7BEFE4FDFF6F
:100CC100AC077F2A120DCEE4FF120D8BAF04120D7B
:100CD10086AF03120D8B7F2B120DCEE4FF120D8B0D
:0F0CE100AF05120D86AF16120D8B7F2C020DCEB4
:100DDB00120CB9E4FC120D840CBCF0F90DBDF0F350
:010DEB0022E5
:040D5F008E088F0962
:100D6300120CB9E4FCE508FF120D8BAF09120D8BD1
:080D73000CBCF0F10DBDF0EB2A
:010D7B002255
:100DB1008A248B25AB078D16120CC1E524FF120D79
:060DC1008BAF25020D8B33
:0A0BF7008E178F188A1B8B1C8D824D
:100C0100EF251C14FBAC82EC251E14F516120CC149
:100C1100E4F522F523C3E523951CE522951B5047F6
:100C2100E4FDFCC3ED951EEC951D5031AB1F052174
:100C3100E521AA207002052014F9120D98FF120D6A
:100C41008BAB1F0521E521AA207002052014F912A2
:100C51000D98FF120D8B0DBD00010C80C60523E51B
:070C61002370B2052280AEF2
:010C68002269
:0A0B77008B088A09890A8C0B8D0C8B
:100B81007516B67BB67D377F37120CC1E4F50FF5CC
:100B910010E4F511F512AB08050AE50AAA0970027D
:100BA100050914F9120D98FDE4FBFAED30E70AE5A9
:100BB1000BFF120D8BAF0C8008E50DFF120D8BAFF3
:100BC1000E120D8BED25E0FD0BBB00010AEB640855
:100BD1004A70D80512E51270020511C39480E5111F
:100BE100940040B20510E5107002050FC39410E5A2
:050BF1000F9400409C80
:010BF60022DC
:040DF80075A0FF22C1
:100C6900120DF8120803120DDB7FE07E07120D5FEB
:100C7900120D1B7F007EF8120D5F120D1B7F1F7E68
:100C890000120D5F120D1B74FFFFFE120D5F120D96
:100C99001B120DDB7BFF7A007903750D07750EE0DA
:100CA9007D007CF8120B777FD07E07120D1F80B96B
:100D9800BB010689828A83E0225002E722BBFE0259
:090DA800E32289828A83E493228C
:00000001FF
