:020000040800F2
:1000000078070020CD010008D91600081D06000859
:10001000D51600087D020008831A000800000000C1
:10002000000000000000000000000000251800088B
:100030006D04000800000000DB16000839190008F4
:10004000E7010008E7010008E7010008E7010008F0
:10005000E7010008E7010008E7010008E7010008E0
:10006000E7010008E7010008E7010008E7010008D0
:10007000E7010008E7010008E7010008E7010008C0
:10008000E7010008E7010008E7010008E7010008B0
:10009000E7010008E7010008E7010008E7010008A0
:1000A000E7010008E7010008E7010008E701000890
:1000B000E7010008E7010008E7010008E701000880
:1000C000E7010008E7010008E7010008E701000870
:1000D000E70100089D190008E7010008E701000892
:1000E000E7010008E7010008E7010008E701000850
:1000F000E7010008E7010008E7010008E701000840
:10010000E7010008E7010008E7010008E70100082F
:10011000E7010008E7010008E7010008E70100081F
:10012000E7010008E7010008E7010008E70100080F
:1001300000F002F800F03AF80AA090E8000C8244BF
:100140008344AAF10107DA4501D100F02FF8AFF29C
:10015000090EBAE80F0013F0010F18BFFB1A43F0A5
:10016000010318477029020090290200103A24BFA9
:1001700078C878C1FAD8520724BF30C830C144BF0C
:1001800004680C607047000000230024002500264E
:10019000103A28BF78C1FBD8520728BF30C148BFEA
:1001A0000B6070471FB51FBD10B510BD00F033F8D0
:1001B0001146FFF7F7FF01F0B7FC00F051F803B468
:1001C000FFF7F2FF03BC01F05EFC00000948804726
:1001D00009480047FEE7FEE7FEE7FEE7FEE7FEE729
:1001E000FEE7FEE7FEE7FEE704480549054A064B41
:1001F000704700003D190008310100087801002017
:1002000078070020780300207803002070477047AB
:10021000704770477047754600F02CF8AE460500F1
:100220006946534620F00700854618B020B5FFF711
:10023000DBFFBDE820404FF000064FF000074FF015
:1002400000084FF0000B21F00701AC46ACE8C009F4
:10025000ACE8C009ACE8C009ACE8C0098D467047FD
:1002600010B50446AFF300802046BDE81040FFF70C
:10027000A6BF0000004870471801002000BFFEE73D
:1002800000F0805111B10349086001E00249486063
:1002900070470000040402400000024021B10268DF
:1002A00042F00102026004E002684FF6FE731A4059
:1002B0000260704701684FF6FE7211400160002134
:1002C000016041608160C1604B49884208D14A4960
:1002D0000839496841F00F01474A083A51608AE0FD
:1002E00045491431884208D143490839496841F0E9
:1002F000F001414A083A51607DE03F492831884287
:1003000008D13D490839496841F470613A4A083AD0
:10031000516070E038493C31884208D1364908398B
:10032000496841F47041344A083A516063E0324907
:100330005031884208D130490839496841F4702168
:100340002D4A083A516056E02B496431884208D161
:1003500029490839496841F47001274A083A51602F
:1003600049E025497831884208D12349083949684C
:1003700041F07061204A083A51603CE01F498842D0
:1003800006D1011F096841F00F01021F116032E020
:100390001A491431884208D11849091F096841F0E7
:1003A000F001164A121F116025E0144928318842D5
:1003B00008D11249091F096841F470610F4A121FE0
:1003C000116018E00D493C31884208D10B49091FE2
:1003D000096841F47041094A121F11600BE0074996
:1003E0005031884207D10549091F096841F470213D
:1003F000024A121F116070470800024008040240C0
:1004000001460020002201F0805313B1054B1A6809
:1004100001E0054B1A6802EA01030BB1012000E07C
:1004200000207047000402400000024010B5002286
:10043000026847F6F0739A430C6A8B6823430C6991
:1004400023434C6923438C692343CC6923434C6A7F
:1004500023438C6A23431A430260CB6843600B68D2
:1004600083604B68C36010BD4160704770472DE9E1
:10047000F04102460025002600200023002400272A
:1004800091F803C00CF00F0591F803C00CF0100CAC
:10049000BCF1000F03D091F802C04CEA050591F8B9
:1004A00000C0BCF1000F31D0146800202BE04FF0E9
:1004B000010C0CFA00F3B1F800C00CEA03069E42EE
:1004C00020D183004FF00F0C0CFA03F7BC4305FA60
:1004D00003FC4CEA040491F803C0BCF1280F06D1D8
:1004E0004FF0010C0CFA00FCC2F814C00AE091F8BD
:1004F00003C0BCF1480F05D14FF0010C0CFA00FC11
:10050000C2F810C0401C0828D1D31460B1F800C054
:10051000BCF1FF0F34DD546800202EE000F1080C20
:100520004FF0010808FA0CF3B1F800C00CEA03061A
:100530009E4221D183004FF00F0C0CFA03F7BC430D
:1005400005FA03FC4CEA040491F803C0BCF1280F3F
:1005500005D100F1080C08FA0CF8C2F8148091F8E3
:1005600003C0BCF1480F07D100F1080C4FF001089F
:1005700008FA0CF8C2F81080401C0828CED354604A
:10058000BDE8F081F0B50A460023002400210025D3
:1005900000F00046B6F1004F02D11D4EF16901E0B6
:1005A0001B4E7168C0F3034583B200F44016B6F5E4
:1005B000401F08D121F07061154E766826F07066F4
:1005C000134F7E6012E000F48016B6F5801F06D14E
:1005D000032606FA05F4A14341F0706106E0460DDA
:1005E000360103FA06F6B14341F0706122B1460DBF
:1005F000360103FA06F6314300F00046B6F1004F2B
:1006000002D1034EF16101E0014E7160F0BD0000C6
:1006100000000140416170470161704700BFFEE783
:100620002DE9F04107460C4615461E462A2000F0EB
:100630008FFF384600F07DFF284600F07AFF2B2020
:1006400000F086FF204600F074FF304600F071FF96
:100650002C2000F07DFFBDE8F08170B504460D460A
:1006600016462B46224629462046FFF7D9FF30463C
:1006700000F05FFF70BD00002DE9F84F0746884687
:1006800014461D46DDF828904FF0010ACDF8009081
:10069000E01BA5EB080100FB01F6681E83B2601E9B
:1006A00082B241463846FFF7BBFF08212748FFF7D3
:1006B000B1FF2748008840F40060254908800121E7
:1006C000234801F071F826E04FF6FE70864202D909
:1006D000361A834602E04FF0000AB3461FFA8BF346
:1006E0006A461B490C311B4800F0B0FF0122022171
:1006F000174801F065F8174800F0D8FF09E04FF4FB
:100700000070FFF77DFE20B14FF40070FFF7B8FDD9
:1007100000E0F4E700BFBAF1000FD5D108210B4883
:10072000FFF77AFF0A480088C04309490880084655
:10073000008840F40060088008460088C0430880B4
:100740000121034801F030F8BDE8F88F00080140AE
:10075000003001403000024008B50121042000F0C3
:10076000CDFF1E20ADF8000010208DF803000320FF
:100770008DF8020069460448FFF779FE1E21024801
:10078000FFF74AFF08BD00000008014010B500F067
:10079000C5FFFFF7E1FF0221FE48FFF73BFF6420A2
:1007A00001F09CF90221FB48FFF736FF642001F0BD
:1007B00095F91021F748FFF72FFF642001F08EF91B
:1007C000EF2000F0C5FEEB2000F0C2FE142000F088
:1007D000B9FEFE2000F0BCFEEF2000F0B9FEEB20D9
:1007E00000F0B6FE142000F0ADFE842000F0B0FE54
:1007F000402000F0A7FE852000F0AAFEFF2000F0B8
:10080000A1FE862000F0A4FEFF2000F09BFE8720C2
:1008100000F09EFEFF2000F095FE882000F098FE7C
:100820000A2000F08FFE892000F092FE212000F0C7
:1008300089FE8A2000F08CFE002000F083FE8B20D1
:1008400000F086FE802000F07DFE8C2000F080FE0F
:10085000012000F077FE8D2000F07AFE012000F0EC
:1008600071FE8E2000F074FEFF2000F06BFE8F20E2
:1008700000F06EFEFF2000F065FEB62000F068FE7E
:10088000002000F05FFE202000F05CFE362000F02B
:100890005FFE082000F056FE3A2000F059FE0520C9
:1008A00000F050FE902000F053FE082000F04AFEB9
:1008B000082000F047FE082000F044FE082000F069
:1008C00041FEBD2000F044FE062000F03BFEBC20AF
:1008D00000F03EFE002000F035FEFF2000F038FE64
:1008E000602000F02FFE012000F02CFE042000F01C
:1008F00029FEC32000F02CFE132000F023FEC420AC
:1009000000F026FE132000F01DFEC92000F020FE9E
:10091000222000F017FEBE2000F01AFE112000F089
:1009200011FEE12000F014FE102000F00BFE0E205E
:1009300000F008FEDF2000F00BFE212000F002FE98
:100940000C2000F0FFFD022000F0FCFDF02000F084
:10095000FFFD452000F0F6FD092000F0F3FD082022
:1009600000F0F0FD082000F0EDFD262000F0EAFD8B
:100970002A2000F0E7FDF12000F0EAFD432000F01E
:10098000E1FD702000F0DEFD722000F0DBFD36207E
:1009900000F0D8FD372000F0D5FD6F2000F0D2FD2B
:1009A000F22000F0D5FD452000F0CCFD092000F03C
:1009B000C9FD082000F0C6FD082000F0C3FD262078
:1009C00000F0C0FD2A2000F0BDFDF32000F0C0FDC6
:1009D000432000F0B7FD702000F0B4FD722000F05D
:1009E000B1FD362000F0AEFD372000F0ABFD6F20EA
:1009F00000F0A8FDED2000F0ABFD1B2000F0A2FDF3
:100A00000B2000F09FFDAE2000F0A2FD772000F04B
:100A100099FDCD2000F09CFD632000F093FD702037
:100A200000F096FD072000F08DFD072000F08AFD04
:100A3000042000F087FD0E2000F084FD0F2000F060
:100A400081FD092000F07EFD072000F07BFD0820DD
:100A500000F078FD032000F075FDE82000F078FD3F
:100A6000342000F06FFD622000F072FD182000F0CD
:100A700069FD0D2000F066FD712000F063FDED20A2
:100A800000F060FD702000F05DFD702000F05AFD68
:100A9000182000F057FD0F2000F054FD712000F0E9
:100AA00051FDEF2000F04EFD702000F04BFD702056
:100AB00000F048FD632000F04BFD182000F042FDDF
:100AC000112000F03FFD712000F03CFDF12000F00E
:100AD00039FD702000F036FD702000F033FD182045
:100AE00000F030FD132000F02DFD712000F02AFDF4
:100AF000F32000F027FD702000F024FD702000F0AE
:100B000021FD642000F024FD282000F01BFD292099
:100B100000F018FDF12000F015FD012000F012FD9D
:100B2000F12000F00FFD002000F00CFD072000F088
:100B300009FD662000F00CFD3C2000F003FD0020C4
:100B400000F000FDCD2000F0FDFC672000F0FAFC75
:100B5000452000F0F7FC452000F0F4FC102000F0E8
:100B6000F1FC002000F0EEFC002000F0EBFC002087
:100B700000F0E8FC672000F0EBFC002000F0E2FC55
:100B80003C2000F0DFFC002000F0DCFC002000F046
:100B9000D9FC01E000080140002000F0D3FC012056
:100BA00000F0D0FC542000F0CDFC102000F0CAFC76
:100BB000322000F0C7FC982000F0C4FC742000F044
:100BC000C7FC102000F0BEFC852000F0BBFC80209C
:100BD00000F0B8FC002000F0B5FC002000F0B2FCF2
:100BE0004E2000F0AFFC002000F0ACFC982000F09C
:100BF000AFFC3E2000F0A6FC072000F0A3FC35204F
:100C000000F0A6FC212000F0A3FC112000F0A0FCC5
:100C1000782000F063FF292000F09AFC142000F0F7
:100C20005DFF10BD2DE9FF5F80468A4617469B4653
:100C30000F9D00200290CDF80080284605EBD07172
:100C4000C1F347042046E21704EB5272D21021464A
:100C5000E31704EB5373DB10A4EBC3030BB10123C5
:100C600000E000231A446A4392B20192A7F12000E7
:100C7000C7B20AEB0500401E83B208EB0400401E19
:100C800082B251464046FFF7CBFC002669E00C2DAE
:100C900007D107EB4700354901EB8000805D0390E9
:100CA0001BE0102D05D1324800EB0710805D03904A
:100CB00013E0182D07D107EB47002E4901EB001078
:100CC000805D039009E0202D05D12B4800EB8710B3
:100CD000805D039001E0BDE8FF9F4FF000093AE01E
:100CE0001098C8B9012000FA09F00399084018B11A
:100CF000584600F01EFC02E00E9800F01AFC029824
:100D0000401CC0B20290029890FBF4F104FB110069
:100D1000E8B90020029021E0012000FA09F00399CF
:100D2000084020B15A4651464046FFF796FC08F16C
:100D300001001FFA80F80098A8EB0000A04206D13D
:100D4000DDF800800AF101001FFA80FA06E009F1DF
:100D5000010000F0FF09B9F1080FC1DB00BF701CF2
:100D600086B20198864292DB00BFB4E7B8F1010871
:100D70002CF601081CFC0108EC0D02082DE9FE4FC1
:100D80008046894617469A46DDE90D460C9D36E0B9
:100D90000C2C09D153463A4649464046CDE9014616
:100DA000009500F031F825E0102C09D153463A4661
:100DB00049464046CDE90146009500F0C9F819E0E2
:100DC000182C09D153463A4649464046CDE90146DA
:100DD000009500F059F90DE0202C09D153463A4610
:100DE00049464046CDE90146009500F0F1F901E0A1
:100DF000BDE8FE8FBF1C08EB04001FFA80F83878AE
:100E00000028C5D100BFF3E72DE9FF5F06468946FC
:100E100092469B460F9C0020039000962046E217C6
:100E200004EB5272D2102146E31704EB5373DB102C
:100E3000A4EBC3030BB1012300E000231A44624377
:100E400092B2019205200290002579E005EB850021
:100E500000EBC5003D4911F810009AF800108842D7
:100E60006BD105EB850000EBC500384901EB400074
:100E700040789AF8011088425FD109EB0400401EC7
:100E800083B23019401E82B249463046FFF7C8FB94
:100E900000274FE04FF0000846E0109808BB05EB34
:100EA000850000EBC500294901EB4000801CC05DB6
:100EB000012101FA08F1084018B1584600F039FB49
:100EC00002E00E9800F035FB0398401CC0B203907E
:100ED000039890FBF4F104FB110008BB0020039081
:100EE00025E005EB850000EBC500184901EB40004B
:100EF000801CC05D012101FA08F1084020B15A466A
:100F000049463046FFF7A9FB701C86B20098301A9C
:100F1000A04205D1009E09F101001FFA80F906E008
:100F200008F1010000F0FF08B8F1080FB5DB00BFC1
:100F3000781CC7B201988742ACDB00BF681C85B241
:100F40000298854282DBBDE8FF9F0000AC250208C5
:100F50002DE9FF5F0646894692469B460F9C00207E
:100F6000039000962046E21704EB5272D2102146FD
:100F7000E31704EB5373DB10A4EBC3030BB10123A2
:100F800000E000231A44624392B2019205200290CD
:100F9000002571E005EB05103A4911F810009AF8A8
:100FA0000010884265D105EB0510364901EB400081
:100FB00040789AF8011088425BD109EB0400401E8A
:100FC00083B23019401E82B249463046FFF728FBF3
:100FD00000274BE04FF0000842E01098F8B905EB0D
:100FE0000510284901EB4000801CC05D012101FA79
:100FF00008F1084018B1584600F09BFA02E00E983C
:1010000000F097FA0398401CC0B20390039890FB3D
:10101000F4F104FB1100F8B90020039023E005EB84
:101020000510184901EB4000801CC05D012101FA48
:1010300008F1084020B15A4649463046FFF70DFBFB
:10104000701C86B20098301AA04205D1009E09F1AA
:1010500001001FFA80F906E008F1010000F0FF0826
:10106000B8F1080FB9DB00BF781CC7B201988742FE
:10107000B0DB00BF681C85B2029885428ADBBDE800
:10108000FF9F00002E2602082DE9FF5F06468946D5
:1010900092469B460F9C0020039000962046E21744
:1010A00004EB5272D2102146E31704EB5373DB10AA
:1010B000A4EBC3030BB1012300E000231A446243F5
:1010C00092B2019205200290002579E005EB85009F
:1010D00000EB45103D4911F810009AF800108842C5
:1010E0006BD105EB850000EB4510384901EB400062
:1010F00040789AF8011088425FD109EB0400401E45
:1011000083B23019401E82B249463046FFF788FA52
:1011100000274FE04FF0000846E0109808BB05EBB1
:10112000850000EB4510294901EB4000801CC05DA3
:10113000012101FA08F1084018B1584600F0F9F908
:1011400002E00E9800F0F5F90398401CC0B203903D
:10115000039890FBF4F104FB110008BB00200390FE
:1011600025E005EB850000EB4510184901EB400038
:10117000801CC05D012101FA08F1084020B15A46E7
:1011800049463046FFF769FA701C86B20098301A5B
:10119000A04205D1009E09F101001FFA80F906E086
:1011A00008F1010000F0FF08B8F1080FB5DB00BF3F
:1011B000781CC7B201988742ACDB00BF681C85B2BF
:1011C0000298854282DBBDE8FF9F0000D826020816
:1011D0002DE9FF5F0646894692469B460F9C0020FC
:1011E000039000962046E21704EB5272D21021467B
:1011F000E31704EB5373DB10A4EBC3030BB1012320
:1012000000E000231A44624392B20192052002904A
:10121000002571E005EB85103A4911F810009AF8A5
:101220000010884265D105EB8510364901EB40007E
:1012300040789AF8011088425BD109EB0400401E07
:1012400083B23019401E82B249463046FFF7E8F9B2
:1012500000274BE04FF0000842E01098F8B905EB8A
:101260008510284901EB4000801CC05D012101FA76
:1012700008F1084018B1584600F05BF902E00E98FA
:1012800000F057F90398401CC0B20390039890FBFC
:10129000F4F104FB1100F8B90020039023E005EB02
:1012A0008510184901EB4000801CC05D012101FA46
:1012B00008F1084020B15A4649463046FFF7CDF9BB
:1012C000701C86B20098301AA04205D1009E09F128
:1012D00001001FFA80F906E008F1010000F0FF08A4
:1012E000B8F1080FB9DB00BF781CC7B2019887427C
:1012F000B0DB00BF681C85B2029885428ADBBDE87E
:10130000FF9F00004A2802082DE9FF4F85B00746DD
:1013100090461C46DDE91396304606EBD071C1F3CA
:10132000470B2149404600F03BFF039000F018FFB7
:1013300080B20490002531E0601B401EC1B20A203B
:1013400000F0BEFC0499B1FBF0F00A21B0FBF1F211
:1013500001FB120AA01EA84210D10020A11E01FB11
:101360000B71CDE90096029088B22E22129B06994D
:10137000FFF758FC681CC5B2601CC4B200200AF11B
:101380003001CAB205FB0B71CDE90096029088B21C
:10139000129B0699FFF746FC681CC5B2A542CBDB41
:1013A00009B0BDE8F08F00000000C8422DE9FF4FF2
:1013B00085B0074691461D46DDE913A6002004903E
:1013C000304606EBD071C1F3470B002434E0281BF4
:1013D000401EC1B20A2000F073FCB9FBF0F00A21F4
:1013E000B0FBF1F201FB12080498A0B9681EA042FC
:1013F00011DDB8F1000F0CD1002004FB0B71CDE919
:1014000000A6029088B22022129B0699FFF70AFCE0
:1014100010E001200490002008F13001CAB204FB62
:101420000B71CDE900A6029088B2129B0699FFF7D6
:10143000F9FB00BF601CC4B2AC42C8DB09B0BDE818
:10144000F08F00002DE9F05F0746884614461D46E0
:10145000DDF828904FF0010A04FB05F0460008EB88
:101460000500401E83B23819401E82B241463846FC
:10147000FFF7D6F808211B48FFF7CCF829E04FF614
:10148000FE70864202D9361A834602E04FF0000A07
:10149000B3461FFA8BF34A461349144800F0A8F8E4
:1014A0000122022110480C3800F08AF90F4800F0A0
:1014B000FDF809E04FF40070FEF7A2FF20B14FF4F1
:1014C0000070FEF7DDFE00E0F4E700BF4FF6FE70AF
:1014D0008144BAF1000FD2D108210248FFF79CF8ED
:1014E000BDE8F09F000801400C3001403000024090
:1014F0002DE9FE4F06460F4614469846DDE90D5A83
:10150000DDF8309010E0CDE9015ACDF80090227856
:10151000434639463046FFF785FB284605EBD07138
:1015200006EB61018EB2641C20780028EBD1BDE887
:10153000FE8F10B50446201200F01AF8E0B200F059
:1015400017F810BD10B50446204600F011F810BD84
:1015500010B5044604210548FFF75CF8204600F06A
:1015600007F804210148FFF757F810BD00080140B3
:1015700010B5044608210B48FFF74CF800BF0221C4
:10158000094800F026F90028F9D02146064800F065
:1015900029F9012000F079FA08210248FFF73CF808
:1015A00010BD0000000801400030014008B50121D5
:1015B000052000F0A3F801210B48FEF7E3FF4FF4EC
:1015C0000040ADF8000010208DF8030003208DF8D6
:1015D000020069460548FEF74AFF4FF40041034800
:1015E000FFF71AF808BD00000002300000080140B3
:1015F0002DE9F04107460D4616461C4601210846D6
:1016000000F06CF83846FEF755FE0E4804800E4890
:101610000560466010200C4988600846C4600020C0
:1016200008618020486100208861C86108624FF429
:1016300080504862002088623846FEF7F7FEBDE819
:10164000F081000014000020240000202DE9F0416A
:1016500007460D4616461C460121084600F03EF896
:101660003846FEF727FE0F4804800F4805604660A5
:1016700010200D4988600846C46000200861486158
:101680004FF4807088618000C861002008624FF4C8
:1016900080504862002088623846FEF7C7FEBDE8E9
:1016A000F0810000140000202400002010B5044642
:1016B00000212046FEF7F2FD044801880448FEF7A9
:1016C000D3FE01212046FEF7E9FD10BD14000020E5
:1016D0003000024000BFFEE77047704729B1064A5C
:1016E00052690243044B5A6104E0034A526982433F
:1016F000014B5A61704700000010024029B1064AB0
:1017000092690243044B9A6104E0034A926982435E
:10171000014B9A61704700000010024000B587B08D
:1017200001210803FFF7EAFF01210420FFF7E6FF8C
:10173000A020ADF8180003208DF81A0018208DF8AD
:101740001B0006A91648FEF792FEA0211448FEF7DA
:1017500063FF4FF44040ADF804004FF48270ADF8E1
:1017600006000020ADF808000220ADF80A000120B4
:10177000ADF80C004002ADF80E000820ADF81000E6
:101780000020ADF812000720ADF8140001A90548AB
:1017900000F02AF80121034800F006F807B000BD68
:1017A000000801400030014021B1028842F04002AF
:1017B000028004E002884FF6BF731A40028070472F
:1017C0001AB183880B43838002E083888B43838034
:1017D00070470246002013890B400BB1012000E046
:1017E000002070478181704710B50022028802F402
:1017F00041520B884C8823438C882343CC88234355
:101800000C8923434C8923438C892343CC8923436C
:101810001A430280838B4FF2FF74234083830B8A29
:10182000038210BD704710B500F002F810BD000033
:101830000CB50020019000903348006840F48030DF
:101840003149086000BF3048006800F40030009063
:101850000198401C0190009818B90198B0F5A06F4C
:10186000F1D12948006800F4003010B10120009047
:1018700001E0002000900098012843D1234800682F
:1018800040F01000214908600846006820F003007D
:1018900008600846006840F0020008601A48406886
:1018A000194948600846406848600846406840F466
:1018B000806048600846406820F47C104860084614
:1018C000406840F4E81048600846006840F08070C6
:1018D000086000BF0C48006800F000700028F9D0D4
:1018E0000948406820F003000749486008464068FE
:1018F00040F00200486000BF0348406800F00C0060
:101900000828F9D10CBD0000001002400020024060
:10191000042808D14FF0E021096941F004014FF09B
:10192000E022116107E04FF0E021096921F0040194
:101930004FF0E022116170477047000010B5134866
:10194000006840F0010011490860084640681049ED
:1019500008400E494860084600680E4908400B4997
:1019600008600846006820F4802008600846406847
:1019700020F4FE0048604FF41F008860FFF753FF1B
:101980004FF000600449086010BD000000100240E4
:101990000000FFF8FFFFF6FE08ED00E010B540F292
:1019A00025511D4800F03EF810B31B4800F064F8C4
:1019B000C4B21A48008800F40040C8B9174800882B
:1019C00000F4804060B10A2C03D000201349088045
:1019D00020E01248008840F400401049088019E0D7
:1019E0000D2C06D10D48008840F480400B4908803A
:1019F00010E00A480088C0F30D0009490C5407485C
:101A00000088401C0549088008460088C72801DD79
:101A10000020088010BD0000003801402000002098
:101A20005000002070B5024600240023002500204D
:101A300040F66A16B14200D100BFC1F3421501F071
:101A40001F03012606FA03F3012D02D196893340C4
:101A500006E0022D02D1168A334001E0968A334017
:101A60000C12012606FA04F41688344013B10CB1A6
:101A7000012000E0002070BD01468888C0F3080006
:101A8000704700BFFEE700BF704700BF011EA0F116
:101A90000100FBD17047000010B56FF00400FFF7A4
:101AA00037FF0A4800680A49B0FBF1F0094908709D
:101AB0000846007800EB4001C1EBC0104FF6FF7103
:101AC00001EAC0000449088010BD000000000020A9
:101AD00000127A0016000020180000200146114A6A
:101AE00012884A434FF0E0235A6100229A611A4655
:101AF000126942F001021A6100BF4FF0E022106942
:101B000000F001021AB100F48032002AF5D04FF043
:101B1000E022126922F001024FF0E0231A61002254
:101B20009A617047180000200EB54FF0000AFFF7C9
:101B3000B3FFFFF73BFDFEF729FE4FF6FF70F023E2
:101B40001A46002100900846FEF796FD00204B49FA
:101B5000086091E04A48F0231A46002100900846A8
:101B6000FFF770FC4FF47A70FFF7B8FF4FF6FF7085
:101B7000F0231A46002100900846FEF77DFD002064
:101B800020214FF6FF724FF47843CDE900210290F7
:101B90003CA228211E20FFF7F1F8002010214FF66B
:101BA000FF724FF47843CDE90021029038A2502112
:101BB0002020FFF79DFC10204FF6FF714FF4784274
:101BC0000323CDE900210290F02250218620FFF767
:101BD000EDFB002010214FF6FF724FF47843CDE962
:101BE000002102902EA264212020FFF781FC10200A
:101BF0004FF6FF714FF478420423CDE900210290A3
:101C000052466421A020FFF77FFB504600F07CFA8B
:101C10000746284A284B00F091F8054600F05CF88A
:101C200082464FF0000917E000240FE0234809EB3B
:101C30008902782303EBC20104EB84020090D000F8
:101C400028231A46FFF7FEFB601CC4B2062CEDDB0E
:101C500009F1010000F0FF09B9F1030FE4DB4FF4D3
:101C60007A70FFF73BFF4FF6FF70F0231A46002112
:101C700000900846FEF700FD6CE70000BC01214221
:101C8000B82F0008D6D0BEB0D4B0B5E7D7D3000087
:101C90004C43445F4469616D657465723A000000AD
:101CA000496E637265617365696E67204E756E3A41
:101CB000000000009A9999999999B93F3823000832
:101CC00010B50246012000E050430B1EA1F10104B3
:101CD000E1B2F9D110BD000021F00042A2F1605242
:101CE000B2F5801F01F0004328BFD2F17F6C0BD901
:101CF0005FEA001C43EAC20242EB507018BF704713
:101D000028BF20F001007047B2F5801FBCBF184605
:101D100070474FEA410C1CF5001F02D2084600F044
:101D200006BB70B500F0B2F800000089FFF7F6BFFF
:101D30004FF00040A0F580007047000010B591EA18
:101D4000030F48BF83F0004300F1FC80841A71EB5D
:101D5000030C05D2121943EB0C03001B61EB0C01C1
:101D6000DFF824E14FEA1154A4EB135C1EEA430FA1
:101D700018BF9EEA445F73D023EA0E03DCF1200E05
:101D800021EA045143F4801332D322FA0CFE10EB03
:101D90000E0023FA0CFE41EB0E01CCF1200E03FAEB
:101DA0000EFE10EB0E0051F10001B1F5801FCCF1D9
:101DB000200E32D201EB045112FA0EF2BDE81040AF
:101DC00058BF7047401C38BF5FEA420218BF7047D7
:101DD000002814BF20F0010041F100014FEA410347
:101DE00013F5001F38BF7047A1F1C04100F09CB847
:101DF000012A43EB0302ACF1200CDCF11F0E32BFD1
:101E00004FF0000E23FA0CF310EB030041EB0451EA
:101E1000B4EB115FD0D0A1EB045101F5801149085A
:101E20005FEA300001EB04510ED350F1000038BFDF
:101E300012FA0EFE08D1BDE81040C9E7401C38BFB9
:101E40005FEA4202CAD1C3E7BDE810404FEA41034E
:101E500013F5001F38BF7047A1F1C04100F064B80E
:101E60009EEA445F08D011EA5E0FBDE8104004BF4F
:101E700001F0004100207047BDE8104070B500F04F
:101E800005F800BF64FBBE3E0000E0FF0EF1020E4D
:101E90002EF0030E5EF8046B364205D4012A43EBA4
:101EA000030515F5001F12D8012841EB010C1CF5A4
:101EB000001F0CD80ED14FEAD17C15F5001F0CEB9A
:101EC0004C0C0CF1020C08BF4CEBD37C04E04FF03F
:101ED000080C01E04FEAD37C0CEB4C0526FA05F622
:101EE00006F00706B6F1040C06D20EEB860CBDE830
:101EF00070404CF0010C6047DFE80CF0090B020267
:101F00004FF000414FF00000A1F5002170BD1946CF
:101F10001046012851EB010418BFD4F5001484BF0A
:101F2000002001F0004170BD0808A0F500114FEA43
:101F30003101704710B591EA030F48BF83F00043A9
:101F40003FF504AF841A71EB030C07D212198CF021
:101F5000004C43EB0C03001B61EB0C01DFF8A4E128
:101F60004FEA1154A4EB135C1EEA430F18BF9EEA1C
:101F7000445F00F0B08023EA6E03524221EA04512C
:101F8000C3EB6E0338BF5B1EDCF1200E25D322FAB3
:101F90000CFE10EB0E0043FA0CFE41EB0E01CCF1EF
:101FA000200E03FA0EFE10EB0E0051F10001CCF1F1
:101FB000200E29D412FA0EF201EB0451BDE81040B4
:101FC00058BF7047401C1CBFB2F1004F704700283B
:101FD0000CBF491C20F00100704712EB020E43EBCE
:101FE000030218BF4FF0010E4EEA4202ACF1200C82
:101FF000DCF11E0E54D943FA0CFE10EB0E0051F129
:10200000FF31CCF11E0ED5D50EF1010E12FA0EFEE7
:10201000404141EB010101EB445C5FEA5C5C10D99B
:1020200010EBDE7001EB045138BFBEF1004FBDE88C
:10203000104018BF704700280CBF491C20F0010059
:10204000704730D24FEAD42C11F5001124F400640B
:102050001BD0B1FA81F20B3AA41AA41ED2F12003CC
:10206000914030FA03F31943904001EBCC71002CFE
:1020700001EB0451BDE81040A8BF704701F1C04119
:102080004FF0000001F000417047B0FA80F310FA01
:1020900003F100D110BDE41A173C4805C90AE4E772
:1020A00001EB045110BD491001EB0451BDE8104093
:1020B0004FEA300002E04FF0000170474A0008BFCD
:1020C0000042F8D0B2F5001F28BF704701F0004170
:1020D0004FF0000070479EEA445F07D011EA5E0FA0
:1020E000BDE8104004BF002100207047BDE810404B
:1020F00070B5FFF7CBFE00BF40DFF63E83F0004136
:10210000104670470000E0FF43004FEAD30C4FEA4F
:102110003C0C43401FBF40070CF1605113F0FE4FD1
:1021200070471CF0006F03D100200CF00041704795
:102130000CF0004343EA507010B540EACC0000F0C8
:10214000B0F800BF000000924FEA0001FFF7ECBEBC
:102150004FF000414FF00000A1F500217047000052
:10216000C10DD1F19E0206DB4FEA002343F000438C
:1021700023FA02F07047004207D54FEA4001B1F15F
:10218000FE4F02D24FF00000704710B500F089F802
:1021900049922480002070476FEA200070470000B9
:1021A0004FF47F0C1CEAD0121EBF1CEAD11392EA36
:1021B0000C0F93EA0C0F00F0478090EA010F48BF24
:1021C00042F480724FF0004C4CEA00204CEA0121AE
:1021D00002EB0302A0FB0113A2F50002002918BFC5
:1021E00043F001035B0028BF4FEA330342EB224276
:1021F0005FEA132C4CEBC2502EBFBCEB436FB2F521
:102200007C0F70474FEA036CBCF1004F08BF20F011
:102210000100B2F57C0F38BF70470BD582F0FF028A
:1022200012F5803FC8BF704700F1C040D8BF00F032
:102230000040704700F5000C5FEA4C0C48BF704747
:10224000B0F1C04000F073B890EA010F0CEAD1136E
:1022500048BF42F48072624538BF634504D280EAC9
:10226000010000F00040704710B500F01AF800BF00
:102270008900013E00F007B800F009B85FEA410CA0
:102280005FEA1C6C08D080EA010000F050B85FEAF9
:10229000400C5FEA1C6CF6D14FF00040A0F58000C6
:1022A00070470EF1020E2EF0030E5EF8044B24422E
:1022B00004D44FEA4102B2F17F4F11D84FEA4003F4
:1022C000B3F17F4F0CD80ED14FEAD07CB2F17F4FE3
:1022D0000CEB4C0C0CF1020C08BF4CEBD17C04E075
:1022E0004FF0080C01E04FEAD17C0CEB4C0324FAD0
:1022F00003F404F00704B4F1040C06D20EEB840CD2
:10230000BDE810404CF0010C6047DFE80CF0070816
:1023100002024FF00040A0F5800010BD08464200C8
:1023200018BFD2F1807288BF00F0004010BDFF21BD
:1023300041EAD050C0057047FFFFFFFFFFFFFFFFDE
:10234000FFFFFFFFFFFFFFFFFFFFFFFFFFFFFFFF9D
:10235000FFFFFFFFFFFFF7BEFFFFFFDEC6388C92D7
:102360006B8E6B6E7C10AD96E73CFFFFFFFFFFFFAF
:10237000FFFFFFFFFFFFFFFFFFFFFFFFFFFFFFFF6D
:10238000FFFFFFFFFFFFFFFFFFFFFFFFFFFFFFFF5D
:10239000FFFFFFFFFFFFFFFFFFFFFFFFFFFFFFFF4D
:1023A000FFFFFFFFFFFFEF5D9D15634F426C320A99
:1023B000298819461925214531E86B8EC638FFFF5B
:1023C000FFFFFFFFFFFFFFFFFFFFFFFFFFFFFFFF1D
:1023D000FFFFFFFFFFFFFFFFFFFFFFFFFFFFFFFF0D
:1023E000FFFFFFFFFFFFFFFFFFFFFFFFFFFFFFFFFD
:1023F000FFFFFFFFA53653104B1053514B0F3A6CA4
:1024000031E92167192510E408A30062088352CB43
:10241000D69AFFFFFFFFFFFFFFFFFFFFFFFFFFFF5A
:10242000FFFFFFFFFFFFFFFFFFFFFFFFFFFFFFFFBC
:10243000FFFFFFFFFFFFFFFFFFFFFFFFFFFFFFFFAC
:10244000E73C637063B37CB863F54311324D29EA0E
:1024500021881926190519051104110410E40083B7
:1024600008A38C72FFFFFFFFFFFFFFFFFFFFFFFFCF
:10247000FFFFFFFFFFFFFFFFFFFFFFFFFFFFFFFF6C
:10248000FFFFFFFFFFFFFFFFFFFFFFFFFFFFDEDBA1
:102490003A4B42F06C354B5432B12A2E21EB21A934
:1024A0001967190511041104110411041104190507
:1024B00010E4004273AFFFFFFFFFFFFFFFFFFFFFCE
:1024C000FFFFFFFFFFFFFFFFFFFFFFFFFFFFFFFF1C
:1024D000FFFFFFFFFFFFFFFFFFFFFFFFEF5D320981
:1024E000324C4B10328F2A4F2A2E19CC1989218950
:1024F000194719051104110410C410C41104110462
:10250000110410E400428431FFFFFFFFFFFFFFFFD3
:10251000FFFFFFFFFFFFFFFFFFFFFFFFFFFFFFFFCB
:10252000FFFFFFFFFFFFFFFFFFFFFFFF52EC194719
:10253000324C2A0B21EC21EC220C5B914AEE110665
:102540001926190410E410E429A7216608A3190527
:102550001104110410E40082BDF7FFFFFFFFFFFF2D
:10256000FFFFFFFFFFFFFFFFFFFFFFFFFFFFFFFF7B
:10257000FFFFFFFFFFFFFFFFFFFFA5350883218857
:102580002188218921AA218A426B8C71FFFF8C72DC
:102590000883110408C44229DEFBEF5D5AEC08836E
:1025A000110411041104088331E8FFDFFFFFFFFF6E
:1025B000FFFFFFFFFFFFFFFFFFFFFFFFFFFFFFFF2B
:1025C000FFFFFFFFFFFFFFFFF7BE31C710C4192554
:1025D00019261947194729A8528A4A28AD55FFFFDD
:1025E00031E808A319056B4D6B4DFFFFEF7D2145C9
:1025F00010C41104110411040062AD76FFFFFFFF47
:10260000FFFFFFFFFFFFFFFFFFFFFFFFFFFFFFFFDA
:10261000FFFFFFFFFFFFFFFFB596006211041904E3
:102620001105190508C44A8BB5B6EF5DBDF7FFFF6C
:102630006B8E006242295AAA4208FFFFFFFF52CC6C
:10264000088311041104110408A352ADFFFFFFFF1A
:10265000FFFFFFFFFFFFFFFFFFFFFFFFFFFFE71C85
:10266000FFFFFFFFFFFFFFFF634E00621104110435
:10267000110410E40062638EFFFFFFFFFFFFFFFF06
:1026800073CF00019CF3632CB596FFFFFFFF5B2D1A
:10269000008311041104110410E42167EF3DFFFFD2
:1026A000FFFFFFFFFFFFFFFFBDF8B5B7EF9E52CB67
:1026B00094B3FFFFFFFFFFDF31E808A3110411040B
:1026C0001104110408A34249F7FFF7FFFFFFFFFFC2
:1026D0004A6A00018472FFFFFFFFF7FFEFDF3A094C
:1026E00008A311041104110411041105BE18FFFF01
:1026F000FFFFFFFFFFFFFFFF7BF0006231E831C704
:102700000041A535FFFFEF5D214610C411041104FF
:102710001104110410E408A39D76F7FFFFFFADB785
:1027200008A308A331C7E79EF7FFF7FFA57608A324
:1027300010E411041104110411051105A535FFFF62
:10274000FFFFFFFFFFFFFFFFDEDB29A7008310C4B1
:1027500010C410C4E71CEF9E110510E4110411040D
:1027600011041104190408C410E56BD16BD108C51C
:10277000006408A50043322B9D7784B3192510C44B
:102780001104110411041104192509269D35FFFFB8
:10279000FFFFFFFFFFFFFFFFFFFF73AF00621904A2
:1027A000190500825B0D9B8E106211051104110446
:1027B000190410E40085110539C45A817B409C221C
:1027C000AC43A4039B837282498218C200A400C553
:1027D00010E4190411041905194711675AECFFBEDA
:1027E000FFFFFFFFFFFFFFFFFFDFDEDB10C410E492
:1027F0001104110518A4C001888300E41905190407
:1028000008C521448343D523FE42FEE4FF27FF078A
:10281000FEA4FE64FE03FDA3FCE2EC42B38362244B
:1028200010E508C41904192619A821879000BCD303
:10283000FFFFFFFFFFFFFFFFFFDFFFFF7C100042F6
:10284000190511052883D001F84448A300E408C500
:102850005A44ED02FDE2FE02FE66FF74FFB8FF730C
:10286000F6E7F6A6F645F5A4FCC3FC62FCC2FCC282
:10287000CBE349C411061988018790A4F8019AECAA
:10288000FFFFFFFFFFFFFFFFFFFFFFFFF7BE31E886
:10289000008309054082C001F823F08548A300A405
:1028A0005A44FD02CC23DCC2FE04FE28F648F6465C
:1028B000F624F5E4FD64FCE3FC62FCC2E402DC0205
:1028C000FCE27AA40148016778C4F824F802B084D5
:1028D000E77DFFFFFFFFFFFFFFFFFFFFFFFFDEDBE7
:1028E000192500A338C4E002D822F844F8A678A439
:1028F00000632143728339839B82F521FD61FD22B0
:10290000FCE2FCA2FC42FC42FC42AB22418392C3AB
:1029100052040126192598A4F844F823F802D0A4FB
:10292000EF9EFFFFFFFFFFFFFFFFFFFFFFFFFFFF28
:10293000D69A298700A5B843F822E023F865F8E87D
:10294000C9074883004200A3008429637AA2B362C6
:10295000CBA2D362BB028A82398300A400E500E5E2
:1029600008E560C4D864F844F824F823F8028883A2
:10297000C6DBFFFFFFFFFFFFFFFFFFFFFFFFFFFFC4
:10298000FFFFE73D5B503108E823F843F044F8656A
:10299000F909F9ABD189890648A31842000200421F
:1029A0000061008200620062008320A350C488A5F9
:1029B000D885F865F844F844F823F823D00310824A
:1029C00029C7EF5DFFFFFFFFFFFFFFFFFFFFFFFFD7
:1029D000FFFFFFFFFFFF326C38A5D802F823F86530
:1029E000F866F8A7F94AFA0CFA4DEA4CD20BB9A9E5
:1029F000B168A947B127B907D107E8E7F8C7F8A731
:102A0000F865F865F844F823F803D00228A309050F
:102A100008C45AECFFFFFFFFFFFFFFFFFFFFFFFFB0
:102A2000FFFFFFFFDEFB190500C441A7C0E6F80366
:102A3000F886F8A7F887F886F8C7F929F98AF9AB74
:102A4000F9ABF98BF96AF929F908F8C7F8A6F886FD
:102A5000F865F864F823F002B106292500E410E4D3
:102A6000192519259D14FFFFFFFFFFFFFFFFFFFF43
:102A7000FFFFFFFFAD96006208829535CEBAA28BAC
:102A8000D044F825F887F8A7F8C7F8A7F887F8869C
:102A9000F886F886F887F8A7F8A7F8A6F885F86505
:102AA000F864F024B864930DB6BB63CF08831104B7
:102AB00010E421663A49EF5DFFFFFFFFFFFFFFFFD4
:102AC000FFFFFFFF94D3004210E4CEBBFFFFE7BE41
:102AD000B576AACCC107E045F845F846F866F88611
:102AE000F886F886F886F865F845F865E865D04414
:102AF000A84388019082D73CEFFF955508831104C5
:102B000011041905194694B3FFFFFFFFFFFFFFFFF4
:102B1000FFFFFFFF94B300412186DF5DFFFFFFFF52
:102B2000FFFFE7DFC67AB4D3B34EC22AD168E0E62E
:102B3000E8A6E8A5E8A5D8E6C988A906A822A802BB
:102B4000A000C800D800E5F7E7FFADF810C410E416
:102B5000110410E411054A8BFFFFFFFFFFFFFFFF89
:102B6000FFFFFFFFA555004129A7DF5DF7FFFFFF2E
:102B7000FFFFFFFFFFFFFFFFEFFFDF7DCEDBCE5943
:102B8000CDF8CDD7C5F7CE79BEFBA2ABF003F845A3
:102B9000D042E843F000D472DFFFAE3910E410E415
:102BA000110410E411052987FFFFFFFFFFFFFFFF5E
:102BB000FFFFFFFFCE5908832146D71CF7FFFFFF19
:102BC000FFFFFFFFFFFFFFFFFFFFFFFFFFFFFFFF15
:102BD000FFFFFFFFFFFFFFFFEFFFBA8BF804F84591
:102BE000E062F044F800DB8EDFFFA5F810C410E4CB
:102BF00010E4110410E41925FFFFFFFFFFFFFFFFA2
:102C0000FFFFFFFFF7BE29870883B639F7FFF7DF1D
:102C1000FFFFFFFFFFFFFFFFFFFFFFFFFFFFFFFFC4
:102C2000FFFFFFFFFFFFFFFFE7BEBA4AF803F845CB
:102C3000F864F844F800E36ED7FF8CF408831104BD
:102C400010E410E410E41905FFFFFFFFFFFFFFFF92
:102C5000FFFFFFFFFFFF73EF00008472EFFFEFBE87
:102C6000FFDFFFFFFFFFFFFFFFFFFFFFFFFFFFFF94
:102C7000FFFFFFFFFFFFFFFFE7DFBA8BF803F84519
:102C8000F845F823F800D4D3D7FF5B4E00213A294A
:102C9000A555088310C41925FFFFFFFFFFFFFFFFA5
:102CA000FFFFFFFFFFFFDEFB08A331E8DF9EE79E8B
:102CB000EFBFFFFFFFFFFFFFFFFFFFFFFFFFFFFF74
:102CC000FFFFFFFFFFFFFFFFF7FFBC51E002F8032C
:102CD000F003E043C2ECCF7EBEFC2146002194D33A
:102CE000FFFF845100002987FFFFFFFFFFFFFFFF69
:102CF000FFFFFFFFFFFFFFFF845100008CF4EFFF99
:102D0000E79EEFBFFFDFFFFFFFFFFFFFFFFFFFFFBC
:102D1000FFFFFFFFFFFFFFFFFFFFDF3DBD55BC5281
:102D2000BC72B5B7C75DDFFF6BF000003A09F7BFB3
:102D3000FFFFFFFF9D14A555FFFFFFFFFFFFFFFFF4
:102D4000FFFFFFFFFFFFFFFFFFFF4AAC08A4BEBB72
:102D5000E7DFE77EEFBEF7DFFFDFFFFFFFFFFFFFED
:102D6000FFFFFFFFFFFFFFFFFFDFF7DFEFFFDFDF0B
:102D7000D7BFD79EDFDFA5D808831126D6DBFFFF9C
:102D8000FFFFFFFFFFFFFFFFFFFFFFFFFFFFFFFF53
:102D9000FFFFFFFFFFFFFFFFEE79DC8B312121A951
:102DA000CF3DDFBFDF7EE79EEFBEEFBFF7DFF7DF90
:102DB000F7DFF7DFF7DFEFBFEFBEE79EDF7ED75E1F
:102DC000D75EDFDFB69A19260842A3EDFFBFFFFFEB
:102DD000FFFFFFFFFFFFFFFFFFFFFFFFFFFFFFFF03
:102DE000FFFFFFFFFFFFDD74DBC0FE00EE4242028B
:102DF0002189B67BDFDFD77EDF7EDF7EE79EE79E21
:102E0000E79EE79EE79EDF7EDF7ED75DD75DDF9E94
:102E1000E7FFA5F8110718E3C502FD60D3E6EEDB76
:102E2000FFFFFFFFFFFFFFFFFFFFFFFFFFFFFFFFB2
:102E3000FFFFFFFFF79EBA84FCC1FE42FE82FEA2A6
:102E4000838121457474C75EDFDFD77ED75ED75D8F
:102E5000D75ED75ED75DD75DD75EDF9EE7FFC73D04
:102E600063F108845242E626FF29FE86F3E0C36A36
:102E7000FFFFFFFFFFFFFFFFFFFFFFFFFFFFFFFF62
:102E8000FFFFFFFFDE18D2C1FDA2FE22FE42FE427E
:102E9000FE62D4E26A4142497453A63BC73ED7BFA3
:102EA000D7BFD7BFDFBFD7BFC73EA61A63F229A7D8
:102EB0004182B422FE62FE83FEAAFF0FFD67BA6361
:102EC000EF3CFFFFFFFFFFFFFFFFFFFFFFFFFFFFE5
:102ED000FFFFFFFFE69AD280FD21FDC2F5E2F5C2B9
:102EE000F582FD82FD62DC619B216A846AE9632CC4
:102EF00063AF7411636E632C5A8952047A81CBC21A
:102F0000FCE2FD62FD82FDC2FDC2FDE4FD24CA6259
:102F1000E71CFFFFFFFFFFFFFFFFFFFFFFFFFFFFBC
:102F2000FFFFFFFFFFFFCCB1D281F3C0FCC1FD0268
:102F3000FD02FCE2FCC2FCC2FC81FB80C9C081A492
:102F4000AD35CE599C718121DA00FBA1FC82FCA237
:102F5000FC82FCA2FD02FD22FCE2FC00DA60CC90C7
:102F6000FFFFFFFFFFFFFFFFFFFFFFFFFFFFFFFF71
:102F7000FFFFFFFFFFFFFFFFDE59C40DCB06D2E4CA
:102F8000DB03DB03DAE3D2C3C2A4B309BCD2F79EEE
:102F9000FFFFFFFFFFFFE6FBB40EBAA6D283E2E31A
:102FA000EB02EB22E322DB03D2E4C36AD5B6FFFFD8
:102FB000FFFFFFFFFFFFFFFFFFFFFFFFFFFFFFFF21
:102FC000FFFFFFFFFFFFFFFFFFFFFFFFFFFFFFFF11
:102FD000FFFFFFFFFFFFFFFFFFFFFFFFFFFFFFFF01
:102FE000FFFFFFFFFFFFFFFFFFFFFFFFFFFFFFFFF1
:102FF000FFFFFFFFFFFFFFFFFFFFFFFFFFFFFFFFE1
:10300000FFFFFFFFFFFFFFFFFFFFFFFFFFFFFFFFD0
:10301000FFFFFFFFFFFFFFFFFFFFFFFFFFFFFFFFC0
:10302000FFFFFFFFFFFFFFFFFFFFFFFFFFFFFFFFB0
:10303000FFFFFFFFFFFFFFFFFFFFFFFFFFFFFFFFA0
:10304000FFFFFFFFFFFFFFFFFFFFFFFFFFFFFFFF90
:10305000FFFFFFFFFFFFFFFFFFFFFFFFFFFFFFFF80
:10306000FFFFFFFFFFFFFFFFF7FFF7FFF7FFFFFF88
:10307000FFFFFFFFFFFFFFFFFFFEFFFEFFFEFFFE64
:10308000FFFEFFFEFFFEFFFEFFFEFFFEFFFFFFFF56
:10309000FFFFF7FFEFDFE7DFDF3DDF3CD71CD6DBCD
:1030A000CEDBCEDBCEDBCEFBC65AC67BCEBCD6FD9E
:1030B000D6FDD6FDDF3EEF9FF7FFF7FFF7FFFFFFDF
:1030C000FFFFFFFFFFFFFFFFFFDEFFFFFFFFFFFF31
:1030D000FFDFFFFFFFDFFFDFF7FFF7FFFFFFFFFF70
:1030E000FFFFFFFFFFFFFFFFFFFFFFFFFFFFFFFFF0
:1030F000FFFFFFFFFFFFFFFFFFFFFFFFFFFFFFFFE0
:10310000FFFFFFFFFFFFFFFFFFFFFFFFFFFFFFFFCF
:10311000FFFFFFFFFFFFFFFFFFFFFFFFFFFFFFFFBF
:10312000FFFFFFFFFFFFFFFFFFFFFFFFFFFFFFFFAF
:10313000FFFFFFFFFFFFFFFFFFFFFFFFFFFFFFFF9F
:10314000FFFFFFFFFFFFFFFFFFFFFFFFFFFFFFFF8F
:10315000FFFFFFFFFFFFFFFFFFFFFFFFFFFFFFFF7F
:10316000FFFFFFFFFFFFFFFFFFFFFFFFFFFFFFFF6F
:10317000FFFFFFFFFFFFFFFFFFFFFFFFFFFFFFFF5F
:10318000FFFFFFFFFFFFFFFFFFFFFFFFFFFFFFFF4F
:10319000FFFFFFFFFFFFFFFFFFFFFFFFFFFFFFFF3F
:1031A000FFFFFFFFFFFFFFFFFFFFFFFFFFFFFFFF2F
:1031B000FFFFFFFFFFFFFFFFFFFFFFFFFFFFFFFF1F
:1031C000FFFFFFFFFFFFFFFFFFFFFFFFFFFFFFFF0F
:1031D000FFFFFFFFFFFFFFFFFFFFFFFFFFFFFFFFFF
:1031E000FFFFFFFFFFFFFFFFFFFFFFFFFFFFFFFFEF
:1031F000FFFFFFFFFFFFFFFFFFFFFFFFFFFFFFFFDF
:10320000FFFFFFFFFFFFFFFFFFFFFFFFFFFFFFFFCE
:10321000FFFFFFFFFFFFFFFFFFFFFFFFFFFFFFFFBE
:10322000FFFFFFFFFFFFFFFFFFDFFFFFFFFFFFFFCE
:10323000FFFFFFFFFFFFFFFFFFFFFFFFFFFFFFFF9E
:10324000FFFFFFFFFFFFFFFFFFFFFFFFFFFFFFFF8E
:10325000FFFFFFFFFFDFFFDFFFDFFFDFFFFFFFFFFE
:10326000FFFFEFBFDF5FD71EB67BAE3A9DB98D572C
:103270007CF674B664745C34541454144BF44BF3FD
:103280004BF343F34BF44C144BD34BD34BF354134A
:103290004C134C1354345C5564746C756C957CD62B
:1032A0008D379DB9AE3ABE7BD71DE79FF7FFFFFF75
:1032B000FFFFFFFFFFFFFFFFFFFFFFFFFFDFFFDF5E
:1032C000FFDFFFFFFFFFFFFFFFDFFFDFFFFFFFFF6E
:1032D000FFFFFFFFFFFFF7DFFFFFFFFFFFFFFFFF26
:1032E000FFDFFFDFFFFFFFFFFFFFFFFFFFFFFFFF2E
:1032F000FFFFFFFFFFFFFFFFFFFFFFFFFFFFFFFFDE
:10330000FFFFFFFFFFFFFFFFFFFFFFFFFFFFFFFFCD
:10331000FFFFFFFFFFFFFFFFFFFFFFFFFFFFFFFFBD
:10332000FFFFFFFFFFFFFFFFFFFFFFFFFFFFFFFFAD
:10333000FFFFFFFFFFFFFFFFFFFFFFFFFFFFFFFF9D
:10334000FFFFFFFFFFFFFFFFFFFFFFFFFFFFFFFF8D
:10335000FFFFFFFFFFFFFFFFFFFFFFFFFFFFFFFF7D
:10336000FFFFFFFFFFFFFFFFFFFFFFFFFFFFFFFF6D
:10337000FFFFFFFFFFFFFFFFFFFFFFFFFFFFFFFF5D
:10338000FFFFFFFFFFFFFFFFFFFFFFFFFFFFFFFF4D
:10339000FFFFFFFFFFFFFFFFFFFFFFFFFFFFFFFF3D
:1033A000FFFFFFFFFFFFFFFFFFFFFFFFFFFFFFFF2D
:1033B000FFFFFFFFFFFFFFFFFFFFFFFFFFFFFFFF1D
:1033C000FFFFFFFFFFFFFFFFFFFFFFFFFFFFFFFF0D
:1033D000FFFFFFFFFFFFFFFFFFFFFFFFFFFFFFFFFD
:1033E000FFFFFFFFFFFFFFFFFFFFFFFFFFFFFFFFED
:1033F000FFFFFFFFFFFFFFFFFFFFFFFFFFFFFFFFDD
:10340000FFFFFFFFFFFFFFFFFFFFFFFFFFFFFFFFCC
:10341000FFFFFFFFFFFFFFFFFFFFFFFFFFFFFFFFBC
:10342000FFFFFFFFFFFFFFFFFFBFFFDFFFDFFFFF2C
:10343000FFFFFFFFFFFFFFFFDF7FCEDDAE1B9579B4
:103440007CF76C765C35541543F543D43BB43BB400
:1034500043D443F5441544154458445844584458FB
:10346000445844583C583C5844773C573C57445780
:103470004477447744774477441743F63BD53BD5AC
:103480003BD43BD43BF443F44BD35C5474B6851625
:103490009577B63ADF5EF7FFFFFFFFFFFFFFFFFF05
:1034A000FFFFFFFEFFFEFFFEFFFFFFFFFFFFFFFF2F
:1034B000FFFFFFFFFFFFFFFFFFFFFFFFFFFFFFFF1C
:1034C000FFFFFFDFFFFFFFFFFFFFFFFFFFFFFFFF2C
:1034D000FFFFFFFFFFFFFFFFFFFFFFFFFFFFFFFFFC
:1034E000FFFFFFFFFFFFFFFFFFFFFFFFFFFFFFFFEC
:1034F000FFFFFFFFFFFFFFFFFFFFFFFFFFFFFFFFDC
:10350000FFFFFFFFFFFFFFFFFFFFFFFFFFFFFFFFCB
:10351000FFFFFFFFFFFFFFFFFFFFFFFFFFFFFFFFBB
:10352000FFFFFFFFFFFFFFFFFFFFFFFFFFFFFFFFAB
:10353000FFFFFFFFFFFFFFFFFFFFFFFFFFFFFFFF9B
:10354000FFFFFFFFFFFFFFFFFFFFFFFFFFFFFFFF8B
:10355000FFFFFFFFFFFFFFFFFFFFFFFFFFFFFFFF7B
:10356000FFFFFFFFFFFFFFFFFFFFFFFFFFFFFFFF6B
:10357000FFFFFFFFFFFFFFFFFFFFFFFFFFFFFFFF5B
:10358000FFFFFFFFFFFFFFFFFFFFFFFFFFFFFFFF4B
:10359000FFFFFFFFFFFFFFFFFFFFFFFFFFFFFFFF3B
:1035A000FFFFFFFFFFFFFFFFFFFFFFFFFFFFFFFF2B
:1035B000FFFFFFFFFFFFFFFFFFFFFFFFFFFFFFFF1B
:1035C000FFFFFFFFFFFFFFFFFFFFFFFFFFFFFFFF0B
:1035D000FFFFFFFFFFFFFFFFFFFFFFFFFFFFFFFFFB
:1035E000FFFFFFFFFFFFFFFFFFFFFFFFFFFFFFFFEB
:1035F000FFFFFFFFFFFFFFFFFFFFFFFFFFFFFFFFDB
:10360000FFFFFFFFFFFFFFFFFFFFFFFFF7FFE7BE2B
:10361000CF3CAE598D7674D454554C1443F443D4F6
:1036200043F5441544564C774C574C574436441692
:1036300043F543D43BB33B933B523B523B523B326B
:103640003332333133313331333233323332333255
:1036500033533B733B733B733BD53BD544164436E6
:10366000445744774C774C9844564436441543D3DA
:103670003B92439253D25C1384D59577BE7BE79FF0
:10368000F7FFFFFFFFFFFFFFFFDFFFDEFFDFFFFFB3
:10369000FFFFFFFFFFFFFFFFFFFFFFDFFFFFFFFF5A
:1036A000FFFFFFFFFFFFFFFFFFFFFFFFFFFFFFFF2A
:1036B000FFFFFFFFFFFFFFFFFFFFFFFFFFFFFFFF1A
:1036C000FFFFFFFFFFFFFFFFFFFFFFFFFFFFFFFF0A
:1036D000FFFFFFFFFFFFFFFFFFFFFFFFFFFFFFFFFA
:1036E000FFFFFFFFFFFFFFFFFFFFFFFFFFFFFFFFEA
:1036F000FFFFFFFFFFFFFFFFFFFFFFFFFFFFFFFFDA
:10370000FFFFFFFFFFFFFFFFFFFFFFFFFFFFFFFFC9
:10371000FFFFFFFFFFFFFFFFFFFFFFFFFFFFFFFFB9
:10372000FFFFFFFFFFFFFFFFFFFFFFFFFFFFFFFFA9
:10373000FFFFFFFFFFFFFFFFFFFFFFFFFFFFFFFF99
:10374000FFFFFFFFFFFFFFFFFFFFFFFFFFFFFFFF89
:10375000FFFFFFFFFFFFFFFFFFFFFFFFFFFFFFFF79
:10376000FFFFFFFFFFFFFFFFFFFFFFFFFFFFFFFF69
:10377000FFFFFFFFFFFFFFFFFFFFFFFFFFFFFFFF59
:10378000FFFFFFFFFFFFFFFFFFFFFFFFFFFFFFFF49
:10379000FFFFFFFFFFFFFFFFFFFFFFFFFFFFFFFF39
:1037A000FFFFFFFFFFFFFFFFFFFFFFFFFFFFFFFF29
:1037B000FFFFFFFFFFFFFFFFFFFFFFFFFFFFFFFF19
:1037C000FFFFFFFFFFFFFFFFFFFFFFFFFFFFFFFF09
:1037D000FFFFFFFFFFFFFFFFFFFFFFDFFFDFFFDF59
:1037E000FFDFFFFFFFFFFFFFC73DA65A855664744A
:1037F0004C134BF443F443F54457445644364C368B
:1038000044153BB333722B3132F032CF2AAE2A8DBE
:103810002A4C222B19EA19C92188218819671947CE
:10382000194719471947194711471968196819683D
:10383000198821A921A921C9222B222B224C228DB2
:103840002AAF2AF0333233523BD43BF544364C771F
:1038500054974C774C564C563BD43B9343B354143B
:103860006C958D78BEBCDF9FFFFFFFFFFFFFFFFF62
:10387000FFDEFFBEFFDFFFFFFFFFFFFFFFFFFFFFDA
:10388000FFFFFFFFFFFFFFFFFFFFFFFFFFFFFFFF48
:10389000FFFFFFFFFFFFFFFFFFFFFFFFFFFFFFFF38
:1038A000FFFFFFFFFFFFFFFFFFFFFFFFFFFFFFFF28
:1038B000FFFFFFFFFFFFFFFFFFFFFFFFFFFFFFFF18
:1038C000FFFFFFFFFFFFFFFFFFFFFFFFFFFFFFFF08
:1038D000FFFFFFFFFFFFFFFFFFFFFFFFFFFFFFFFF8
:1038E000FFFFFFFFFFFFFFFFFFFFFFFFFFFFFFFFE8
:1038F000FFFFFFFFFFFFFFFFFFFFFFFFFFFFFFFFD8
:10390000FFFFFFFFFFFFFFFFFFFFFFFFFFFFFFFFC7
:10391000FFFFFFFFFFFFFFFFFFFFFFFFFFFFFFFFB7
:10392000FFFFFFFFFFFFFFFFFFFFFFFFFFFFFFFFA7
:10393000FFFFFFFFFFFFFFFFFFFFFFFFFFFFFFFF97
:10394000FFFFFFFFFFFFFFFFFFFFFFFFFFFFFFFF87
:10395000FFFFFFFFFFFFFFFFFFFFFFFFFFFFFFFF77
:10396000FFFFFFFFFFFFFFFFFFFFFFFFFFFFFFFF67
:10397000FFFFFFFFFFFFFFFFFFFFFFFFFFFFFFFF57
:10398000FFFFFFFFFFFFFFFFFFFFFFFFFFFFFFFF47
:10399000FFFFFFFFFFFFFFFFFFFFFFFFFFFFFFFF37
:1039A000FFFFFFFFFFFFFFFFFFFFFFFFFFFFFFFF27
:1039B000FFDFFFFFFFFFFFFFFFFFFFFFFFFFFFFF37
:1039C000E79FBE9B955674734C1443D443D443F580
:1039D0004C174C3743F73BB63B73333132D0328F01
:1039E0002A4D21EB21A9218811261106110508E491
:1039F00008A4088308820882086208620041004126
:103A0000004108410841084200400861086108611E
:103A1000004108610861088108A208A208C308C41F
:103A2000090611271968198911EB1A2C228E2AF020
:103A3000333133933BD444164C994478445744363D
:103A400043F43B9343924BD384D4A5D8CF1DF7FFC7
:103A5000FFFFFFFFFFFFFFDFFFFFFFFFFFFFFFDFB6
:103A6000FFFFFFFFFFFFFFFFFFFFFFFFFFFFFFFF66
:103A7000FFFFFFFFFFFFFFFFFFFFFFFFFFFFFFFF56
:103A8000FFFFFFFFFFFFFFFFFFFFFFFFFFFFFFFF46
:103A9000FFFFFFFFFFFFFFFFFFFFFFFFFFFFFFFF36
:103AA000FFFFFFFFFFFFFFFFFFFFFFFFFFFFFFFF26
:103AB000FFFFFFFFFFFFFFFFFFFFFFFFFFFFFFFF16
:103AC000FFFFFFFFFFFFFFFFFFFFFFFFFFFFFFFF06
:103AD000FFFFFFFFFFFFFFFFFFFFFFFFFFFFFFFFF6
:103AE000FFFFFFFFFFFFFFFFFFFFFFFFFFFFFFFFE6
:103AF000FFFFFFFFFFFFFFFFFFFFFFFFFFFFFFFFD6
:103B0000FFFFFFFFFFFFFFFFFFFFFFFFFFFFFFFFC5
:103B1000FFFFFFFFFFFFFFFFFFFFFFFFFFFFFFFFB5
:103B2000FFFFFFFFFFFFFFFFFFFFFFFFFFFFFFFFA5
:103B3000FFFFFFFFFFFFFFFFFFFFFFFFFFFFFFFF95
:103B4000FFFFFFFFFFFFFFFFFFFFFFFFFFFFFFFF85
:103B5000FFFFFFFFFFFFFFFFFFFFFFFFFFFFFFFF75
:103B6000FFFFFFFFFFFFFFFFFFFFFFFFFFFFFFFF65
:103B7000FFFFFFFFFFFFFFFFFFFFFFFFFFFFFFFF55
:103B8000FFFFFFFFFFFFFFFFFFFFFFFFFFFFFFFF45
:103B9000FFFFFFFFFFFFFFDFF7FFDF5EAE1A8516B7
:103BA0006C955C544C1443F45C7754364BF543B439
:103BB00043733B112A8F224E21CA1968192710E539
:103BC00010A40863082108210841004100210020B9
:103BD00000200020082008410061006100410041F0
:103BE0000041084108420842004108610861004064
:103BF0000020004100410041002000400041004100
:103C00000041084208620862006300A308E511262B
:103C1000118819CA222C2AAE2B1033513BB343F41E
:103C20004C354C364C5654773BB23BB24BD26C942D
:103C30009DB8CEDDEFDFFFFFF7BEFFFFFFFFFFDF29
:103C4000FFFFFFFFFFFFFFFFFFFFFFFFFFFFFFFF84
:103C5000FFFFFFFFFFFFFFFFFFFFFFFFFFFFFFFF74
:103C6000FFFFFFFFFFFFFFFFFFFFFFFFFFFFFFFF64
:103C7000FFFFFFFFFFFFFFFFFFFFFFFFFFFFFFFF54
:103C8000FFFFFFFFFFFFFFFFFFFFFFFFFFFFFFFF44
:103C9000FFFFFFFFFFFFFFFFFFFFFFFFFFFFFFFF34
:103CA000FFFFFFFFFFFFFFFFFFFFFFFFFFFFFFFF24
:103CB000FFFFFFFFFFFFFFFFFFFFFFFFFFFFFFFF14
:103CC000FFFFFFFFFFFFFFFFFFFFFFFFFFFFFFFF04
:103CD000FFFFFFFFFFFFFFFFFFFFFFFFFFFFFFFFF4
:103CE000FFFFFFFFFFFFFFFFFFFFFFFFFFFFFFFFE4
:103CF000FFFFFFFFFFFFFFFFFFFFFFFFFFFFFFFFD4
:103D0000FFFFFFFFFFFFFFFFFFFFFFFFFFFFFFFFC3
:103D1000FFFFFFFFFFFFFFFFFFFFFFFFFFFFFFFFB3
:103D2000FFFFFFFFFFFFFFFFFFFFFFFFFFFFFFFFA3
:103D3000FFFFFFFFFFFFFFFFFFFFFFFFFFFFFFFF93
:103D4000FFFFFFFFFFFFFFFFFFFFFFFFFFFFFFFF83
:103D5000FFFFFFFFFFFFFFFFFFFFFFFFFFFFFFFF73
:103D6000FFFFFFFFFFFFFFFFFFFFFFFFFFFFFFFF63
:103D7000FFFFFFFFEF5DCE597CF56C745C134C13B5
:103D80004C5544773C5734373B3233112AAF222C01
:103D900019A9114608E408C3088200410020004028
:103DA00008400840084008600841084108410841AF
:103DB0000841084108410841006100620062006258
:103DC0000862086208420842086308630863084200
:103DD000086308830883086308630862086208624E
:103DE0000861086008600860104010400840084101
:103DF0000841086208A310E411261188220A2A8DBE
:103E00002B1033933BF53C3644B844B84C9743F4FD
:103E1000439153B174949557E71CFFDFFFFFFFFFF9
:103E2000FFFFFFFFFFFFFFFFFFFFFFFFFFFFFFFFA2
:103E3000FFFFFFFFFFFFFFFFFFFFFFFFFFFFFFFF92
:103E4000FFFFFFFFFFFFFFFFFFFFFFFFFFFFFFFF82
:103E5000FFFFFFFFFFFFFFFFFFFFFFFFFFFFFFFF72
:103E6000FFFFFFFFFFFFFFFFFFFFFFFFFFFFFFFF62
:103E7000FFFFFFFFFFFFFFFFFFFFFFFFFFFFFFFF52
:103E8000FFFFFFFFFFFFFFFFFFFFFFFFFFFFFFFF42
:103E9000FFFFFFFFFFFFFFFFFFFFFFFFFFFFFFFF32
:103EA000FFFFFFFFFFFFFFFFFFFFFFFFFFFFFFFF22
:103EB000FFFFFFFFFFFFFFFFFFFFFFFFFFFFFFFF12
:103EC000FFFFFFFFFFFFFFFFFFFFFFFFFFFFFFFF02
:103ED000FFFFFFFFFFFFFFFFFFFFFFFFFFFFFFFFF2
:103EE000FFFFFFFFFFFFFFFFFFFFFFFFFFFFFFFFE2
:103EF000FFFFFFFFFFFFFFFFFFFFFFFFFFFFFFFFD2
:103F0000FFFFFFFFFFFFFFFFFFFFFFFFFFFFFFFFC1
:103F1000FFFFFFFFFFFFFFFFFFFFFFFFFFFFFFFFB1
:103F2000FFFFFFFFFFFFFFFFFFFFFFFFFFFFFFFFA1
:103F3000FFFFFFFFFFFFFFFFFFFFFFFFFFDFFFDFD1
:103F4000FFFFFFFFF7FEFFFFFFDEFFFEFFFFFFDFCC
:103F5000C6DC85385C96443644384C7854985436E0
:103F600043933B1032AF2A4D298721661905006221
:103F700000410861002000200041088208820062A0
:103F800008820021088208620062086210A20861AB
:103F900008410841088208830882006200620883A1
:103FA00000420862002110A310A208620862088380
:103FB000004208830883006108830883086208427E
:103FC0000862088300420883088210C3086208A2BE
:103FD000006200620021004208410841088210C4CA
:103FE000112619882A2B3A8D3B323B5254155456D0
:103FF00054975497441533D44BD274D5AE3ADF5D01
:10400000FFFFFFFFFFFFFFFFFFFFFFDEFFFFFFFFE1
:10401000FFFFFFFFFFFFFFFFFFFFFFFFFFFFFFFFB0
:10402000FFFFFFFFFFFFFFFFFFFFFFFFFFFFFFFFA0
:10403000FFFFFFFFFFFFFFFFFFFFFFFFFFFFFFFF90
:10404000FFFFFFFFFFFFFFFFFFFFFFFFFFFFFFFF80
:10405000FFFFFFFFFFFFFFFFFFFFFFFFFFFFFFFF70
:10406000FFFFFFFFFFFFFFFFFFFFFFFFFFFFFFFF60
:10407000FFFFFFFFFFFFFFFFFFFFFFFFFFFFFFFF50
:10408000FFFFFFFFFFFFFFFFFFFFFFFFFFFFFFFF40
:10409000FFFFFFFFFFFFFFFFFFFFFFFFFFFFFFFF30
:1040A000FFFFFFFFFFFFFFFFFFFFFFFFFFFFFFFF20
:1040B000FFFFFFFFFFFFFFFFFFFFFFFFFFFFFFFF10
:1040C000FFFFFFFFFFFFFFFFFFFFFFFFFFFFFFFF00
:1040D000FFFFFFFFFFFFFFFFFFFFFFFFFFFFFFFFF0
:1040E000FFFFFFFFFFFFFFFFFFFFFFFFFFFFFFFFE0
:1040F000FFFFFFFFFFFFFFFFFFFFFFFFFFFFFFFFD0
:10410000FFFFFFFFFFFFFFFFFFFFFFFFFFFFFFFFBF
:10411000FFFFFFFFFFFFFFFFFFFFFFFFFFFFFFDFCF
:10412000FF9EFFFFFFFFF7DEF7FFE77FADD9749437
:104130005BF354345CB7549753F5437232D02A6E14
:10414000222C1989090600A5006200420001002105
:1041500010A2108208411082004100620882088289
:1041600010A3088210A308A3088308A3088210A341
:104170002945088208A310C4088308C308A408A41A
:1041800010A410A308A3426929860062086208A44B
:10419000088308A3088308A30883088310A32125A4
:1041A0000862088308A4008308820882088208A3A2
:1041B00008830883004200620841086108620062C7
:1041C0000063008400C50906116919CA2A6D32EF1F
:1041D0003B924C1544364C774C7643D343715BF29B
:1041E0008D36C69BEF9FFFFFFFFFFFFFFFFFFFFF27
:1041F000FFFFFFFFFFFFFFFFFFFFFFFFFFFFFFFFCF
:10420000FFFFFFFFFFFFFFFFFFFFFFFFFFFFFFFFBE
:10421000FFFFFFFFFFFFFFFFFFFFFFFFFFFFFFFFAE
:10422000FFFFFFFFFFFFFFFFFFFFFFFFFFFFFFFF9E
:10423000FFFFFFFFFFFFFFFFFFFFFFFFFFFFFFFF8E
:10424000FFFFFFFFFFFFFFFFFFFFFFFFFFFFFFFF7E
:10425000FFFFFFFFFFFFFFFFFFFFFFFFFFFFFFFF6E
:10426000FFFFFFFFFFFFFFFFFFFFFFFFFFFFFFFF5E
:10427000FFFFFFFFFFFFFFFFFFFFFFFFFFFFFFFF4E
:10428000FFFFFFFFFFFFFFFFFFFFFFFFFFFFFFFF3E
:10429000FFFFFFFFFFFFFFFFFFFFFFFFFFFFFFFF2E
:1042A000FFFFFFFFFFFFFFFFFFFFFFFFFFFFFFFF1E
:1042B000FFFFFFFFFFFFFFFFFFFFFFFFFFFFFFFF0E
:1042C000FFFFFFFFFFFFFFFFFFFFFFFFFFFFFFFFFE
:1042D000FFFFFFFFFFFFFFFFFFFFFFFFFFFFFFFFEE
:1042E000FFFFFFFFFFFFFFFFFFFFFFFFFFFFFFFFDE
:1042F000FFFFFFFFFFFFFFFEFFFFFFBEFFDEFFDF51
:10430000FFFFFFFFFFDFDEFC7D39647653F45C7650
:1043100064D85C5643922AF03AAD2A0B196811060C
:1043200010C4088308420841004208830862000064
:10433000000000000041108210A30882088208A338
:10434000088310E408A308C308C410C40862212429
:104350004A8A10C310C408A408C4110510E508A4B3
:1043600010C410A410A3634D426A004110A410C4ED
:1043700010C510C408A410C408A308A419253A083D
:104380000862006208C408A310E4088310C408C3CC
:1043900008A3088308A308830862088308A3088386
:1043A00000620062006200620042088408E6094878
:1043B00019EB2AAE333143D3441654985CB84C35CC
:1043C0003B924BB27CF6A63BEF7EF7FFFFFFFFFF71
:1043D000FFFFFFFFFFFFFFFFFFDEFFFFFFFFFFFF0E
:1043E000FFFFFFFFFFFFFFFFFFFFFFFFFFFFFFFFDD
:1043F000FFFFFFFFFFFFFFFFFFFFFFFFFFFFFFFFCD
:10440000FFFFFFFFFFFFFFFFFFFFFFFFFFFFFFFFBC
:10441000FFFFFFFFFFFFFFFFFFFFFFFFFFFFFFFFAC
:10442000FFFFFFFFFFFFFFFFFFFFFFFFFFFFFFFF9C
:10443000FFFFFFFFFFFFFFFFFFFFFFFFFFFFFFFF8C
:10444000FFFFFFFFFFFFFFFFFFFFFFFFFFFFFFFF7C
:10445000FFFFFFFFFFFFFFFFFFFFFFFFFFFFFFFF6C
:10446000FFFFFFFFFFFFFFFFFFFFFFFFFFFFFFFF5C
:10447000FFFFFFFFFFFFFFFFFFFFFFFFFFFFFFFF4C
:10448000FFFFFFFFFFFFFFFFFFFFFFFFFFFFFFFF3C
:10449000FFFFFFFFFFFFFFFFFFFFFFFFFFFFFFFF2C
:1044A000FFFFFFFFFFFFFFFFFFFFFFFFFFFFFFFF1C
:1044B000FFFFFFFFFFFFFFFFFFFFFFFFFFFFFFFF0C
:1044C000FFFFFFFFFFFFFFFFFFFFFFFFFFFFFFFFFC
:1044D000FFFFFFFFFFFFFFFEFFDEFFFFFFFFFFFF0E
:1044E000F7DFC69C8CF763D354775CB8549843F5D8
:1044F00033522AAF2A4C21E910E510C40883086220
:1045000008620861082008200000000000000882FE
:104510004229634D52AB000029A72986006210C4CE
:1045200008A310C408C408C4110508C408A32125A1
:1045300052EC10E410E408E508E408E4110508C5AD
:1045400010E510E510E56BCF530C0021190510E5BF
:1045500010E51105110508E408E408C42986426A3B
:10456000006208A308C408C408E4008308C408C49F
:1045700008A30883298721260062088308A408A3CA
:1045800008A310A310A308821082086200630083AE
:1045900000A40906118819EA2AB0331243D44C77D3
:1045A0005CD85C974C1443B26412A5D9DF7FF7FF47
:1045B000F7FFFFFFFFFEFFFEFFFFFFFFFFFFFFFF15
:1045C000FFFFFFFFFFFFFFFFFFFFFFFFFFFFFFFFFB
:1045D000FFFFFFFFFFFFFFFFFFFFFFFFFFFFFFFFEB
:1045E000FFFFFFFFFFFFFFFFFFFFFFFFFFFFFFFFDB
:1045F000FFFFFFFFFFFFFFFFFFFFFFFFFFFFFFFFCB
:10460000FFFFFFFFFFFFFFFFFFFFFFFFFFFFFFFFBA
:10461000FFFFFFFFFFFFFFFFFFFFFFFFFFFFFFFFAA
:10462000FFFFFFFFFFFFFFFFFFFFFFFFFFFFFFFF9A
:10463000FFFFFFFFFFFFFFFFFFFFFFFFFFFFFFFF8A
:10464000FFFFFFFFFFFFFFFFFFFFFFFFFFFFFFFF7A
:10465000FFFFFFFFFFFFFFFFFFFFFFFFFFFFFFFF6A
:10466000FFFFFFFFFFFFFFFFFFFFFFFFFFFFFFFF5A
:10467000FFFFFFFFFFFFFFFFFFFFFFFFFFFFFFFF4A
:10468000FFFFFFFFFFFFFFFFFFFFFFFFFFFFFFFF3A
:10469000FFFFFFFFFFFFFFFFFFFFFFFFFFFFFFFF2A
:1046A000FFFFFFFFFFFFFFFFF7FFFFFFFFFFFFFF22
:1046B000FFFFFFFFFFFFFFFFFFFFFFFFEFFFAE3A30
:1046C0006C9553D45C366CFA543543D42B111A6E66
:1046D00019EB198808C40021006208830883086266
:1046E00000210000000010824A4973CFAD76D6DB6E
:1046F000F7DFFFFFB5B700003A094A8B08831905B9
:10470000110508E511261126112611051925110597
:104710005B2D218708E519671946194719471126A6
:10472000192708E5110584936BAF00621926192734
:104730001106110611461105112600833A2952CBA4
:104740000062192508E408E508E508C408C408C49F
:10475000088308A4424A1926006308A408C408A3D1
:1047600008A310C310A3108210A308830883088332
:104770000062006208A308A311271989222C32F0D5
:104780003BB3545664F86D3964964BD353D29D981D
:10479000E79FFFFFFFFFFFFEFFFFF7DFF7DFFFFFF2
:1047A000FFFFFFFFFFFFFFFFFFFFFFFFFFFFFFFF19
:1047B000FFFFFFFFFFFFFFFFFFFFFFFFFFFFFFFF09
:1047C000FFFFFFFFFFFFFFFFFFFFFFFFFFFFFFFFF9
:1047D000FFFFFFFFFFFFFFFFFFFFFFFFFFFFFFFFE9
:1047E000FFFFFFFFFFFFFFFFFFFFFFFFFFFFFFFFD9
:1047F000FFFFFFFFFFFFFFFFFFFFFFFFFFFFFFFFC9
:10480000FFFFFFFFFFFFFFFFFFFFFFFFFFFFFFFFB8
:10481000FFFFFFFFFFFFFFFFFFFFFFFFFFFFFFFFA8
:10482000FFFFFFFFFFFFFFFFFFFFFFFFFFFFFFFF98
:10483000FFFFFFFFFFFFFFFFFFFFFFFFFFFFFFFF88
:10484000FFFFFFFFFFFFFFFFFFFFFFFFFFFFFFFF78
:10485000FFFFFFFFFFFFFFFFFFFFFFFFFFFFFFFF68
:10486000FFFFFFFFFFFFFFFFFFFFFFFFFFFFFFFF58
:10487000FFFFFFFFFFFFFFFFFFFFFFFFFFFFFFFF48
:10488000FFFFFFFFFFFFFFFFFFFFFFFFFFDFFFDF78
:10489000FFFFFFFFFFFFF7FFF7FFB61A74956455A0
:1048A00064B76D195C9833533AEE222B1188114787
:1048B00008E50862084118C3088300410000004170
:1048C000214552CB9CF4DEFCFFFFFFFFFFFFFFFF03
:1048D000FFFFFFFFCE9A086221465B2D10E5110510
:1048E000194611061967114711271947194608C4B7
:1048F0006BD042AC08E51147114619881947194891
:104900002188110619679D566BF008C5112721886B
:10491000196811471967116719670084532E5B4E98
:1049200000621926112611260906112608E511062E
:10493000008319264A8B086308C408C408C408C445
:1049400008C410C410A308A3008310E510C408A372
:1049500010A3088210831062084108A31105116892
:1049600019EB228E3B514BF364F9753964964B91E8
:1049700063F19D76D71CFFFFFFFFFFFFFFFFFFFFE7
:10498000FFFFFFFFFFFFFFDEFFFFFFFFFFFFFFFF58
:10499000FFFFFFFFFFFFFFFFFFFFFFFFFFFFFFFF27
:1049A000FFFFFFFFFFFFFFFFFFFFFFFFFFFFFFFF17
:1049B000FFFFFFFFFFFFFFFFFFFFFFFFFFFFFFFF07
:1049C000FFFFFFFFFFFFFFFFFFFFFFFFFFFFFFFFF7
:1049D000FFFFFFFFFFFFFFFFFFFFFFFFFFFFFFFFE7
:1049E000FFFFFFFFFFFFFFFFFFFFFFFFFFFFFFFFD7
:1049F000FFFFFFFFFFFFFFFFFFFFFFFFFFFFFFFFC7
:104A0000FFFFFFFFFFFFFFFFFFFFFFFFFFFFFFFFB6
:104A1000FFFFFFFFFFFFFFFFFFFFFFFFFFFFFFFFA6
:104A2000FFFFFFFFFFFFFFFFFFFFFFFFFFFFFFFF96
:104A3000FFFFFFFFFFFFFFFFFFFFFFFFFFFFFFFF86
:104A4000FFFFFFFFFFFFFFFFFFFFFFFFFFFFFFFF76
:104A5000FFFFFFFFFFFFFFFFFFFFFFFFFFFFFFFF66
:104A6000FFFFFFFFFFFFFFFFFFFFFFFFFFDFFFFF76
:104A7000FFFFFFFFDF7FC6FD6C54643474B774F929
:104A800053F533102AAE224B1146110508E400629B
:104A90000041086200010000000029666B6DB5B797
:104AA000EF9EFFFFFFFFFFFFFFBEFFBEF7BEF7BE9B
:104AB000F79EF7DFE75D31C700426BAF31C810E505
:104AC00019671147198811881988198819871105DC
:104AD0005B6F4AED11471167198821C919A9198916
:104AE0001989196819675B6F42CC1967196821A980
:104AF0001989198919881988198909065B4F52ED96
:104B000000A4194711271968112711271127112609
:104B100008A4426B5B0D004208E508C508C408C53F
:104B200008C408C408C408C4006231C82166006310
:104B300008A410C408A408A408A308A20882088333
:104B400008C41147220B328D2AF04BD36CD77D5904
:104B50006C964B915BF28D78DF5DF7DFFFFFFFFF17
:104B6000FFFFFFFFFFFFFFFFFFFFFFFFFFFFFFFF55
:104B7000FFFFFFFFFFFFFFFFFFFFFFFFFFFFFFFF45
:104B8000FFFFFFFFFFFFFFFFFFFFFFFFFFFFFFFF35
:104B9000FFFFFFFFFFFFFFFFFFFFFFFFFFFFFFFF25
:104BA000FFFFFFFFFFFFFFFFFFFFFFFFFFFFFFFF15
:104BB000FFFFFFFFFFFFFFFFFFFFFFFFFFFFFFFF05
:104BC000FFFFFFFFFFFFFFFFFFFFFFFFFFFFFFFFF5
:104BD000FFFFFFFFFFFFFFFFFFFFFFFFFFFFFFFFE5
:104BE000FFFFFFFFFFFFFFFFFFFFFFFFFFFFFFFFD5
:104BF000FFFFFFFFFFFFFFFFFFFFFFFFFFFFFFFFC5
:104C0000FFFFFFFFFFFFFFFFFFFFFFFFFFFFFFFFB4
:104C1000FFFFFFFFFFFFFFFFFFFFFFFFFFFFFFFFA4
:104C2000FFFFFFFFFFFFFFFFFFFFFFFFFFFFFFFF94
:104C3000FFFFFFFFFFFFFFFFFFFFFFFFFFFFFFFF84
:104C4000FFFFFFFFFFFFFFFFFFFFFFDFFFDEFFFFB5
:104C5000FFDFCEDC8D1653B16CD76CB753F532F253
:104C60002A6F220B196608C208C3088210A20861C5
:104C70000000002121665B2EBDD6F77DFFFFFFFF00
:104C8000FFDFFFDFF7BEEF9EF79EFFBEF79DF79EAB
:104C9000F7BFFFFFFFFF52CB00007C314ACC08E595
:104CA0002188198819A919C921C919A92A091947D7
:104CB000324A29E921A9220A220A19C921EA21EA4C
:104CC0001989322B21A90905114621C921EA21A9F7
:104CD00019A921CA19A919A821A911483A4B29C90A
:104CE000194729EA1968198919A91168198811261B
:104CF00008A45B4E634E002219261105110511060A
:104D0000110608E508E5090600624AAB31C8002231
:104D100008A408E5008508C600E408C408C30882A2
:104D20000882088308A508E611EB228D32CF4BB22A
:104D30007518859A64B743D46BD0ADD7EF9FFFFF4A
:104D4000FFFFFFFFFFFFFFFFFFFFFFFFFFFFFFFF73
:104D5000FFFFFFFFFFFFFFFFFFFFFFFFFFFFFFFF63
:104D6000FFFFFFFFFFFFFFFFFFFFFFFFFFFFFFFF53
:104D7000FFFFFFFFFFFFFFFFFFFFFFFFFFFFFFFF43
:104D8000FFFFFFFFFFFFFFFFFFFFFFFFFFFFFFFF33
:104D9000FFFFFFFFFFFFFFFFFFFFFFFFFFFFFFFF23
:104DA000FFFFFFFFFFFFFFFFFFFFFFFFFFFFFFFF13
:104DB000FFFFFFFFFFFFFFFFFFFFFFFFFFFFFFFF03
:104DC000FFFFFFFFFFFFFFFFFFFFFFFFFFFFFFFFF3
:104DD000FFFFFFFFFFFFFFFFFFFFFFFFFFFFFFFFE3
:104DE000FFFFFFFFFFFFFFFFFFFFFFFFFFFFFFFFD3
:104DF000FFFFFFFFFFFFFFFFFFFFFFFFFFFFFFFFC3
:104E0000FFFFFFFFFFFFFFFFFFFFFFFFFFFFFFFFB2
:104E1000FFFFFFFFFFFFFFFFFFDEFFFFFFFFFFFFC3
:104E2000FFFFFFFFFFFFFFBFFFDDFFFFF7FFC75ED5
:104E30007D58545464B76CD74BD53B3232AE21EA1F
:104E4000114610E40882108108820862000008827E
:104E500052AB9D14E75DFFFFFFFFFFDFF7DFF7BEFB
:104E6000F7BEF7BEF7BEF7BEF79FF79EFFDFF7BFAF
:104E7000F79EF7DFFFFF84510001634E5B4E1987F9
:104E8000118821EA19CA21EB29EA21E9222A222BD9
:104E900019AA19AA2A2B224B222B220B21EA2A2AF1
:104EA0002A2A21EA222C1A2C224B19EA1A0A224B0E
:104EB000222A222A222A1A09222B220B19A921EAA4
:104EC00021EA19A921EA19CA21AA21AA21AA196845
:104ED00011485B50428D00A5114711681147090622
:104EE00011271147090600A419255B4D004208C48B
:104EF00008E408E508E508E510C4088410E508C5DD
:104F000008A408A408A4086308A4110619A8324C30
:104F10003AEF4B926C96857A54D73BB25C12BE3A0C
:104F2000FFFFFFFFF7DFFFFFFFFFFFDFFFFFFFFFD9
:104F3000FFFFFFFFFFFFFFDEFFFFFFFFFFFFFFFFA2
:104F4000FFFFFFFFFFFFFFFFFFFFFFFFFFFFFFFF71
:104F5000FFFFFFFFFFFFFFFFFFFFFFFFFFFFFFFF61
:104F6000FFFFFFFFFFFFFFFFFFFFFFFFFFFFFFFF51
:104F7000FFFFFFFFFFFFFFFFFFFFFFFFFFFFFFFF41
:104F8000FFFFFFFFFFFFFFFFFFFFFFFFFFFFFFFF31
:104F9000FFFFFFFFFFFFFFFFFFFFFFFFFFFFFFFF21
:104FA000FFFFFFFFFFFFFFFFFFFFFFFFFFFFFFFF11
:104FB000FFFFFFFFFFFFFFFFFFFFFFFFFFFFFFFF01
:104FC000FFFFFFFFFFFFFFFFFFFFFFFFFFFFFFFFF1
:104FD000FFFFFFFFFFFFFFFFFFFFFFFFFFFFFFFFE1
:104FE000FFFFFFFFFFFFFFFFFFFFFFFFFFFFFFFFD1
:104FF000FFFFFFFFFFFFFFFFFFFFFFFFFFFFFFFFC1
:10500000FFFFFFDEFFFFFFFFFFFFEF9F9DB96C7506
:105010006CB66CF85C353B3132CF19CA092700C534
:1050200008C408C3004208210000298673AFC6598E
:10503000FFFFFFFFFFFFF7DFF7BFF7BFF7BEF7BECA
:10504000F7BEF7BFF7DFFFDFF79EF79EF7BFF7BFAB
:10505000F79EF7DFFFFF9D1410E521A82A0A21EA39
:10506000222B222B2A2C2A2C2A2C222B1A4B226C64
:105070002A4C2A4C222C1A4C224C224C32AD222B88
:105080002A4B328D220B2A6D1A2C2A8D224C1A2B78
:10509000226C1A4C120B228D224C19EB21EB19EACF
:1050A0002A2B2A2B19A9220B21EB19AA21CA21EAA2
:1050B000116829EA19681968198919891988116804
:1050C00019681147090600A552EC52CC002210E5E0
:1050D000110508E5110608C508A410E510E50084CF
:1050E00008A410E5006310E508A400840084090703
:1050F00019AA2A4C3AEF4B727D168DB964963B5132
:105100007495D73EFFFFFFDDFFDFFFFFF7BFF7DF3F
:10511000FFFFFFFFFFDFFFFFFFFFFFFFFFFFFFFFBF
:10512000FFFFFFFFFFFFFFFFFFFFFFFFFFFFFFFF8F
:10513000FFFFFFFFFFFFFFFFFFFFFFFFFFFFFFFF7F
:10514000FFFFFFFFFFFFFFFFFFFFFFFFFFFFFFFF6F
:10515000FFFFFFFFFFFFFFFFFFFFFFFFFFFFFFFF5F
:10516000FFFFFFFFFFFFFFFFFFFFFFFFFFFFFFFF4F
:10517000FFFFFFFFFFFFFFFFFFFFFFFFFFFFFFFF3F
:10518000FFFFFFFFFFFFFFFFFFFFFFFFFFFFFFFF2F
:10519000FFFFFFFFFFFFFFFFFFFFFFFFFFFFFFFF1F
:1051A000FFFFFFFFFFFFFFFFFFFFFFFFFFFFFFFF0F
:1051B000FFFFFFFFFFFFFFFFFFFFFFFFFFFFFFFFFF
:1051C000FFFFFFFFFFFFFFFFFFFFFFFFFFFFFFFFEF
:1051D000FFFFFFFFFFFFFFFFF7FFFFFFFFFFFFFEE8
:1051E000FFBDFFDEFFFFFFDFB65D7CB664557D18B7
:1051F0006476433132AF2A2D116708E508E410E4E4
:1052000000620001084331A9A535DF1CFFFFFFFF45
:10521000F7BFEF9EF7DFEF9EF79EF79EF79EF7BE74
:10522000F7BEF7BFFFDFFFDFF79EF79EF79FF7BFE1
:10523000F7BFF7BFFFFFC63821EA1188220A224CC8
:10524000222B222B2A4C2A2B222C2A8E228D2A6CAE
:10525000220A2A0B1A2C228E2A8D2A8D222C2AAE63
:105260002AAD222B328D326C2A8E1A2D222D2A4DF8
:10527000222D2AAE2AEE124C226D226D32AE224C25
:105280001A0B2A4C222B2A4C222B222B220B222BAC
:1052900019CA21EA116821EA19A919A919A919A994
:1052A00019A91988116811477C323A2A0043192636
:1052B00010E508C5112608C51106110608A40063EB
:1052C000424B29A8006310C410C408C408A400C538
:1052D00000C6090719CA328D3B3053F3857995BA58
:1052E00063F3534F9556E7BFF7FFFFFFFFFFFFFF45
:1052F000FFDEFFDEFFFFFFFFFFFFFFFFFFFFFFFF00
:10530000FFFFFFFFFFFFFFFFFFFFFFFFFFFFFFFFAD
:10531000FFFFFFFFFFFFFFFFFFFFFFFFFFFFFFFF9D
:10532000FFFFFFFFFFFFFFFFFFFFFFFFFFFFFFFF8D
:10533000FFFFFFFFFFFFFFFFFFFFFFFFFFFFFFFF7D
:10534000FFFFFFFFFFFFFFFFFFFFFFFFFFFFFFFF6D
:10535000FFFFFFFFFFFFFFFFFFFFFFFFFFFFFFFF5D
:10536000FFFFFFFFFFFFFFFFFFFFFFFFFFFFFFFF4D
:10537000FFFFFFFFFFFFFFFFFFFFFFFFFFFFFFFF3D
:10538000FFFFFFFFFFFFFFFFFFFFFFFFFFFFFFFF2D
:10539000FFFFFFFFFFFFFFFFFFFFFFFFFFFFFFFF1D
:1053A000FFFFFFFFFFFFFFFFFFFFFFFFFFFFFFFF0D
:1053B000FFFFFFFFFFFFFFFFFFFFFFFFFFDFFFFE1E
:1053C000FFFFFFFFDF3D8CF4645674F86496437171
:1053D00032CF2A6D19AA08E610E410C4006200005A
:1053E00008824AABB598FFFFFFDFFFFFFFDFF7BF83
:1053F000F7BEF79EF7DFFFDFF7BEF7BEF7BEF7BEDB
:10540000F7BEF7BEF7BFF7BFF7BFF79FF79EF7BF2F
:10541000F7DFF7BFFFFFE73D2A4D19EB2A8D226D1D
:10542000226C2A6D2A6D2A6D32EF2A8D222B42EDD5
:10543000426B42AC326C2AAE2A6D2AAE2ACF22AE23
:105440002ACF3ACE2A2B21EA21EA2A2C3A6D428D24
:10545000322C19A911C9228C2AAE228D1A2C226D48
:105460002AAE2A4C222C222B224C2A6D224C222B93
:10547000220B2A8D1A0B222B220B19EA19CA19CAE0
:1054800019C919A919A921C96370194708C5216744
:10549000112610E6112608E608E5110608C41926AB
:1054A0006B8F1905088408C510E410C408C408C52A
:1054B00008C500A500C6090619EC2A6E3AF06C541E
:1054C000957974D64BB153D1BE9CEFFFFFFFFFDF40
:1054D000FFFFFFFFFFDEFFFFFFFFFFFFFFFFFFFFFD
:1054E000FFFFFFFFFFFFFFFFFFFFFFFFFFFFFFFFCC
:1054F000FFFFFFFFFFFFFFFFFFFFFFFFFFFFFFFFBC
:10550000FFFFFFFFFFFFFFFFFFFFFFFFFFFFFFFFAB
:10551000FFFFFFFFFFFFFFFFFFFFFFFFFFFFFFFF9B
:10552000FFFFFFFFFFFFFFFFFFFFFFFFFFFFFFFF8B
:10553000FFFFFFFFFFFFFFFFFFFFFFFFFFFFFFFF7B
:10554000FFFFFFFFFFFFFFFFFFFFFFFFFFFFFFFF6B
:10555000FFFFFFFFFFFFFFFFFFFFFFFFFFFFFFFF5B
:10556000FFFFFFFFFFFFFFFFFFFFFFFFFFFFFFFF4B
:10557000FFFFFFFFFFFFFFFFFFFFFFFFFFFFFFFF3B
:10558000FFFFFFFFFFFFFFFFFFFFFFFFFFFFFFFF2B
:10559000FFFFFFFFFFFFFFFFFFFEFFFFFFDFFFFF3C
:1055A000F7FFB61A7CB574B5753954342AEF224B1F
:1055B00019E9114608C419051083000108625AEB65
:1055C000C638FFFFFFFFF7DFF7DFF7BEEF7DF7BE5F
:1055D000FFFFF7BFF79EF79EF7BFF7BFF7BFF7BE16
:1055E000F7BEF7BEF7BEF7BEF7BFF7BFF79FF7BF2F
:1055F000FFDFF7BEFFFFF7DF435111CB228D2AAE4D
:105600002ACE2AAE2A6D32CE2A8C222B5370C69C0B
:10561000D6FBDF1C8493220A3B0F2AAE2ACF33101D
:105620002ACE220B326C6BF1BE1AD6DCDEFDD6BC64
:10563000D6DCB6196C103229222B2A8D32CE2AAE36
:105640002AAE2AAE2A6D32AE2A8D226D226D226DCF
:10565000222C224C222B222C224C222B220B220BDE
:1056600019EA19CA19C921EA29CA09061968198843
:105670001988196811271106110708E500834A8B5C
:1056800052CC002210E508E6110510E508C510E52A
:1056900010E508C508C500A410E419681A0C22908A
:1056A0003B947D5995D97CB44B4F84F5D73DFFFF92
:1056B000FFFFFFDEFFFFFFFFFFFFFFFFFFFFFFFF1B
:1056C000FFFFFFFFFFFFFFFFFFFFFFFFFFFFFFFFEA
:1056D000FFFFFFFFFFFFFFFFFFFFFFFFFFFFFFFFDA
:1056E000FFFFFFFFFFFFFFFFFFFFFFFFFFFFFFFFCA
:1056F000FFFFFFFFFFFFFFFFFFFFFFFFFFFFFFFFBA
:10570000FFFFFFFFFFFFFFFFFFFFFFFFFFFFFFFFA9
:10571000FFFFFFFFFFFFFFFFFFFFFFFFFFFFFFFF99
:10572000FFFFFFFFFFFFFFFFFFFFFFFFFFFFFFFF89
:10573000FFFFFFFFFFFFFFFFFFFFFFFFFFFFFFFF79
:10574000FFFFFFFFFFFFFFFFFFFFFFFFFFFFFFFF69
:10575000FFFFFFFFFFFFFFFFFFFFFFFFFFFFFFFF59
:10576000FFFFFFFFFFFFFFFFFFFFFFFFFFFFFFFF49
:10577000FFFFFFFFFFFFFFFFFFFEF7BEFFFFE77F1B
:105780008D16645475185C9633302AAD222B096649
:1057900000C3110410C3000008225ACCBDD7FFFF7C
:1057A000FFFFEF9DEF5DFFDEEF7DFFDFFFDFF7BE69
:1057B000F7BEF7BEF7BEF7BEF7BEF7BEF7BEF7BE41
:1057C000F7BFF7BFF7BFF7BFF7BFF7BFF7BFF7BF29
:1057D000FFDFF7BEF7DFFFFF6C7511CB2AAE2AEEB5
:1057E0002ACE2ACE2AAE32CE430E2A6C2A2C5B4F0A
:1057F0005B0CC638A57621C92ACF331032EF32CEE2
:10580000222C63D1CEFDDF7FA57684526B8F636E31
:105810007C11B5D8DF1DD6FC5B9021E92A8D3B10A9
:105820002AAF2ACF2A8D2A8D2AAE226D2A8D2A8E62
:10583000226D2A6D2A6D224C224C222C222C224CC5
:10584000222B1A0B19EB220B19A919A921EA1168AD
:10585000198919A911681147196808C5110573F04C
:1058600021260043192608E6110611061106110526
:1058700010E510E508C508C4008308E609070949D2
:10588000222D2AAE53D395B98D794B915BD1BE5A57
:10589000F7FFFFFFF7FFF7DFFFFFFFFFFFFFFFFF50
:1058A000FFFFFFFFFFFFFFFFFFFFFFFFFFFFFFFF08
:1058B000FFFFFFFFFFFFFFFFFFFFFFFFFFFFFFFFF8
:1058C000FFFFFFFFFFFFFFFFFFFFFFFFFFFFFFFFE8
:1058D000FFFFFFFFFFFFFFFFFFFFFFFFFFFFFFFFD8
:1058E000FFFFFFFFFFFFFFFFFFFFFFFFFFFFFFFFC8
:1058F000FFFFFFFFFFFFFFFFFFFFFFFFFFFFFFFFB8
:10590000FFFFFFFFFFFFFFFFFFFFFFFFFFFFFFFFA7
:10591000FFFFFFFFFFFFFFFFFFFFFFFFFFFFFFFF97
:10592000FFFFFFFFFFFFFFFFFFFFFFFFFFFFFFFF87
:10593000FFFFFFFFFFFFFFFFFFFFFFFFFFFFFFFF77
:10594000FFFFFFFFFFFFFFFFFFFFFFFFFFFFFFFF67
:10595000FFFFFFFFFFFFFFFFFFFEFFFFBE5A747553
:10596000749674F84C141A8E328D118800C509058E
:105970001104000000214A6ABDF8F7BFFFFFFFDEF7
:10598000F79DF79EF7BFF79EFFFFF79EEF7DF7BEEF
:10599000FFFFF7BEF79EFFFFF7BEF7BEF7BFF7BFEB
:1059A000F7BFF7BFF7BFF7BFF7BFF7BFF7BFF7BF47
:1059B000F7DFF7BFF7DFFFFF8D58220B32EE32EE35
:1059C0002AAE330F331032F032CE33102AD02A6D84
:1059D0000905ADB6ADD821A92B1033303AEF2A4CCA
:1059E0007CB4EFDFADD93209118819A919EA224B2D
:1059F00019E90927428C9D58F7FF84D4222B228D68
:105A000033302ACF2ACF2ACE32CF2ACF2AAE2A8EBF
:105A10002A8E32CF32CE2A6D226D224D224C226C3C
:105A2000226C224C224C224C224C222C220B11A9FB
:105A300011A919C919A91188116809064ACD73D08D
:105A4000002208A411061127090608E508C508E583
:105A500010E510E508A40063114708C508A410C4A8
:105A6000192621CA2A8E2AF16CD695FB6C95432FF4
:105A70008D16E79FFFFFFFFFFFFFFFFFFFFFFFFF09
:105A8000FFFFFFFFFFFFFFFFFFFFFFFFFFFFFFFF26
:105A9000FFFFFFFFFFFFFFFFFFFFFFFFFFFFFFFF16
:105AA000FFFFFFFFFFFFFFFFFFFFFFFFFFFFFFFF06
:105AB000FFFFFFFFFFFFFFFFFFFFFFFFFFFFFFFFF6
:105AC000FFFFFFFFFFFFFFFFFFFFFFFFFFFFFFFFE6
:105AD000FFFFFFFFFFFFFFFFFFFFFFFFFFFFFFFFD6
