:03000000024B2E82
:0C4B2E00787FE4F6D8FD758107024B7516
:101DB300D6D0BEB0D4B0B5E7D7D3004C43445F44CC
:101DC30069616D657465723A00496E63726561732A
:101DD30065696E67204E756E3A00FFFFFFFFFFFFD8
:101DE300FFFFFFFFFFFFFFFFFFFFFFFFFFFFFFFF00
:101DF300FFFFFFFFFFFFFFFFF7BEFFFFFFDEC6385A
:101E03008C926B8E6B6E7C10AD96E73CFFFFFFFFF1
:101E1300FFFFFFFFFFFFFFFFFFFFFFFFFFFFFFFFCF
:101E2300FFFFFFFFFFFFFFFFFFFFFFFFFFFFFFFFBF
:101E3300FFFFFFFFFFFFFFFFFFFFFFFFFFFFFFFFAF
:101E4300FFFFFFFFFFFFFFFFEF5D9D15634F426C39
:101E5300320A298819461925214531E86B8EC6387F
:101E6300FFFFFFFFFFFFFFFFFFFFFFFFFFFFFFFF7F
:101E7300FFFFFFFFFFFFFFFFFFFFFFFFFFFFFFFF6F
:101E8300FFFFFFFFFFFFFFFFFFFFFFFFFFFFFFFF5F
:101E9300FFFFFFFFFFFFA53653104B1053514B0FAE
:101EA3003A6C31E92167192510E408A3006208831D
:101EB30052CBD69AFFFFFFFFFFFFFFFFFFFFFFFF9E
:101EC300FFFFFFFFFFFFFFFFFFFFFFFFFFFFFFFF1F
:101ED300FFFFFFFFFFFFFFFFFFFFFFFFFFFFFFFF0F
:101EE300FFFFE73C637063B37CB863F54311324D86
:101EF30029EA21881926190519051104110410E48A
:101F0300008308A38C72FFFFFFFFFFFFFFFFFFFFAC
:101F1300FFFFFFFFFFFFFFFFFFFFFFFFFFFFFFFFCE
:101F2300FFFFFFFFFFFFFFFFFFFFFFFFFFFFFFFFBE
:101F3300DEDB3A4B42F06C354B5432B12A2E21EBA7
:101F430021A91967190511041104110411041104BD
:101F5300190510E4004273AFFFFFFFFFFFFFFFFF10
:101F6300FFFFFFFFFFFFFFFFFFFFFFFFFFFFFFFF7E
:101F7300FFFFFFFFFFFFFFFFFFFFFFFFFFFFEF5D20
:101F83003209324C4B10328F2A4F2A2E19CC198921
:101F93002189194719051104110410C410C411042F
:101FA3001104110410E400428431FFFFFFFFFFFF1F
:101FB300FFFFFFFFFFFFFFFFFFFFFFFFFFFFFFFF2E
:101FC300FFFFFFFFFFFFFFFFFFFFFFFFFFFF52ECDE
:101FD3001947324C2A0B21EC21EC220C5B914AEE7F
:101FE30011061926190410E410E429A7216608A391
:101FF30019051104110410E40082BDF7FFFFFFFF70
:10200300FFFFFFFFFFFFFFFFFFFFFFFFFFFFFFFFDD
:10201300FFFFFFFFFFFFFFFFFFFFFFFFA535088364
:1020230021882188218921AA218A426B8C71FFFF93
:102033008C720883110408C44229DEFBEF5D5AEC5D
:102043000883110411041104088331E8FFDFFFFF43
:10205300FFFFFFFFFFFFFFFFFFFFFFFFFFFFFFFF8D
:10206300FFFFFFFFFFFFFFFFFFFFF7BE31C710C4F6
:10207300192519261947194729A8528A4A28AD55FF
:10208300FFFF31E808A319056B4D6B4DFFFFEF7D93
:10209300214510C41104110411040062AD76FFFF41
:1020A300FFFFFFFFFFFFFFFFFFFFFFFFFFFFFFFF3D
:1020B300FFFFFFFFFFFFFFFFFFFFB5960062110465
:1020C30019041105190508C44A8BB5B6EF5DBDF7B0
:1020D300FFFF6B8E006242295AAA4208FFFFFFFFEF
:1020E30052CC088311041104110408A352ADFFFF5D
:1020F300FFFFFFFFFFFFFFFFFFFFFFFFFFFFFFFFED
:10210300E71CFFFFFFFFFFFFFFFF634E00621104A9
:102113001104110410E40062638EFFFFFFFFFFFF51
:10212300FFFF73CF00019CF3632CB596FFFFFFFF06
:102133005B2D008311041104110410E42167EF3DAA
:10214300FFFFFFFFFFFFFFFFFFFFBDF8B5B7EF9EE8
:1021530052CB94B3FFFFFFFFFFDF31E808A3110465
:1021630011041104110408A34249F7FFF7FFFFFF0D
:10217300FFFF4A6A00018472FFFFFFFFF7FFEFDFF3
:102183003A0908A311041104110411041105BE181E
:10219300FFFFFFFFFFFFFFFFFFFF7BF0006231E860
:1021A30031C70041A535FFFFEF5D214610C411047F
:1021B30011041104110410E408A39D76F7FFFFFF37
:1021C300ADB708A308A331C7E79EF7FFF7FFA576CE
:1021D30008A310E411041104110411051105A53518
:1021E300FFFFFFFFFFFFFFFFFFFFDEDB29A70083EA
:1021F30010C410C410C4E71CEF9E110510E41104B1
:10220300110411041104190408C410E56BD16BD136
:1022130008C5006408A50043322B9D7784B31925B4
:1022230010C41104110411041104192509269D3544
:10223300FFFFFFFFFFFFFFFFFFFFFFFF73AF006223
:102243001904190500825B0D9B8E106211051104A0
:102253001104190410E40085110539C45A817B4027
:102263009C22AC43A4039B837282498218C200A4BC
:1022730000C510E4190411041905194711675AEC34
:10228300FFBEFFFFFFFFFFFFFFFFFFDFDEDB10C42B
:1022930010E41104110518A4C001888300E4190592
:1022A300190408C521448343D523FE42FEE4FF27D6
:1022B300FF07FEA4FE64FE03FDA3FCE2EC42B3832E
:1022C300622410E508C41904192619A8218790006F
:1022D300BCD3FFFFFFFFFFFFFFFFFFDFFFFF7C100C
:1022E3000042190511052883D001F84448A300E4EE
:1022F30008C55A44ED02FDE2FE02FE66FF74FFB814
:10230300FF73F6E7F6A6F645F5A4FCC3FC62FCC230
:10231300FCC2CBE349C411061988018790A4F801D4
:102323009AECFFFFFFFFFFFFFFFFFFFFFFFFF7BE7B
:1023330031E8008309054082C001F823F08548A3F2
:1023430000A45A44FD02CC23DCC2FE04FE28F64856
:10235300F646F624F5E4FD64FCE3FC62FCC2E40209
:10236300DC02FCE27AA40148016778C4F824F8028D
:10237300B084E77DFFFFFFFFFFFFFFFFFFFFFFFFCE
:10238300DEDB192500A338C4E002D822F844F8A6FE
:1023930078A400632143728339839B82F521FD6115
:1023A300FD22FCE2FCA2FC42FC42FC42AB22418344
:1023B30092C352040126192598A4F844F823F8027D
:1023C300D0A4EF9EFFFFFFFFFFFFFFFFFFFFFFFF15
:1023D300FFFFD69A298700A5B843F822E023F865C2
:1023E300F8E8C9074883004200A3008429637AA25E
:1023F300B362CBA2D362BB028A82398300A400E515
:1024030000E508E560C4D864F844F824F823F8022A
:102413008883C6DBFFFFFFFFFFFFFFFFFFFFFFFF19
:10242300FFFFFFFFE73D5B503108E823F843F0442B
:10243300F865F909F9ABD189890648A31842000266
:1024430000420061008200620062008320A350C446
:1024530088A5D885F865F844F844F823F823D00311
:10246300108229C7EF5DFFFFFFFFFFFFFFFFFFFFA5
:10247300FFFFFFFFFFFFFFFF326C38A5D802F823F1
:10248300F865F866F8A7F94AFA0CFA4DEA4CD20B4C
:10249300B9A9B168A947B127B907D107E8E7F8C7D0
:1024A300F8A7F865F865F844F823F803D00228A3E1
:1024B300090508C45AECFFFFFFFFFFFFFFFFFFFF03
:1024C300FFFFFFFFFFFFDEFB190500C441A7C0E6C6
:1024D300F803F886F8A7F887F886F8C7F929F98A80
:1024E300F9ABF9ABF98BF96AF929F908F8C7F8A63A
:1024F300F886F865F864F823F002B106292500E4AC
:1025030010E4192519259D14FFFFFFFFFFFFFFFFAF
:10251300FFFFFFFFFFFFAD96006208829535CEBA3D
:10252300A28BD044F825F887F8A7F8C7F8A7F8874F
:10253300F886F886F886F887F8A7F8A7F8A6F88546
:10254300F865F864F024B864930DB6BB63CF0883D1
:10255300110410E421663A49EF5DFFFFFFFFFFFF1F
:10256300FFFFFFFFFFFF94D3004210E4CEBBFFFF4A
:10257300E7BEB576AACCC107E045F845F846F8664C
:10258300F886F886F886F886F865F845F865E8650C
:10259300D044A84388019082D73CEFFF9555088328
:1025A300110411041905194694B3FFFFFFFFFFFF40
:1025B300FFFFFFFFFFFF94B300412186DF5DFFFFB5
:1025C300FFFFFFFFE7DFC67AB4D3B34EC22AD16859
:1025D300E0E6E8A6E8A5E8A5D8E6C988A906A82202
:1025E300A802A000C800D800E5F7E7FFADF810C4C3
:1025F30010E4110410E411054A8BFFFFFFFFFFFFF6
:10260300FFFFFFFFFFFFA555004129A7DF5DF7FF90
:10261300FFFFFFFFFFFFFFFFFFFFEFFFDF7DCEDBCE
:10262300CE59CDF8CDD7C5F7CE79BEFBA2ABF0031B
:10263300F845D042E843F000D472DFFFAE3910E42E
:1026430010E4110410E411052987FFFFFFFFFFFFCA
:10265300FFFFFFFFFFFFCE5908832146D71CF7FF7B
:10266300FFFFFFFFFFFFFFFFFFFFFFFFFFFFFFFF77
:10267300FFFFFFFFFFFFFFFFFFFFEFFFBA8BF80432
:10268300F845E062F044F800DB8EDFFFA5F810C4E4
:1026930010E410E4110410E41925FFFFFFFFFFFF0E
:1026A300FFFFFFFFFFFFF7BE29870883B639F7FF58
:1026B300F7DFFFFFFFFFFFFFFFFFFFFFFFFFFFFF4F
:1026C300FFFFFFFFFFFFFFFFFFFFE7BEBA4AF8036D
:1026D300F845F864F844F800E36ED7FF8CF40883F8
:1026E300110410E410E410E41905FFFFFFFFFFFFDE
:1026F300FFFFFFFFFFFFFFFF73EF00008472EFFF99
:10270300EFBEFFDFFFFFFFFFFFFFFFFFFFFFFFFF47
:10271300FFFFFFFFFFFFFFFFFFFFE7DFBA8BF803BA
:10272300F845F845F823F800D4D3D7FF5B4E0021D2
:102733003A29A555088310C41925FFFFFFFFFFFFA2
:10274300FFFFFFFFFFFFFFFFDEFB08A331E8DF9E74
:10275300E79EEFBFFFFFFFFFFFFFFFFFFFFFFFFF4F
:10276300FFFFFFFFFFFFFFFFFFFFF7FFBC51E0028B
:10277300F803F003E043C2ECCF7EBEFC2146002108
:1027830094D3FFFF845100002987FFFFFFFFFFFF62
:10279300FFFFFFFFFFFFFFFFFFFF845100008CF4EB
:1027A300EFFFE79EEFBFFFDFFFFFFFFFFFFFFFFF2F
:1027B300FFFFFFFFFFFFFFFFFFFFFFFFDF3DBD55F4
:1027C300BC52BC72B5B7C75DDFFF6BF000003A09BE
:1027D300F7BFFFFFFFFF9D14A555FFFFFFFFFFFF9F
:1027E300FFFFFFFFFFFFFFFFFFFFFFFF4AAC08A450
:1027F300BEBBE7DFE77EEFBEF7DFFFDFFFFFFFFFD5
:10280300FFFFFFFFFFFFFFFFFFFFFFDFF7DFEFFF2D
:10281300DFDFD7BFD79EDFDFA5D808831126D6DB3E
:10282300FFFFFFFFFFFFFFFFFFFFFFFFFFFFFFFFB5
:10283300FFFFFFFFFFFFFFFFFFFFEE79DC8B31217F
:1028430021A9CF3DDFBFDF7EE79EEFBEEFBFF7DFFE
:10285300F7DFF7DFF7DFF7DFEFBFEFBEE79EDF7EE0
:10286300D75ED75EDFDFB69A19260842A3EDFFBF16
:10287300FFFFFFFFFFFFFFFFFFFFFFFFFFFFFFFF65
:10288300FFFFFFFFFFFFFFFFDD74DBC0FE00EE4233
:1028930042022189B67BDFDFD77EDF7EDF7EE79EC4
:1028A300E79EE79EE79EE79EDF7EDF7ED75DD75DEF
:1028B300DF9EE7FFA5F8110718E3C502FD60D3E625
:1028C300EEDBFFFFFFFFFFFFFFFFFFFFFFFFFFFF4A
:1028D300FFFFFFFFFFFFF79EBA84FCC1FE42FE82AB
:1028E300FEA2838121457474C75EDFDFD77ED75E86
:1028F300D75DD75ED75ED75DD75DD75EDF9EE7FF37
:10290300C73D63F108845242E626FF29FE86F3E0C1
:10291300C36AFFFFFFFFFFFFFFFFFFFFFFFFFFFF95
:10292300FFFFFFFFFFFFDE18D2C1FDA2FE22FE4222
:10293300FE42FE62D4E26A4142497453A63BC73E5B
:10294300D7BFD7BFD7BFDFBFD7BFC73EA61A63F274
:1029530029A74182B422FE62FE83FEAAFF0FFD6710
:10296300BA63EF3CFFFFFFFFFFFFFFFFFFFFFFFF28
:10297300FFFFFFFFFFFFE69AD280FD21FDC2F5E2D4
:10298300F5C2F582FD82FD62DC619B216A846AE9FE
:10299300632C63AF7411636E632C5A8952047A817A
:1029A300CBC2FCE2FD62FD82FDC2FDC2FDE4FD245B
:1029B300CA62E71CFFFFFFFFFFFFFFFFFFFFFFFFF1
:1029C300FFFFFFFFFFFFFFFFCCB1D281F3C0FCC1CC
:1029D300FD02FD02FCE2FCC2FCC2FC81FB80C9C01B
:1029E30081A4AD35CE599C718121DA00FBA1FC8213
:1029F300FCA2FC82FCA2FD02FD22FCE2FC00DA60E8
:102A0300CC90FFFFFFFFFFFFFFFFFFFFFFFFFFFF75
:102A1300FFFFFFFFFFFFFFFFFFFFDE59C40DCB06E4
:102A2300D2E4DB03DB03DAE3D2C3C2A4B309BCD22F
:102A3300F79EFFFFFFFFFFFFE6FBB40EBAA6D283AC
:102A4300E2E3EB02EB22E322DB03D2E4C36AD5B673
:0A2A5300FFFFFFFFFFFFFFFFFFFF83
:10434D009004A8123334000000001233719004B2AF
:10435D00E4F0A374F0F074FFA3F0A3F07BF07A0007
:10436D00E4FDFCFFFE124A827BFF7A1D79B39004B7
:10437D00B374F8F0A3E4F074FFA3F0A3F0A37420DA
:10438D00F0E4A3F07D28FC7F1EFE12461A7BFF7A17
:10439D001D79BE9004B374F8F0A3E4F074FFA3F09C
:1043AD00A3F0A37410F0E4A3F07D50FC7F20FE1267
:1043BD004BBA9004B27403F0A374F8F0A3E4F07454
:1043CD00FFA3F0A3F0A37410F07BF07A007D507C76
:1043DD00007F867E001247527BFF7A1D79CC9004B8
:1043ED00B374F8F0A3E4F074FFA3F0A3F0A374107A
:1043FD00F0E4A3F07D64FC7F20FE124BBA9004A87C
:10440D00E0FCA3E0FDA3E0FEA3E0FF9004B01233B7
:10441D00289004B47404F0A374F8F0A3E4F074FFCE
:10442D00A3F0A3F0A37410F07D647C007FA07E0048
:10443D001244D09004A8E0FCA3E0FDA3E0FEA3E0AD
:10444D00FF7BAE7A4779E1783D122F179004A812C1
:10445D003328E49004A7F09004A7E0C3940374807C
:10446D0094804003024375E49004A6F09004A6E006
:10447D00FFC39406748094805041EF75F028A4FF1B
:10448D00AEF0C006C007A3E075F028A42478FDE4C3
:10449D0035F0FC9004B2E4F0A37428F0A374FFF09F
:1044AD00A3741DF0A374DDF0D007D0067B287A002D
:1044BD0012487E9004A6E004F080B19004A7E004B9
:0344CD00F08094E8
:044D4E007F647E0000
:104D5200EF4E60157D087C07ED1DAA0470011C4A08
:094D620070F6EF1F70EA1E80E7F5
:014D6B002225
:104D2800C294E4FEEEC39408748094805015C29037
:104D3800EF30E704D2918002C291D290EF25E0FFD4
:054D48000E80E1D29491
:014D4D002243
:0F4D7F00124D8EE4FF124D8EE4FF124D8EE4FFB5
:034D8E00024D28AB
:054D6C00E0FEA3E0FFE2
:0E4D7100AD07AC06ECFF124D28AF05024D2831
:074D91007FEF124D987FEB4C
:084D9800C293124D28D29322B0
:104CF4009004D9EEF0A3EFF0A3ECF0A3EDF07F2A3B
:104D0400124D989004D9124D6CAE02AF03124D713E
:104D14007F2B124D98A3124D6C9004DF124D6C7FC3
:044D24002C024D9878
:10337100C292124D4ED292124D4ED295124D4E1214
:103381004D917F14124D8E7FFE124D98124D917FFB
:1033910014124D8E7F84124D987F40124D8E7F8581
:1033A100124D987FFF124D8E7F86124D987FFF122E
:1033B1004D8E7F87124D987FFF124D8E7F88124D63
:1033C100987F0A124D8E7F89124D987F21124D8E62
:1033D1007F8A124D98E4FF124D8E7F8B124D987F9C
:1033E10080124D8E7F8C124D987F01124D8E7F8DF4
:1033F100124D987F01124D8E7F8E124D987FFF12D4
:103401004D8E7F8F124D987FFF124D8E7FB6124DDC
:1034110098E4FF124D8E7F20124D8E7F36124D980B
:103421007F08124D8E7F3A124D987F05124D8E7F87
:1034310090124D987F08124D8E7F08124D8E7F0895
:10344100124D8E7F08124D8E7FBD124D987F061250
:103451004D8E7FBC124D98E4FF124D8E7FFF124DB1
:10346100987F60124D8E7F01124D8E7F04124D8E1A
:103471007FC3124D987F13124D8E7FC4124D987FDA
:1034810013124D8E7FC9124D987F22124D8E7FBE31
:10349100124D987F11124D8E7FE1124D987F1012BF
:1034A1004D8E7F0E124D8E7FDF124D987F21124D72
:1034B1008E7F0C124D8E7F02124D8E7FF0124D9831
:1034C1007F45124D8E7F09124D8E7F08124D8E7FE2
:1034D10008124D8E7F26124D8E7F2A124D8E7FF15E
:1034E100124D987F43124D8E7F70124D8E7F721256
:1034F1004D8E7F36124D8E7F37124D8E7F6F124D5E
:103501008E7FF2124D987F45124D8E7F09124D8E9E
:103511007F08124D8E7F08124D8E7F26124D8E7FB1
:103521002A124D8E7FF3124D987F43124D8E7F707C
:10353100124D8E7F72124D8E7F36124D8E7F371255
:103541004D8E7F6F124D8E7FED124D987F1B124D68
:103551008E7F0B124D8E7FAE124D987F77124D8E5E
:103561007FCD124D987F63124D8E7F70124D987FE3
:1035710007124D8E7F07124D8E7F04124D8E7F0EE6
:10358100124D8E7F0F124D8E7F09124D8E7F0712C5
:103591004D8E7F08124D8E7F03124D8E7FE8124DA6
:1035A100987F34124D8E7F62124D987F18124D8E86
:1035B1007F0D124D8E7F71124D8E7FED124D8E7FDC
:1035C10070124D8E7F70124D8E7F18124D8E7F0FAF
:1035D100124D8E7F71124D8E7FEF124D8E7F7012C4
:1035E1004D8E7F70124D8E7F63124D987F18124D54
:1035F1008E7F11124D8E7F71124D8E7FF1124D8E85
:103601007F70124D8E7F70124D8E7F18124D8E7FFE
:1036110013124D8E7F71124D8E7FF3124D8E7F707E
:10362100124D8E7F70124D8E7F64124D987F28123D
:103631004D8E7F29124D8E7FF1124D8E7F01124DDD
:103641008E7FF1124D897F07124D8E7F66124D9844
:103651007F3C124D897FCD124D8E7F67124D8E7F3B
:1036610045124D8E7F45124D8E7F10124D7F7F6723
:10367100124D98E4FF124D8E7F3C124D7F7F011257
:103681004D8E7F54124D8E7F10124D8E7F32124D12
:103691008E7F98124D8E7F74124D987F10124D8E31
:1036A1007F85124D8E7F80124D847F4E124D897F12
:1036B10098124D987F3E124D8E7F07124D8E7F35A9
:1036C100124D987F21124D987F11124D987F787E6F
:1036D10000124D527F29124D987F147E00024D52E7
:1000030000000000000000000000000000000000ED
:100013000000000808080808080800001818000075
:1000230000486C24120000000000000000000000E3
:100033000000002424247F1212127F1212120000E7
:100043000000081C2A2A0A0C1828282A2A1C080837
:1000530000000022251515152A5854545422000077
:100063000000000C1212120A76252911916E00006D
:10007300000606040300000000000000000000006A
:10008300004020101008080808080810102040003D
:1000930000020408081010101010100808040200D1
:1000A3000000000008086B1C1C6B0808000000001F
:1000B30000000000080808087F080808080000007E
:1000C300000000000000000000000000060604031A
:1000D3000000000000000000FE000000000000001F
:1000E3000000000000000000000000000606000001
:1000F3000000804040202010100808040402020081
:1001030000000018244242424242424224180000A6
:10011300000000080E08080808080808083E000048
:100123000000003C4242422020100804427E0000AE
:100133000000003C4242201820404042221C0000A4
:10014300000000203028242422227E202078000072
:100153000000007E0202021A26404042221C0000D8
:10016300000000382402021A2642424224180000EA
:100173000000007E2222101008080808080800006A
:100183000000003C4242422418244242423C000008
:10019300000000182442424264584040241C0000DE
:1001A30000000000000018180000000018180000EC
:1001B3000000000000000008000000000008080420
:1001C3000000004020100804020408102040000032
:1001D3000000000000007F0000007F00000000001E
:1001E3000000000204081020402010080402000050
:1001F3000000003C42424640201010001818000046
:100203000000001C225A555555552D42221C000052
:100213000000000808181414243C224242E700009E
:100223000000001F2222221E22424242221F0000FF
:100233000000007C4242010101010142221C000036
:100243000000001F2242424242424242221F00005B
:100253000000003F4212121E12120242423F0000EF
:100263000000003F4212121E121202020207000097
:100273000000003C2222010101712122221C000006
:10028300000000E7424242427E42424242E700000F
:100293000000003E0808080808080808083E000097
:1002A3000000007C10101010101010101010110F0F
:1002B3000000007722120A0E0A121222227700008F
:1002C300000000070202020202020202427F000053
:1002D30000000077363636362A2A2A2A2A6B00008F
:1002E300000000E346464A4A525252626247000007
:1002F3000000001C2241414141414141221C0000B8
:100303000000003F424242423E0202020207000056
:100313000000001C2241414141414D53321C600009
:100323000000003F4242423E1212222242C7000016
:100333000000007C4242020418204042423E00007A
:100343000000007F4908080808080808081C000086
:10035300000000E74242424242424242423C000025
:10036300000000E742422224241414180808000065
:100373000000006B494949495555362222220000A5
:10038300000000E7422424181818242442E7000040
:10039300000000772222141408080808081C000033
:1003A3000000007E2120101008040442423F000098
:1003B30000780808080808080808080808087800EA
:1003C3000000020204040808081010202020404006
:1003D300001E1010101010101010101010101E001E
:1003E300003844000000000000000000000000008E
:1003F300000000000000000000000000000000FFFB
:1004030000060800000000000000000000000000DB
:10041300000000000000003C4278444242FC00001F
:10042300000000030202021A26424242261A00007A
:1004330000000000000000384402020244380000BB
:1004430000000060404040784442424264D80000CB
:10045300000000000000003C427E0202423C00001B
:10046300000000F08808087E08080808083E00001D
:10047300000000000000007C22221C023C42423C9F
:10048300000000030202023A4642424242E70000F1
:100493000000000C0C00000E08080808083E0000CD
:1004A3000000003030000038202020202020221EB1
:1004B3000000000302020272120A161222770000E1
:1004C3000000000E0808080808080808083E000095
:1004D300000000000000007F9292929292B7000009
:1004E300000000000000003B4642424242E7000099
:1004F300000000000000003C42424242423C000037
:10050300000000000000001B26424242221E020798
:10051300000000000000007844424242447840E07A
:1005230000000000000000774C040404041F0000D6
:10053300000000000000007C42023C40423E0000FC
:10054300000000000008083E080808080830000002
:1005530000000000000000634242424262DC0000EF
:1005630000000000000000E74224241408080000F3
:1005730000000000000000EB49495555222200000D
:10058300000000000000007624181818246E0000F4
:1005930000000000000000E74224241418080807A4
:1005A300000000000000007E22100808447E0000C6
:1005B30000C0202020202010202020202020C00048
:1005C3001010101010101010101010101010101028
:1005D30000060808080808100808080808080600A4
:1005E3000C32C20000000000000000000000000008
:1005F30000000000000000000000000000000000F8
:1006030000000000000000000000000000000000E7
:1006130000000000000000000000000000000000D7
:1006230000000000000000000000000000000000C7
:1006330000000000000000000000C001C001C00174
:10064300C001C001C001C0018000800080008000A3
:100653008000800080000000000000000000800196
:10066300C003C00380010000000000000000000080
:10067300000000000000E01CE01CF01E700E3807B4
:1006830018030801840000000000000000000000BF
:100693000000000000000000000000000000000057
:1006A3000000000000000000000000000000000047
:1006B30000000000000000000000000020102010D7
:1006C300201020102010FE7FFE7F10081008100855
:1006D3001008100810081008FE7FFE7F08040804A5
:1006E30008040804080400000000000000000000E3
:1006F300000000000000000000010001C0076019B5
:10070300103118311839183938017001E001C0036C
:100713008007000F001D003900311C311C310C31E2
:100723000C11180DE007000100010001000000009A
:100733000000000000000000000000001C1036183C
:100743006308630C63046304630263026301361D7D
:100753009C3780228063406340632063206330635F
:1007630010221836081C00000000000000000000E2
:10077300000000000000000000000000F0009801ED
:100783008C018C018C018C018C00CC007800183E0C
:100793001C083608320863046304C304C303834399
:1007A30006438E26781C00000000000000000000B5
:1007B3000000000000001C003C003C003000300042
:1007C30010000C0006000000000000000000000004
:1007D3000000000000000000000000000000000016
:1007E3000000000000000000000000000000000006
:1007F3000000000000000040002000100008000C72
:10080300000400060003000300038001800180014F
:100813008001800180018001800100030003000347
:1008230000060006000C0008001000200040000035
:100833000000000000000200040008001000300067
:1008430020006000C000C000C00080018001800162
:1008530080018001800180018001C000C000C000D0
:100863006000600030001000080004000200000077
:100873000000000000000000000000000000000075
:1008830000018003800300011C713C79783DC0079F
:100893000001C007783D3C791C710001800380038F
:1008A30080010000000000000000000000000000C4
:1008B3000000000000000000000000000000000035
:1008C300000000010001000100010001000100011E
:1008D300FC7F000100010001000100010001000193
:1008E3000000000000000000000000000000000005
:1008F30000000000000000000000000000000000F5
:1009030000000000000000000000000000000000E4
:1009130000000000000000000000000000000000D4
:100923001C003C003C003000300010000C000600AE
:1009330000000000000000000000000000000000B4
:1009430000000000000000000000000000000000A4
:10095300FE7F000000000000000000000000000017
:100963000000000000000000000000000000000084
:100973000000000000000000000000000000000074
:100983000000000000000000000000000000000064
:10099300000000000000000000000000000018003C
:1009A3003C003C00180000000000000000000000B4
:1009B3000000000000000040006000200030001034
:1009C30000180008000C00040006000200030001E8
:1009D30080018000C0004000600020003000100053
:1009E300180008000C0004000600020000000000CC
:1009F300000000000000000000000000C007600CC1
:100A030030181830183018200C600C600C600C6023
:100A13000C600C600C600C600C60182018301830EF
:100A23003018600CC0070000000000000000000048
:100A33000000000000000000000000000001800131
:100A4300F801800180018001800180018001800123
:100A5300800180018001800180018001800180018B
:100A63008001C003F81F0000000000000000000028
:100A7300000000000000000000000000E007101C60
:100A83000818043004300C300C3000300018000813
:100A930000040002000180004000202010200820F4
:100AA3000430FC1FFC1F00000000000000000000D9
:100AB300000000000000000000000000E003180E2A
:100AC3000C0C0C180C180C180018000C0006C003B2
:100AD300000E00180010003000300C300C300C10E9
:100AE3000C18180CE00300000000000000000000D8
:100AF300000000000000000000000000000C000ED9
:100B0300000E000F800E800E400E600E200E100EA1
:100B1300100E080E040E040EFE7F000E000E000ED3
:100B2300000E000E000EC07F000000000000000059
:100B3300000000000000000000000000F03FF03F54
:100B430010001000100008000800C807280C18182F
:100B5300081000300030003000300C300C30041826
:100B63000418080CF003000000000000000000005F
:100B7300000000000000000000000000800FC01013
:100B8300203010301800180008000C008C0F6C186F
:100B93003C301C600C600C600C600C60186018200A
:100BA30030306018C00700000000000000000000A3
:100BB300000000000000000000000000F83FF83FC4
:100BC3001C100C08040804040004000200020001C5
:100BD30000010001800080008000C000C000C00050
:100BE300C000C000C00000000000000000000000C2
:100BF300000000000000000000000000E007300CCF
:100C030018180C300C300C301C3038187008E00702
:100C1300B007180E0C1C06380630063006300630B6
:100C23000C18180CE0030000000000000000000096
:100C3300000000000000000000000000E0031804B2
:100C43000C080C180610063006300630063006383D
:100C53000C3C1836F03100300018001800180C0C4A
:100C63000C060C03F001000000000000000000006F
:100C73000000000000000000000000000000000071
:100C8300000000000000000000008001C003C0035A
:100C9300800100000000000000000000000080014F
:100CA300C003C0038001000000000000000000003A
:100CB3000000000000000000000000000000000031
:100CC30000000000000000000000C000C0000000A1
:100CD3000000000000000000000000000000000011
:100CE3000000C000C0008000800040004000000001
:100CF30000000000000000000000002000100008B9
:100D03000004000600038001C000600030001800EA
:100D13000C00180030006000C000800100030006D2
:100D23000004000800100020000000000000000084
:100D330000000000000000000000000000000000B0
:100D430000000000000000000000FE7F0000000023
:100D5300000000000000FE7F000000000000000013
:100D63000000000000000000000000000000000080
:100D73000000000000000000000004000800100054
:100D830020006000C000800100030006000C001872
:100D930000300018000C000600038001C000600052
:100DA3002000100008000400000000000000000004
:100DB30000000000000000000000C00730180830E9
:100DC30008600C601C601C601C600030001C000686
:100DD300000180008000800080000000000080018E
:100DE300C003C003800100000000000000000000F9
:100DF300000000000000000000000000C0076018B1
:100E0300103018200C2F8C4D864CC64CC64C664CAB
:100E130066446644662666266615CC1C0C4008208C
:100E230018303018C0070000000000000000000068
:100E3300000000000000000000000001C001C0012C
:100E4300C001400160032003200320033006100685
:100E530010061006F80F080C080C080C0C0C0418EC
:100E6300041806181F7C00000000000000000000AA
:100E7300000000000000000000000000FE07181C36
:100E8300183818301830183018301818180CF8079C
:100E93001818183018201860186018601860186047
:100EA30018301818FE0F00000000000000000000BA
:100EB300000000000000000000000000C0276038B0
:100EC300103018200C400C400400060006000600F9
:100ED300060006000600060006000C400C400C202D
:100EE30018303018C00700000000000000000000A8
:100EF300000000000000000000000000FE03180EC8
:100F030018181830183018301860186018601860F6
:100F130018601860186018601860183018301810BE
:100F23001818180EFE030000000000000000000067
:100F3300000000000000000000000000FE3F183029
:100F4300182018601840180018081808180CF80F13
:100F5300180C180818081800180018001840184032
:100F630018201830FE3F00000000000000000000C1
:100F7300000000000000000000000000FE7F187069
:100F8300184018C018801800181018101818F81FE7
:100F93001818181018101800180018001800180056
:100FA300180018007E000000000000000000000090
:100FB300000000000000000000000000C013701CCF
:100FC300101018100C200C20040006000600060068
:100FD3000600060006FC063006300C300C301830D4
:100FE30018303008C00700000000000000000000B7
:100FF3000000000000000000000000003F7E0C180D
:101003000C180C180C180C180C180C180C180C18BD
:10101300FC1F0C180C180C180C180C180C180C18B6
:101023000C180C183F7E00000000000000000000B8
:10103300000000000000000000000000F81F800115
:101043008001800180018001800180018001800195
:101053008001800180018001800180018001800185
:1010630080018001F81F0000000000000000000064
:10107300000000000000000000000000E07F000608
:10108300000600060006000600060006000600062D
:10109300000600060006000600060006000600061D
:1010A30000060006000600060E060E038E01FC0075
:1010B3000000000000000000000000007E7C181803
:1010C3001808180418061802180198019801D80185
:1010D300B803380318071806180E180C181C18182C
:1010E300183018307EFC00000000000000000000F3
:1010F3000000000000000000000000007E00180057
:10110300180018001800180018001800180018001C
:10111300180018001800180018001800184018408C
:1011230018201830FE3F00000000000000000000FF
:101133000000000000000000000000001FF81C3841
:101143001C381C381C3C3434343434343436743254
:101153006432643264326431C431C431C431C43062
:10116300C43084309FFC0000000000000000000039
:101173000000000000000000000000001F7C1C10A5
:101183003C103410341074106410E410C410C411F3
:1011930084118413041304170416041E041C041C72
:1011A300041C04181F1800000000000000000000C9
:1011B300000000000000000000000000C003300C2D
:1011C300181808100C300C300660066006600660C4
:1011D300066006600660066006600C200C3008108E
:1011E3001818300CC00300000000000000000000CD
:1011F300000000000000000000000000FE0F1818AF
:1012030018301860186018601860186018301818C3
:10121300F80F18001800180018001800180018001C
:10122300180018007E00000000000000000000000D
:10123300000000000000000000000000C003300CAC
:1012430018180C100C300C2006600660066006604F
:1012530006600660066006600660E4612C331C329B
:101263001816300EC007004C007C00380000000048
:10127300000000000000000000000000FE07181C32
:10128300183818301830183018301818180CF80798
:1012930098031803180718061806180E180C180CCC
:1012A300181C18187E7800000000000000000000E1
:1012B300000000000000000000000000E0273038BC
:1012C30018300C200C200C000C0018007800E003F0
:1012D300800F001E00380070006004600460086026
:1012E30018303818C80F000000000000000000008C
:1012F300000000000000000000000000FC3F8C2103
:1013030084618241824180018001800180018001EA
:1013130080018001800180018001800180018001C2
:1013230080018001E00700000000000000000000D1
:101333000000000000000000000000003F7C0C10D3
:101343000C100C100C100C100C100C100C100C10BA
:101353000C100C100C100C100C100C100C100C10AA
:1013630008083804E003000000000000000000004B
:101373000000000000000000000000003EF81820FC
:10138300182018203010301030103010600860081A
:101393006008E00CC004C004C00480038003800321
:1013A30080030001000100000000000000000000B5
:1013B300000000000000000000000000DFF3866171
:1013C300862186218C210C218C238C138C138C1366
:1013D3004C1358125816580E380E380E380E300C5F
:1013E30010041004100400000000000000000000BE
:1013F3000000000000000000000000007E3E18080E
:1014030038083004300470026002E001C001C001FA
:10141300800180034003400720062006100C100CB7
:10142300081808183E7C00000000000000000000BF
:101433000000000000000000000000007E7C1C1083
:10144300181018083008300C700460046002C002E1
:10145300C002C00180018001800180018001800100
:1014630080018001E0070000000000000000000090
:10147300000000000000000000000000F83F181802
:101483000818040C040E0006000700038003800103
:10149300C001C000E0006000700030003820182058
:1014A3001C100C18FE1F00000000000000000000CC
:1014B300000000000000C03F40004000400040002A
:1014C3004000400040004000400040004000400019
:1014D3004000400040004000400040004000400009
:1014E30040004000400040004000C03F00000000BA
:1014F30000000000000000000000080018001800B1
:10150300100030002000600060004000C000800038
:1015130080018001000100030002000600060004B0
:10152300000C000800180018001000300020000014
:10153300000000000000FC030002000200020002A1
:101543000002000200020002000200020002000288
:101553000002000200020002000200020002000278
:1015630000020002000200020002FC03000000006F
:101573000000000000008007C006200810100000D3
:101583000000000000000000000000000000000058
:101593000000000000000000000000000000000048
:1015A3000000000000000000000000000000000038
:1015B3000000000000000000000000000000000028
:1015C3000000000000000000000000000000000018
:1015D3000000000000000000000000000000000008
:1015E3000000000000000000000000000000FFFFFA
:1015F3000000000000007800C000000100000000AF
:1016030000000000000000000000000000000000D7
:1016130000000000000000000000000000000000C7
:1016230000000000000000000000000000000000B7
:1016330000000000000000000000000000000000A7
:1016430000000000000000000000F00318060C0C6E
:101653000C0C000C800F700C1C0C0C0C060C060CF4
:10166300064C0C4FF838000000000000000000009A
:101673000000000000000000000010001E00180021
:1016830018001800180018001800180FD818383060
:1016930038601860186018601860186018601820A7
:1016A30038307818C8070000000000000000000070
:1016B3000000000000000000000000000000000027
:1016C30000000000000000000000C007700C1818A4
:1016D30018180C180C000C000C000C000C2018201F
:1016E30018103008C00700000000000000000000D0
:1016F300000000000000000000000010001E0018A1
:1017030000180018001800180018E01B301C1818E7
:1017130018180C180C180C180C180C180C1808189E
:10172300181C307AE00900000000000000000000EF
:1017330000000000000000000000000000000000A6
:1017430000000000000000000000C007300C181863
:1017530008100C300C30FC3F0C000C000C0018205F
:1017630018107018C00700000000000000000000FF
:10177300000000000000000000000000003E80C3E5
:1017830080C0C0C0C000C000C000FC1FC000C000BB
:10179300C000C000C000C000C000C000C000C00046
:1017A300C000C000F80F00000000000000000000AF
:1017B3000000000000000000000000000000000026
:1017C30000000000000000000000C077306C10181B
:1017D3001818181818181018300CF00718001800EB
:1017E300F00FF03F08700C600C600C603838E00FAD
:1017F3000000000000000000000010001E001800A0
:1018030018001800180018001800980FD81838305E
:101813001830183018301830183018301830183085
:10182300183018307EFC00000000000000000000AB
:10183300000000000000000000000000800380039F
:1018430080030000000000000001F8018001800116
:10185300800180018001800180018001800180017D
:1018630080018001F81F000000000000000000005C
:1018730000000000000000000000000000380038F5
:1018830000380000000000000010801F001800183E
:101893000018001800180018001800180018001885
:1018A30000180018001800180018180C1806F00388
:1018B3000000000000000000000010001E001800DF
:1018C30018001800180018001800183E180C180605
:1018D300180318019801D801380318071806180CC3
:1018E300181C18187E7C0000000000000000000097
:1018F300000000000000000000000001F80180016A
:1019030080018001800180018001800180018001CC
:1019130080018001800180018001800180018001BC
:1019230080018001F81F000000000000000000009B
:1019330000000000000000000000000000000000A4
:1019430000000000000000000800EE1C9C338C31F6
:101953008C318C318C318C318C318C318C318C319C
:101963008C318C31DE7B00000000000000000000A1
:101973000000000000000000000000000000000064
:10198300000000000000000010001E0FD8183830BF
:101993001830183018301830183018301830183004
:1019A300183018307EFC000000000000000000002A
:1019B3000000000000000000000000000000000024
:1019C30000000000000000000000C007701C103081
:1019D30018300C600C600C600C600C600C601830EC
:1019E30018303018C007000000000000000000009D
:1019F30000000000000000000000000000000000E4
:101A0300000000000000000010009E0F581838303E
:101A13001820186018601860186018601860183073
:101A230038307818980718001800180018007E003E
:101A330000000000000000000000000000000000A3
:101A430000000000000000000000C023303C1838F4
:101A530018300C300C300C300C300C300C3008309B
:101A63001838303CE033003000300030003000FCE8
:101A73000000000000000000000000000000000063
:101A8300000000000000000060007E3C60666061B2
:101A9300E000E00060006000600060006000600043
:101AA30060006000FE07000000000000000000006E
:101AB3000000000000000000000000000000000023
:101AC30000000000000000000000E027303818305C
:101AD300182018007000E003800F001C043004304D
:101AE3000C301C18EC0F0000000000000000000088
:101AF30000000000000000000000000000000000E3
:101B0300800080008000C000E000FC1FC000C00017
:101B1300C000C000C000C000C000C000C000C020A2
:101B2300C0208011000F0000000000000000000032
:101B330000000000000000000000000000000000A2
:101B4300000000000000000010201E3C1830183078
:101B53001830183018301830183018301830183042
:101B6300183830F4E013000000000000000000000B
:101B73000000000000000000000000000000000062
:101B8300000000000000000000007E3C1818180848
:101B9300380830043004700260026002E001C001C2
:101BA300C001C00080000000000000000000000031
:101BB3000000000000000000000000000000000022
:101BC30000000000000000000000DFF78E630C231C
:101BD3008C238C239813981358165816700E700E76
:101BE300700E20042004000000000000000000002C
:101BF30000000000000000000000000000000000E2
:101C030000000000000000000000FC3E70087004AB
:101C1300E004C002C0018003800340076006200C7B
:101C2300100C18183E7E00000000000000000000A9
:101C330000000000000000000000000000000000A1
:101C4300000000000000000000007E7C1818180847
:101C530030083008300460046004C002C002C002CF
:101C63008001800180018000800080004C003C00E6
:101C73000000000000000000000000000000000061
:101C830000000000000000000000FC1F0C0C040E0C
:101C93000406000380038001C000E00070203020B0
:101CA30038301C18FC1F000000000000000000007A
:101CB30000000000000000300008000400040004DD
:101CC30000040004000400040004000400040002F3
:101CD3008001000200040004000400040004000466
:101CE30000040004000400040004000800300000A5
:101CF30000010001000100010001000100010001D9
:101D030000010001000100010001000100010001C8
:101D130000010001000100010001000100010001B8
:101D230000010001000100010001000100010001A8
:101D33000000000000000C00100020002000200024
:101D43002000200020002000200020002000400070
:101D530080014000200020002000200020002000FF
:101D63002000200020002000200010000C000000B4
:101D730000003800C400864002610022001C0000FD
:101D83000000000000000000000000000000000050
:101D93000000000000000000000000000000000040
:101DA3000000000000000000000000000000000030
:102A5D0060AA03FCD6D08000800080008000FC1F9F
:102A6D0084108410841084108410FC1F8410800046
:102A7D00800080008000BEB0F80F0808F80F08082D
:102A8D00F80F8000FF7F0000F80F08080808F80F06
:102A9D0080008410A2204000D4B00000FE3F022030
:102AAD00F22702200220FA2F22212221222112298F
:102ABD0012290A2E0220FE3F0220B5E78000800079
:102ACD008000FC1F841084108410FC1F841084105F
:102ADD008410FC1F845080408040007FD7D30000BD
:102AED00FE1F00080004000280018000FF7F8000AF
:102AFD0080008000800080008000A0004000617296
:102B0D00028AD6D000000000000000180000080066
:102B1D00000800000800080818F8FF1F180818180A
:102B2D000818180818180818180818180818F8FFA1
:102B3D001F08080800080000080000080000080031
:102B4D00001800001800001800000000BEB00000C2
:102B5D0000000000400006C0FF07400006C0FF0750
:102B6D00400006C0FF07400802003000FEFF3F0096
:102B7D000000C0FF07C00002C00002C00002C0FF7D
:102B8D000380100080110160100E3010180C1E30E3
:102B9D00001C00000000D4B0000000000000080080
:102BAD0030F8FF1F08001008C010083F1008001073
:102BBD00080010080013C8FF100822100822100882
:102BCD00221008221008211208211488601648C00E
:102BDD0013280010080010F8FF1F08001000000057
:102BED00B5E7000000000000001800000800000814
:102BFD0000000800F0FF0F1008041008041008046E
:102C0D00100804F0FF071008041008041008041041
:102C1D000804F0FF07100800000810000810000855
:102C2D002000183000F01F000000D7D30000000076
:102C3D000000000004F0FF0F00000600000100C0BE
:102C4D0000002800001800001800001830FEFF7F5B
:102C5D0000180000180000180000180000180000EF
:102C6D001800001800001800001800001F00000CCC
:102C7D0000000000628A0000D6D0000000000000B5
:102C8D000000008000000080010000800100008035
:102C9D00010000800100008001001080010CF0FF98
:102CAD00FF0F30800104308001043080010430803A
:102CBD000104308001043080010430800104308033
:102CCD000104F0FFFF073080010430800104008013
:102CDD0001000080010000800100008001000080E3
:102CED0001000080010000800100008001000080D3
:102CFD0001000080000000000000BEB000000000D8
:102D0D0000000000000000000001800100FFFF0135
:102D1D00000380010003800100FFFF01000380011B
:102D2D000003800100FFFF0100818100000003000E
:102D3D000000031CFCFFFF3F000040000003C0012A
:102D4D0000FFFF010003C0000003C0000003C0002E
:102D5D0000FFFF000001410000040100000E7100A2
:102D6D0000078101800101076000010E1898011C08
:102D7D0004E0011800C0000000000000D4B0000005
:102D8D0000000000000000000008F0FFFF1F3000F1
:102D9D00000C3000000C3000100C30FE3F0C3004E5
:102DAD00000C3000000C3000000C3000000C300026
:102DBD00C00CF0FFFF0D3030060E3030060C301019
:102DCD00060C3010060C3010060C3018860C30181E
:102DDD00860C3008060D300C860D3006EE0F3002D5
:102DED00FC0D3001000CF000000C3000000CF0FF69
:102DFD00FF0F3000000C1000000400000000B5E7CC
:102E0D00000000000000000000C0000000C0010034
:102E1D0000C0000000C0000000C0000000C00000A5
:102E2D00E0FFFF0360C0000360C0000360C000034B
:102E3D0060C0000360C0000360C00003E0FFFF033B
:102E4D0060C0000360C0000360C0000360C00003E9
:102E5D0060C00003E0FFFF0360C0000160C0000020
:102E6D0000C0000800C0001000C0001000C0001815
:102E7D0000C001380080FF1F0000000000000000AE
:102E8D00D7D300000000000000000000000000008B
:102E9D000003C0FFFF07000080070000C000000016
:102EAD0060000000180000000C000080030000808E
:102EBD00030000800100008001080080011CFCFF60
:102ECD00FF3F0080010000800100008001000080B4
:102EDD0001000080010000800100008001000080E1
:102EED0001000080010000800100008001000080D1
:102EFD00010000FC010000E00000004000000000A7
:022F0D000000C2
:104A82009004ACEEF0A3EFF0A3ECF0A3EDF0A3EAF8
:044A9200F0A3EBF0B2
:104A9600C006C00724FFFBEA34FFFAA3E0FEA3E04A
:104AA60024FFFFEE34FF9004DFF0A3EFF0D007D031
:104AB60006124CF49004AEE0FFA3E09004B6CFF0EB
:104AC600A3EFF09004B2E0FEA3E0FFC39004B7E0CA
:104AD6009F9004B6E09E504F9004ACE0FFA3E09098
:104AE60004B8CFF0A3EFF09004B0E0FEA3E0FFC35C
:104AF6009004B9E09F9004B8E09E501B9004B4E087
:104B0600FEA3E0FF124D719004B9E004F070D89056
:104B160004B8E004F080D09004B7E004F070A490EC
:074B260004B6E004F0809CDE
:014B2D002265
:104C4400900506FEE0FCA3E0FDC3900502E09DFD97
:0E4C5400900501E09CFC900504E0FAA3E0FB53
:104C62009004D3EEF0A3EFF09004D7EAF0A3EBF0B8
:104C72009004D5ECF0A3EDF09004D3E0FAA3E0FBAE
:104C8200FFAE02C007A3E0FFA3E09004DFCFF0A3D2
:104C9200EFF0D007124CF49004D7E0FEA3E0FF023D
:024CA2004D7152
:0E3DD8009004E1EEF0A3EFF0A3ECF0A3EDF009
:103DE600E49004EDF0A3F0A3F0A3F09004E1E0FE6C
:103DF600A3E0FFC3EB9FFFEA9E9004F1F0A3EFF070
:103E06009004E3E0FAA3E0FBC39004E8E09BFE9095
:103E160004E7E09A9004F3F0A3CEF09004E1E0FF0B
:103E2600A3E09004FBCFF0A3EFF0A3EAF0A3EBF03E
:103E36009004F1E0FEA3E0FFD39400EE648094804A
:103E4600400A9004F7E4F0A304F08021EF4E7008D6
:103E56009004F7F0A3F0801574FF9004F7F0A3F038
:103E6600C3E49FFFE49E9004F1F0A3EFF09004F307
:103E7600E0FEA3E0FFD39400EE64809480400A90B5
:103E860004F9E4F0A304F08027EF4E70089004F9DB
:103E9600F0A3F0801B74FF9004F9F0A3F09004F1F6
:103EA600E0FEA3E0FFC3E49FFFE49EA3F0A3EFF0D0
:103EB6009004F3E0FEA3E0FF9004F1E0FCA3E0FD34
:103EC600D39FEE6480F8EC6480989004F54007EC8C
:103ED600F0A3EDF08005EEF0A3EFF0E49004EBF034
:103EE600A3F09004F6E02401FF9004F5E03400FE10
:103EF600C39004ECE09F9004EBE09E4003023FCBAE
:103F06009004FBE0FEA3E0FFA3E0FCA3E0FD900429
:103F1600E9124C5D9004F1E0FEA3E0FF9004EEE0B0
:103F26002FF09004EDE03EF09004F3E0FEA3E0FFF6
:103F36009004F0E02FF09004EFE03EF09004F5E0FE
:103F4600FEA3E0FF9004EDE0FCA3E0FDD39FEE644A
:103F560080F8EC6480984020ED9FFFEC9E9004ED85
:103F6600F0A3EFF09004F7E0FEA3E0FF9004FCE07E
:103F76002FF09004FBE03EF09004F5E0FEA3E0FF96
:103F86009004EFE0FCA3E0FDD39FEE6480F8EC64C0
:103F960080984020ED9FFFEC9E9004EFF0A3EFF099
:103FA6009004F9E0FEA3E0FF9004FEE02FF09004F9
:103FB600FDE03EF09004ECE004F070069004EBE0C7
:053FC60004F0023EE8DA
:013FCB0022D3
:10499C0090050EEAF0A3EBF090050AEEF0A3EFF011
:1049AC00A3ECF0A3EDF0C007A3E0FAA3E0FB9005A5
:1049BC000CE0FFA3E09004E7CFF0A3EFF09005121A
:1049CC00E0FFA3E09004E9CFF0A3EFF0D007123D95
:1049DC00D890050AE0FAA3E0FBFFAE02C007A3E003
:1049EC00FCA3E0FD900510E0FFA3E09004E7CFF0FE
:1049FC00A3EFF0900512E0FFA3E09004E9CFF0A341
:104A0C00EFF0D007123DD8900510E0FCA3E0FD902C
:104A1C00050EE0FAA3E0FBA3E0FFA3E09004E7CFD0
:104A2C00F0A3EFF0900512E0FFA3E09004E9CFF0C3
:104A3C00A3EFF090050AE0FEA3E0FF123DD890052D
:104A4C000EE0FAA3E0FBFFAE02C00790050CE0FC01
:104A5C00A3E0FD900510E0FFA3E09004E7CFF0A3E6
:104A6C00EFF0900512E0FFA3E09004E9CFF0A3EF84
:064A7C00F0D007023DD856
:1041AD009004FFEEF0A3EFF0A3ECF0A3EDF0A3EB82
:0141BD00F011
:1041BE00E4900506F0A3F0EBFFA3E4F0A3EFF0907C
:1041CE000508E0FEA3E0FFD3900507E09FEE6480B4
:1041DE00F8900506E0648098400302434CC39005B6
:1041EE0000E09FFF9004FFE09E124C44900508E013
:1041FE00FEA3E0FF900500E02FFF9004FFE03E12CB
:10420E004C44900506E0FEA3E0FFC3900500E09F3E
:10421E00FF9004FFE09EFE900508E0FCA3E0FD90F9
:10422E000502E02DFD900501E03C124C599005066B
:10423E00E0FEA3E0FFC3900500E09FFF9004FFE0C7
:10424E009E900508124C47900508E0FEA3E0FF90F3
:10425E000500E02FFF9004FFE03EFE900506E0FC17
:10426E00A3E0FD900502E02DFD900501E03C124C0F
:10427E0059900506E0FEA3E0FF900500E02FFF90A9
:10428E0004FFE03EFE900508124C48900506E0FE45
:10429E00A3E0FF900500E02FFF9004FFE03EFE90AC
:1042AE000508E0FCA3E0FD900502E02DFD90050160
:1042BE00E03C124C59900508E0FEA3E0FFC39005C8
:1042CE0000E09FFF9004FFE09EFE900506E0FCA339
:1042DE00E0FD900502E02DFD900501E03C124C59E9
:1042EE00900507E004F07006900506E004F09005D6
:1042FE0008E0FCA3E0FDFFAE041231D5AA06AB0721
:10430E00900506E0FCA3E0FDFFAE041231D5EF2BC5
:10431E00FDEE3AFC900503E0F5F0A4FFD3ED9FE52A
:10432E00F06480F8EC64809850030241CD9005094A
:0E433E00E024FFF0900508E034FFF00241CDCE
:01434C00224E
:10461A009004ACEEF0A3EFF0A3ECF0A3EDF0A3EB63
:10462A00F0A3EAF0A3E9F09004B0E0FBA3E0FAA358
:10463A00E0F912318F70030247519004B7E0641019
:10464A0070449004AEE0FCA3E0FD9004B3E0FFA345
:10465A00E09004C0CFF0A3EFF09004B5E0FFA3E030
:10466A009004C2CFF0A3EFF09004B7E09004C4F036
:10467A009004B8E09004C5F09004ACE0FEA3E0FF1B
:10468A001236E10247329004B7E06418704A900487
:10469A00AEE0FCA3E0FDA3E0FBA3E0FAA3E0F9A3EC
:1046AA00E0FFA3E09004C0CFF0A3EFF09004B5E0E0
:1046BA00FFA3E09004C2CFF0A3EFF09004B7E0901C
:1046CA0004C4F09004B8E09004C5F09004ACE0FE95
:1046DA00A3E0FF12393680509004B7E06420706777
:1046EA009004AEE0FCA3E0FDA3E0FBA3E0FAA3E0A4
:1046FA00F9A3E0FFA3E09004C0CFF0A3EFF0900489
:10470A00B5E0FFA3E09004C2CFF0A3EFF09004B7A6
:10471A00E09004C4F09004B8E09004C5F09004ACB2
:10472A00E0FEA3E0FF123B879004B1E475F00212A9
:10473A0031E79004B7E0FF9004ADE02FF09004ACAD
:08474A00E03400F002463122C8
:1036E1009004B9EEF0A3EFF0A3ECF0A3EDF0A3EB9F
:0736F100F0A3EAF0A3E9F0E9
:1036F8009004B9E0FFA3E09004CECFF0A3EFF090E0
:1037080004C4E0FF131313541F8FF0A4FF9004CCDC
:10371800E5F0F0A3EFF09004CAE4F0A37405F0E438
:103728009004C8F0A3F09004CAE0FEA3E0FF900460
:10373800C8E0FCA3E0FDC39FEC9E4003023935902E
:1037480004BDE0FBA3E0FAA3E0F912318FFF900378
:10375800FC75F022ED123365EC75F022A42583F593
:1037680083E06F60030239249000011231A8FF90B2
:1037780004C8A3E09003FD75F022123365EC75F0E0
:1037880022A42583F583E06F60030239249004BBEB
:10379800E0FCA3E0FD9004C4E0F9FF7E009004B9CA
:1037A800E0FAA3E02FFFEE3ACF24FFFBEF34FFFA55
:1037B800E9FFA3E0F8A3E02FFFEE38CF24FFCF34D2
:1037C800FF9004DFF0A3EFF09004B9E0FEA3E0FF60
:1037D800124CF4E49004C6F09004C6E0FFD39004C1
:1037E800CDE09F9004CCE094005003023924E4908B
:1037F80004C7F09004C7E0C3940874809480400321
:1038080002391B9004C5E0705C9004C8A3E075F011
:1038180022A424FEF582E43403F583C083C0829099
:1038280004C6E0D082D0832582F582E43583F5830F
:10383800E0FD7C009004C7E0FF7E007401A8070843
:103848008005C333CE33CED8F9FFEE5CFEEF5D4E74
:1038580060059004C080039004C2E0FEA3E0FF125C
:103868004D710239129004C8A3E075F022A424FE19
:10387800F582E43403F583C083C0829004C6E0D0A7
:1038880082D0832582F582E43583F583E0FD7C00D0
:103898009004C7E0FF7E007401A807088005C333C1
:1038A800CE33CED8F9FFEE5CFEEF5D4E6014900487
:1038B800B9E0FEA3E0FFA3E0FCA3E0FD9004C01282
:1038C8004C5D9004BAE004F070069004B9E004F08E
:1038D8009004CEE0FEA3E0FFC39004BAE09FFD9001
:1038E80004B9E09EFC9004C4E07A00B5051CEAB572
:1038F80004189004B9EEF0A3EFF09004BCE004F0D3
:1039080070119004BBE004F080099004C7E004F053
:103918000237FB9004C6E004F00237E09004C9E0E7
:0D39280004F070069004C8E004F002372E91
:01393500226F
:103936009004B9EEF0A3EFF0A3ECF0A3EDF0A3EB47
:07394600F0A3EAF0A3E9F091
:10394D009004B9E0FFA3E09004CECFF0A3EFF09088
:10395D0004C4E0FF131313541F8FF0A4FF9004CC85
:10396D00E5F0F0A3EFF09004CAE4F0A37405F0E4E1
:10397D009004C8F0A3F09004CAE0FEA3E0FF900409
:10398D00C8E0FCA3E0FDC39FEC9E4003023B869084
:10399D0004BDE0FBA3E0FAA3E0F912318FFF900222
:1039AD008A75F04AED123365EC75F04AA42583F55E
:1039BD0083E06F6003023B759000011231A8FF9008
:1039CD0004C8A3E090028B75F04A123365EC75F0D4
:1039DD004AA42583F583E06F6003023B759004BB19
:1039ED00E0FCA3E0FD9004C4E0F9FF7E009004B973
:1039FD00E0FAA3E02FFFEE3ACF24FFFBEF34FFFAFE
:103A0D00E9FFA3E0F8A3E02FFFEE38CF24FFCF347A
:103A1D00FF9004DFF0A3EFF09004B9E0FEA3E0FF08
:103A2D00124CF4E49004C6F09004C6E0FFD3900469
:103A3D00CDE09F9004CCE094005003023B75E490E0
:103A4D0004C7F09004C7E0FFC394087480948040CD
:103A5D0003023B6C9004C5E07056A3E0FE9004C8D1
:103A6D00E0FCA3E090028C75F04A123365EC75F022
:103A7D004AA42583F583E5822EF582E43583F5830B
:103A8D00E0FD7C007E007401A807088005C333CEDD
:103A9D0033CED8F9FFEE5CFEEF5D4E60059004C0AD
:103AAD0080039004C2E0FEA3E0FF124D71023B6360
:103ABD009004C6E0FF9004C8E0FCA3E090028C7572
:103ACD00F04A123365EC75F04AA42583F583E5823F
:103ADD002FF582E43583F583E0FD7C009004C7E08B
:103AED00FF7E007401A807088005C333CE33CED8FE
:103AFD00F9FFEE5CFEEF5D4E60149004B9E0FEA39D
:103B0D00E0FFA3E0FCA3E0FD9004C0124C5D900427
:103B1D00BAE004F070069004B9E004F09004CEE031
:103B2D00FEA3E0FFC39004BAE09FFD9004B9E09EB0
:103B3D00FC9004C4E07A00B5051CEAB504189004A5
:103B4D00B9EEF0A3EFF09004BCE004F07011900416
:103B5D00BBE004F080099004C7E004F0023A5090F5
:103B6D0004C6E004F0023A359004C9E004F0700692
:093B7D009004C8E004F002398351
:013B8600221C
:103B87009004B9EEF0A3EFF0A3ECF0A3EDF0A3EBF4
:073B9700F0A3EAF0A3E9F03E
:103B9E009004B9E0FFA3E09004CECFF0A3EFF09035
:103BAE0004C4E0FF131313541F8FF0A4FF9004CC32
:103BBE00E5F0F0A3EFF09004CAE4F0A37405F0E48E
:103BCE009004C8F0A3F09004CAE0FEA3E0FF9004B6
:103BDE00C8E0FCA3E0FDC39FEC9E4003023DD790DE
:103BEE0004BDE0FBA3E0FAA3E0F912318FFF9000D1
:103BFE000075F082ED123365EC75F082A42583F525
:103C0E0083E06F6003023DC69000011231A8FF9061
:103C1E0004C8A3E090000175F082123365EC75F0D4
:103C2E0082A42583F583E06F6003023DC69004BB3A
:103C3E00E0FCA3E0FD9004C4E0F9FF7E009004B91F
:103C4E00E0FAA3E02FFFEE3ACF24FFFBEF34FFFAAA
:103C5E00E9FFA3E0F8A3E02FFFEE38CF24FFCF3427
:103C6E00FF9004DFF0A3EFF09004B9E0FEA3E0FFB5
:103C7E00124CF4E49004C6F09004C6E0FFD3900416
:103C8E00CDE09F9004CCE094005003023DC6E4903A
:103C9E0004C7F09004C7E0FFC3940874809480407A
:103CAE0003023DBD9004C5E07056A3E0FE9004C82B
:103CBE00E0FCA3E090000275F082123365EC75F023
:103CCE0082A42583F583E5822EF582E43583F58380
:103CDE00E0FD7C007E007401A807088005C333CE8A
:103CEE0033CED8F9FFEE5CFEEF5D4E60059004C05A
:103CFE0080039004C2E0FEA3E0FF124D71023DB4BA
:103D0E009004C6E0FF9004C8E0FCA3E090000275AA
:103D1E00F082123365EC75F082A42583F583E5827B
:103D2E002FF582E43583F583E0FD7C009004C7E037
:103D3E00FF7E007401A807088005C333CE33CED8AA
:103D4E00F9FFEE5CFEEF5D4E60149004B9E0FEA349
:103D5E00E0FFA3E0FCA3E0FD9004C0124C5D9004D4
:103D6E00BAE004F070069004B9E004F09004CEE0DE
:103D7E00FEA3E0FFC39004BAE09FFD9004B9E09E5D
:103D8E00FC9004C4E07A00B5051CEAB50418900452
:103D9E00B9EEF0A3EFF09004BCE004F070119004C3
:103DAE00BBE004F080099004C7E004F0023CA1904F
:103DBE0004C6E004F0023C869004C9E004F07006EC
:093DCE009004C8E004F0023BD4AB
:013DD70022C9
:103FCC009004BFEEF0A3EFF0A3ECF0A3EDF0A3EBA5
:013FDC00F0F4
:103FDD009004BFE0FFA3E09004D1CFF0A3EFF090E9
:103FED0004C8E0FFC3139004CBF0E0FB131313548C
:103FFD001F8FF0A4FF9004CFE5F0F0A3EFF0900435
:10400D00C3E024E0F09004C1E0FCA3E0FDEBFF7EF3
:10401D00009004BFE0FAA3E02FFFEE3ACF24FFFBA0
:10402D00EF34FFFA9004C8E0FF9004C1E0F8A3E07C
:10403D002FFFEE38CF24FFCF34FF9004DFF0A3EF36
:10404D00F09004BFE0FEA3E0FF124CF4E49004CD29
:10405D00F0A3F09004CFE0FEA3E0FF9004CDE0FCD0
:10406D00A3E0FDC39FEC9E40030241AC9004C8E069
:10407D00F96410701C9004C3E075F010A42403F5CE
:10408D0082E5F03400F583E5822DF582E5833C80F1
:10409D002AE9642060030241AC9004CDE0FEA3E068
:1040AD00FF9004C3E075F040A424F3F582E5F034ED
:1040BD0005F583E5822FF582E5833EF583E4939044
:1040CD0004CAF0E49004CCF09004CCE0FFC3940853
:1040DD0074809480400302419B9004C9E0702BFED4
:1040ED0004A807088005C333CE33CED8F9FF90045A
:1040FD00CAE0FDEF5D60059004C480039004C6E046
:10410D00FEA3E0FF124D710241929004CCE0FF7EC0
:10411D00007401A807088005C333CE33CED8F9FF4C
:10412D009004CAE0FDEF5D60149004BFE0FEA3E0D3
:10413D00FFA3E0FCA3E0FD9004C4124C5D9004C00D
:10414D00E004F070069004BFE004F09004D1E0FEAE
:10415D00A3E0FFC39004C0E09FFD9004BFE09EFC70
:10416D009004CBE07A00B5051CEAB504189004BFA5
:10417D00EEF0A3EFF09004C2E004F070119004C1D2
:10418D00E004F080099004CCE004F00240D59004E6
:0F419D00CEE004F070069004CDE004F002406024
:0141AC0022F0
:104BBA009004ACEEF0A3EFF0A3ECF0A3EDF0A3EBBE
:104BCA00F0A3EAF0A3E9F09004B0E0FBA3E0FAA3B3
:104BDA00E0F912318FFB60619004AEE0FCA3E0FDC6
:104BEA009004B3E0FFA3E09004C4CFF0A3EFF090E9
:104BFA0004B5E0FFA3E09004C6CFF0A3EFF0900461
:104C0A00B7E09004C8F09004B8E09004C9F09004AA
:104C1A00ACE0FEA3E0FF123FCC9004B7E0C313FF61
:104C2A009004ADE02FF09004ACE03400F09004B1B1
:0A4C3A00E475F0011231E7808E22CC
:074CA400C3EF9E14FD7F0A1F
:084CAB009004BFEFF0A3EDF04F
:104CB300A3123334000000019004C0E0FF14F0EFAE
:104CC3006020A3E0F8A3E0F9A3E0FAA3E0FB9004DB
:104CD300BFE0FFE4FCFDFE1231FD9004C112332856
:104CE30080D69004C1E0FCA3E0FDA3E0FEA3E0FFB7
:014CF300229E
:104752009004ACEEF0A3EFF0A3ECF0A3EDF0A3EA2B
:04476200F0A3EBF0E5
:10476600E49004BAF09004B7E0C3139004BBF0E4FD
:104776009004B8F09004B2E0FF9004B8E0FEC39F46
:10478600400302487D124CA4A804A905AA06AB075B
:104796009004B0E0FEA3E0FFE4FCFD123288E47B67
:1047A6000AFAF9F81232889004B9EBF0A3E07065C2
:1047B6009004B2E014FF9004B8E0FEC39F5056A3E5
:1047C600E0704C9004BBE0FFEE8FF0A4FF9004ADC8
:1047D600E02FFF9004ACE035F0FE9004AEE0FCA3C1
:1047E600E0FD9004B3E0FBA3E09004C4CBF0A3EBA0
:1047F600F09004B5E0FBA3E09004C6CBF0A3EBF089
:104806009004B7E09004C8F0E4A3F07B20805C90AD
:1048160004BA7401F09004BBE0FF9004B8E08FF096
:10482600A4FF9004ADE02FFF9004ACE035F0FEC08D
:10483600079004AEE0FCA3E0FD9004B9E02430FB51
:104846009004B3E0FFA3E09004C4CFF0A3EFF09090
:1048560004B5E0FFA3E09004C6CFF0A3EFF0900408
:10486600B7E09004C8F0E4A3F0D007123FCC900460
:07487600B8E004F002477AEC
:01487D002218
:0E44D0009004ACEEF0A3EFF0A3ECF0A3EDF03F
:1044DE009004B9E0C3139004BCF0E4FFFE7DC87CE9
:1044EE00429004B0E0F8A3E0F9A3E0FAA3E0FB12D7
:1044FE00300812310E9004BDEEF0A3EFF0E49004FC
:10450E00BAF09004B4E0FF9004BAE0FEC39F4003FB
:10451E00024619124CA4A804A905AA06AB079004DA
:10452E00BDE0FEA3E0FFE4FCFD123288E47B0AFA54
:10453E00F9F81232889004BBEBF09004B4E0FF243B
:10454E00FEFE9004BAE06E7060EF24FEFFE434FFCE
:10455E00FE9004BCE0FD7C001231D59004ADE02F3E
:10456E00FF9004ACE03EFE9004AEE0FCA3E0FD90B4
:10457E0004B5E0FBA3E09004C4CBF0A3EBF09004F1
:10458E00B7E0FBA3E09004C6CBF0A3EBF09004B928
:10459E00E09004C8F0E4A3F07B2E123FCC9004BA56
:1045AE00E004F09004B4E004F09004BCE0FF90044A
:1045BE00BAE08FF0A4FF9004ADE02FFF9004ACE0C2
:1045CE0035F0FEC0079004AEE0FCA3E0FD9004BB06
:1045DE00E02430FB9004B5E0FFA3E09004C4CFF0DC
:1045EE00A3EFF09004B7E0FFA3E09004C6CFF0A3D2
:1045FE00EFF09004B9E09004C8F0E4A3F0D00712F5
:0B460E003FCC9004BAE004F00245101D
:01461900227E
:10487E009004B0EAF0A3EBF09004ACEEF0A3EFF0EE
:06488E00A3ECF0A3EDF025
:10489400E49004BBF0A3F0C006C0079004B0E0FEAF
:1048A400A3E0FF9004ACE0FAA3E02FFFEA3ECF249C
:1048B400FFFBEF34FFFA9004B2E0FEA3E0FF9004A4
:1048C400AEE0F8A3E02FFFE83ECF24FFCF34FF9003
:1048D40004DFF0A3EFF0D007D006124CF4E4900408
:1048E400B7F0A3F09004B0E0FEA3E0FFC39004B8D7
:1048F400E09F9004B7E09E400302499BE49004B912
:10490400F0A3F09004B2E0FEA3E0FFC39004BAE089
:104914009F9004B9E09E506B9004BCE025E0FF90AA
:1049240004BBE033FE9004B4E0FBA3E0FAA3E0F997
:104934008F828E831231A8FF124D8E9004BCE02525
:10494400E0FF9004BBE033FEEF2401FFE43EFE9061
:1049540004B4E0FBA3E0FAA3E0F98F828E83123162
:10496400A8FF124D8E9004BCE004F070069004BBC6
:10497400E004F09004BAE004F070889004B9E00414
:10498400F080809004B8E004F060030248E89004EA
:07499400B7E004F00248E85F
:01499B0022F9
:102F100002317AE86480F8E933E83360110460F044
:102F2000ED33EC337009E8FCE9FDEAFEEBFF220427
:102F300060DED3EB9FEA9EE99DE8C2E78CF0C2F722
:102F400095F0400CE8CCF8E9CDF9EACEFAEBCFFBEE
:102F500012314585D0F05804700320D5B3E80470D1
:102F6000075002B2D502318492D5EC0460F7E4CC6C
:102F7000C0E0C398F8603B94186008400DD0E0FBB7
:102F800002315CE4FBFAC9FC8028E830E406E4C9BD
:102F9000FBE4CAFCE830E305E4C9CACBFCE854070B
:102FA0006010F8C3E913F9EA13FAEB13FBEC13FC16
:102FB000D8F130F52FC3E49CFCEF9BFFEE9AFEEDB9
:102FC00099FDD0E0FBEF4E4D4C701222DB03023135
:102FD00081EC2CFCEF33FFEE33FEED33FDED30E7FB
:102FE000EB02315CEF2BFFEE3AFEED39FDD0E0FB5A
:102FF00050130BBB0003023184ED13FDEE13FEEF03
:0830000013FFEC13FC02315C2C
:10300800EC4D6011E8497017ED33EC3304600DE4C2
:10301800FCFFFEFD22E933E8330470F802317A122E
:10302800314558046009E4CC24815006285009022F
:103038003184284003023181C0E0EB4A7044B980F2
:1030480006D0E0FB023170EF4E701CBD8008EBFF2C
:10305800EAFEE9FD80EBE98DF0A4FEE5F00230F12F
:10306800E9CDF9EAFEEBFFEF89F0A4FCE5F0CE89A3
:10307800F0A42EFFE435F0CD89F0A42DFEE435F060
:103088008067EF4E7005BD80D780C3EF8BF0A4AC8E
:10309800F0EE8BF0A42CFCE435F0F8EF8AF0A42CC9
:1030A800E5F038FCE433CB8DF0A42CFCE5F03BF8DC
:1030B800EE8AF0A42CFCE5F038F8E433CF89F0A4CC
:1030C8002CFCE5F038CF3400CE89F0A42FFFE5F0D2
:1030D8003EFEE433C98DF0A42EFEE5F039CD8AF02A
:1030E800A42FFFE5F03EFEE43DFD33D0E0FB5007A2
:1030F8000BBB000F023184EC2CFCEF33FFEE33FEE8
:06310800ED33FD02315C15
:10310E00EDD2E7CD33EC3392D524814006E4FFFEB9
:10311E00FDFC22FCE4CFCECDCC24E0501174FF8018
:10312E00EDC3CC13CCCD13CDCE13CECF13CF0470B5
:07313E00F030D5DE02331A68
:10314500E9D2E7C933E833F892D5EDD2E7CD33ECD0
:0731550033FC5002B2D52249
:10315C00EC30E7100FBF000C0EBE00080DBD0004D4
:10316C000BEB6014A2D5EB13FCED92E7FD2274FF80
:10317C00FCFDFEFF22E480F8A2D574FF13FC7D80D9
:03318C00E480EFED
:104B3A0002434DE493A3F8E493A34003F68001F201
:104B4A0008DFF48029E493A3F85407240CC8C3337C
:104B5A00C4540F4420C8834004F456800146F6DF4B
:104B6A00E4800B0102040810204080902A5DE47E54
:104B7A00019360BCA3FF543F30E509541FFEE49340
:104B8A00A360010ECF54C025E060A840B8E493A307
:104B9A00FAE493A3F8E493A3C8C582C8CAC583CA32
:104BAA00F0A3C8C582C8CAC583CADFE9DEE780BEEA
:012F0F0000C1
:10318F00BB010689828A83E0225002E722BBFE023E
:09319F00E32289828A83E4932271
:1031A800BB010CE58229F582E5833AF583E02250DC
:1031B80006E92582F8E622BBFE06E92582F8E22226
:0D31C800E58229F582E5833AF583E4932240
:1031D500EF8DF0A4A8F0CF8CF0A428CE8DF0A42E0E
:0231E500FE22C8
:1031E700C5F0F8A3E028F0C5F0F8E5821582700273
:0631F7001583E038F02210
:1031FD00E88FF0A4CC8BF0A42CFCE98EF0A42CFC71
:10320D008AF0EDA42CFCEA8EF0A4CDA8F08BF0A4EE
:10321D002DCC3825F0FDE98FF0A42CCD35F0FCEB4D
:10322D008EF0A4FEA9F0EB8FF0A4CFC5F02ECD3912
:0F323D00FEE43CFCEAA42DCE35F0FDE43CFC227F
:10324C0075F008758200EF2FFFEE33FECD33CDCC39
:10325C0033CCC58233C5829BED9AEC99E5829840BC
:10326C000CF582EE9BFEED9AFDEC99FC0FD5F0D699
:10327C00E4CEFBE4CDFAE4CCF9A88222B800C1B9C3
:10328C000059BA002DEC8BF084CFCECDFCE5F0CB01
:10329C00F97818EF2FFFEE33FEED33FDEC33FCEB3A
:1032AC0033FB10D703994004EB99FB0FD8E5E4F9F5
:1032BC00FA227818EF2FFFEE33FEED33FDEC33FCE2
:1032CC00C933C910D7059BE99A4007EC9BFCE99AD6
:1032DC00F90FD8E0E4C9FAE4CCFB2275F010EF2F1B
:1032EC00FFEE33FEED33FDCC33CCC833C810D7071B
:1032FC009BEC9AE899400AED9BFDEC9AFCE899F856
:0E330C000FD5F0DAE4CDFBE4CCFAE4C8F922E8
:0E331A00C3E49FFFE49EFEE49DFDE49CFC22C4
:0C332800ECF0A3EDF0A3EEF0A3EFF02218
:10333400A8828583F0D083D08212334B12334B1290
:10334400334B12334BE473E493A3C583C5F0C583B5
:10335400C8C582C8F0A3C583C5F0C583C8C582C8E3
:013364002246
:0C336500A42582F582E5F03583F5832273
:00000001FF
